:100000000C945F000C9487000C9487000C9487007C
:100010000C9487000C9487000C9487000C94870044
:100020000C9487000C9487000C9487000C94870034
:100030000C9487000C9487000C9487000C94870024
:100040000C942A030C9487000C94AB050C94DD05EA
:100050000C9487000C9487000C9487000C94870004
:100060000C9487000C948700000000080002010037
:100070000003040700000000000000000102040863
:100080001020408001020408102001020408102002
:10009000040404040404040402020202020203032E
:1000A0000303030300000000250028002B000000CC
:1000B0000000240027002A0080010D066A02112496
:1000C0001FBECFEFD8E0DEBFCDBF11E0A0E0B1E0B2
:1000D000EEE1F3E102C005900D92A23AB107D9F723
:1000E00023E0A2EAB1E001C01D92A933B207E1F713
:1000F00010E0CCEBD0E004C02297FE010E943E0746
:10010000C83BD107C9F70E9441050C9482090C94A1
:10011000000026E040E855E260E070E087E992E008
:100120000E94DE0461E0809108010E94BB0280E829
:1001300092E00C940607CF93DF93EC0161E080918D
:1001400008010E94F4028091060190910701C89F66
:10015000B001C99F700DD89F700D1124882777FDBD
:100160008095982FDF91CF910C949703CF93DF93D5
:10017000EC0160E0809108010E94F4028091060188
:1001800090910701C89FB001C99F700DD89F700D55
:100190001124882777FD8095982FDF91CF910C94BB
:1001A000970384E090E00E94B6006AE071E087E97E
:1001B00092E00C948E0581E090E00E949B0081E02B
:1001C00090E00E94B6006AE871E087E992E00C9442
:1001D0008E0583E090E00E949B0081E090E00E9409
:1001E000B60060E971E087E992E00C948E050F9308
:1001F0001F93CF93DF938C01C0E0D0E0F80184819E
:100200009581C817D907B0F4BE01C8010E94F40651
:10021000FC0180818D3239F08E3241F0803241F420
:100220000E94D10005C00E94E90002C00E94DB00CC
:100230002196E4CF82E090E00E94B6006BE071E08E
:1002400087E992E0DF91CF911F910F910C948E0579
:10025000FF920F931F93CF93DF9300D000D000D075
:10026000CDB7DEB7F82E00E010E020918A02309181
:100270008B020217130798F4B80186E892E00E94F7
:10028000F406FC0180818F1591F0B80180E892E0BE
:100290000E94F406FC0180818F1123C008C0FAE09F
:1002A000FF1222C087E992E00E9497051DC06F2DC2
:1002B00087E992E00E94900586E0809FB001819FCF
:1002C000700D11246E557E4FCE0101960E94EB06F3
:1002D000CE0101960E94F700CE0101960E945006C1
:1002E00003C00F5F1F4FC1CF26960FB6F894DEBF35
:1002F0000FBECDBFDF91CF911F910F91FF90089559
:100300006DE071E086E892E00E94BE0666E872E069
:1003100080E892E00E94EB0669E471E082EA91E0F5
:100320000E94BE066BE771E088EA91E00E94BE067B
:1003300063E371E08EEA91E00E94BE0662E871E03C
:1003400084EB91E00E94BE066AE871E08AEB91E0DE
:100350000E94BE0668E371E080EC91E00E94BE0658
:1003600068E871E086EC91E00E94BE0665E771E006
:100370008CEC91E00E94BE0663E871E082ED91E0B2
:100380000E94BE066DE571E088ED91E00E94BE0618
:1003900068E471E08EED91E00E94BE066DE371E0CD
:1003A00084EE91E00E94BE066FE871E08AEE91E073
:1003B0000E94BE0669E871E080EF91E00E94BE06EF
:1003C0006EE871E086EF91E00E94BE0662E471E0A3
:1003D0008CEF91E00E94BE0667E471E082E092E05B
:1003E0000E94BE0664E371E088E092E00E94BE06CF
:1003F0006CE771E08EE092E00E94BE0660E971E079
:1004000084E192E00E94BE066DE471E08AE192E030
:100410000E94BE0669E671E080E292E00E94BE069C
:1004200062E571E086E292E00E94BE066CE471E053
:100430008CE292E00E94BE0661E571E082E392E008
:100440000E94BE0661E871E088E392E00E94BE0669
:1004500066E571E08EE392E00E94BE066CE571E015
:1004600084E492E00E94BE0662E671E08AE492E0D3
:100470000E94BE0668E671E080E592E00E94BE063A
:100480006EE671E086E592E00E94BE0664E771E0E8
:100490008CE592E00E94BE066AE771E082E692E097
:1004A0000E94BE0660E871E088E692E00E94BE0607
:1004B00066E871E08EE692E00E94BE066CE871E0AC
:1004C00084E792E00E94BE066BE071E08AE792E06A
:1004D0000C94BE06CF93DF93C0E8D2E02697CE01FE
:1004E0000E94500681E0C23AD807C1F780E892E046
:1004F0000E94500686E892E0DF91CF910C9450065E
:1005000087E992E00E94FB031816190654F487E964
:1005100092E00E94140480938C0290938D020C94BC
:1005200028010895833081F028F4813099F08230D9
:10053000A1F008958730A9F08830B9F08430D1F463
:10054000809180008F7D03C0809180008F778093A1
:100550008000089584B58F7702C084B58F7D84BDF7
:1005600008958091B0008F7703C08091B0008F7D97
:100570008093B0000895CF93DF9390E0FC01E4589E
:10058000FF4F2491FC01E057FF4F8491882349F1EC
:1005900090E0880F991FFC01E255FF4FA591B4919F
:1005A0008C559F4FFC01C591D4919FB7611108C034
:1005B000F8948C91209582238C93888182230AC0A1
:1005C000623051F4F8948C91322F309583238C93C0
:1005D0008881822B888304C0F8948C91822B8C9321
:1005E0009FBFDF91CF9108950F931F93CF93DF9318
:1005F0001F92CDB7DEB7282F30E0F901E859FF4F41
:100600008491F901E458FF4F1491F901E057FF4F2D
:1006100004910023C9F0882321F069830E9492028B
:100620006981E02FF0E0EE0FFF1FEC55FF4FA59121
:10063000B4919FB7F8948C91611103C010958123F8
:1006400001C0812B8C939FBF0F90DF91CF911F91A1
:100650000F9108951F920F920FB60F9211242F93AE
:100660003F938F939F93AF93BF9380918F0290910D
:100670009002A0919102B091920230918E0223E0FB
:10068000230F2D3720F40196A11DB11D05C026E8CA
:10069000230F0296A11DB11D20938E0280938F021D
:1006A00090939002A0939102B09392028091930252
:1006B00090919402A0919502B09196020196A11D8D
:1006C000B11D8093930290939402A0939502B093EE
:1006D0009602BF91AF919F918F913F912F910F9073
:1006E0000FBE0F901F9018953FB7F894809193021A
:1006F00090919402A0919502B091960226B5A89B84
:1007000005C02F3F19F00196A11DB11D3FBF6627FF
:10071000782F892F9A2F620F711D811D911D42E044
:10072000660F771F881F991F4A95D1F70895CF92BA
:10073000DF92EF92FF92CF93DF936B017C010E94D7
:100740007403EB01C114D104E104F10489F00E94A7
:10075000FA030E9474036C1B7D0B683E734090F398
:1007600081E0C81AD108E108F108C851DC4FEACF8E
:10077000DF91CF91FF90EF90DF90CF900895789424
:1007800084B5826084BD84B5816084BD85B5826096
:1007900085BD85B5816085BDEEE6F0E08081816034
:1007A0008083E1E8F0E01082808182608083808134
:1007B00081608083E0E8F0E0808181608083E1EB0C
:1007C000F0E0808184608083E0EBF0E080818160F4
:1007D0008083EAE7F0E080818460808380818260AA
:1007E0008083808181608083808180688083109293
:1007F000C10008950895FC01818D228D90E0805CF8
:100800009F4F821B91098F7399270895FC01918D49
:10081000828D981731F0828DE80FF11D858D90E063
:1008200008958FEF9FEF0895FC01918D828D9817A9
:1008300061F0828DDF01A80FB11D5D968C91928DC4
:100840009F5F9F73928F90E008958FEF9FEF0895C1
:1008500083E096E0892B49F080E090E0892B29F035
:100860000E94030681110C9400000895FC01848D00
:10087000DF01A80FB11DA35ABF4F2C91848D90E0CA
:1008800001968F739927848FA689B7892C93A089A5
:10089000B1898C9180648C93938D848D981306C05C
:1008A0000288F389E02D80818F7D80830895CF9326
:1008B000DF93EC01888D8823C9F0EA89FB89808168
:1008C00085FD05C0A889B9898C9186FD0FC00FB63A
:1008D00007FCF5CF808185FFF2CFA889B9898C917B
:1008E00085FFEDCFCE010E943604E7CFDF91CF9197
:1008F0000895CF92DF92FF920F931F93CF93DF93D0
:100900001F92CDB7DEB76C01DC015B969C915B97C3
:100910005C968C915C97981307C05096ED91FC9172
:100920005197808185FD32C0F601038D10E00F5F85
:100930001F4F0F731127F02EF601848DF81211C08E
:100940000FB607FCF9CFD6015096ED91FC91519767
:10095000808185FFF1CFC60169830E9436046981D9
:10096000EBCF838DE80FF11DE35AFF4F6083D60173
:100970005B960C935B975296ED91FC915397808117
:100980008062808381E058968C930DC0D601569684
:10099000ED91FC91579760835096ED91FC915197A2
:1009A00080818064808381E090E00F90DF91CF911F
:1009B0001F910F91FF90DF90CF900895BF92CF923B
:1009C000DF92EF92FF92CF93DF93EC016A017B01FC
:1009D000B22EE889F98982E08083411581EE5807BB
:1009E00061057105A1F060E079E08DE390E0A70179
:1009F00096010E941A072150310941095109569563
:100A0000479537952795211580E1380798F0E889B3
:100A1000F989108260E874E88EE190E0A701960100
:100A20000E941A07215031094109510956954795ED
:100A300037952795EC85FD853083EE85FF852083EE
:100A4000188EEC89FD89B082EA89FB8980818061FA
:100A50008083EA89FB89808188608083EA89FB89B9
:100A6000808180688083EA89FB8980818F7D808393
:100A7000DF91CF91FF90EF90DF90CF90BF900895DE
:100A800008950E94BF030E9440050E948900C8E2A9
:100A9000D4E00E9480022097E1F30E942804F9CF5D
:100AA000CF92DF92EF92FF920F931F93CF93DF933A
:100AB0006C017A01EB01E60EF71E00E010E0CE15A6
:100AC000DF0561F06991D601ED91FC910190F08113
:100AD000E02DC6010995080F191FF1CFC801DF915C
:100AE000CF911F910F91FF90EF90DF90CF900895DD
:100AF0006115710581F0DB010D900020E9F7AD0172
:100B000041505109461B570BDC01ED91FC910280CD
:100B1000F381E02D099480E090E008950C9478052D
:100B2000DC01ED91FC910190F081E02D09940F938F
:100B30001F93CF93DF93EC016DE00E9490058C0131
:100B40006AE0CE010E949005800F911FDF91CF9146
:100B50001F910F9108951F920F920FB60F921124BB
:100B60002F938F939F93EF93FF93E091A702F091C0
:100B7000A8028081E091AD02F091AE0282FD12C028
:100B800090818091B0028F5F8F732091B1028217A4
:100B900051F0E091B002F0E0E956FD4F958F80935F
:100BA000B00201C08081FF91EF919F918F912F91B1
:100BB0000F900FBE0F901F9018951F920F920FB6B7
:100BC0000F9211242F933F934F935F936F937F93D3
:100BD0008F939F93AF93BF93EF93FF9387E992E037
:100BE0000E943604FF91EF91BF91AF919F918F9139
:100BF0007F916F915F914F913F912F910F900FBE19
:100C00000F901F90189587E992E00E94FB0321E066
:100C1000892B09F420E0822F089510929A021092F5
:100C2000990288EE93E0A0E0B0E080939B0290935D
:100C30009C02A0939D02B0939E0286E991E090935E
:100C400098028093970285EC90E09093A4028093A1
:100C5000A30284EC90E09093A6028093A50280EC1E
:100C600090E09093A8028093A70281EC90E090938B
:100C7000AA028093A90282EC90E09093AC02809348
:100C8000AB0286EC90E09093AE028093AD0210929E
:100C9000B0021092B1021092B2021092B302089503
:100CA000FC01808191810C94DA07CF93DF93EC01F2
:100CB00088819981009711F00E94DA0719821882C1
:100CC0001D821C821B821A82DF91CF9108950F939F
:100CD0001F93CF93DF93EC018B016F5F7F4F888170
:100CE00099810E946908009731F0998388831B835A
:100CF0000A8381E001C080E0DF91CF911F910F91C5
:100D00000895CF93DF93EC0188819981892B29F095
:100D10008A819B818617970760F4CE010E9467063F
:100D2000882341F08C819D81892B19F4E881F98118
:100D3000108281E0DF91CF910895EF92FF920F939F
:100D40001F93CF93DF93EC017B018A01BA010E94CC
:100D50008106811104C0CE010E94550607C01D8383
:100D60000C83B701888199810E944409CE01DF91EB
:100D7000CF911F910F91FF90EF900895FC01118288
:100D8000108213821282158214826115710559F046
:100D9000FB0101900020E9F7AF0141505109461BCA
:100DA000570B0C949D060895CF93DF93EC01FB0144
:100DB0008617970761F0608171816115710529F0CF
:100DC000448155810E949D0602C00E945506CE01B5
:100DD000DF91CF910895FC0111821082138212825B
:100DE000158214820C94D406FC01848195816817C5
:100DF000790720F480819181009729F410923403BF
:100E000084E393E00895860F971F0895CF93DF93AF
:100E1000FC01C081D181209751F08881882339F06D
:100E2000992787FD90950E9433098993F6CFDF912A
:100E3000CF910895A1E21A2EAA1BBB1BFD010DC084
:100E4000AA1FBB1FEE1FFF1FA217B307E407F5077A
:100E500020F0A21BB30BE40BF50B661F771F881F56
:100E6000991F1A9469F760957095809590959B01EC
:100E7000AC01BD01CF010895EE0FFF1F0590F49165
:100E8000E02D0994CF93DF938230910510F482E036
:100E900090E0E0913703F091380320E030E0A0E0EB
:100EA000B0E0309739F14081518148175907B8F0C7
:100EB0004817590771F482819381109729F013968E
:100EC0009C938E9312972CC0909338038093370392
:100ED00027C02115310531F04217530718F0A90139
:100EE000DB0101C0EF019A01BD01DF010280F38146
:100EF000E02DD7CF21153105F9F0281B390B24300F
:100F0000310580F48A819B816115710521F0FB0117
:100F10009383828304C09093380380933703FE0148
:100F2000329644C0FE01E20FF31F81939193225049
:100F30003109398328833AC0209135033091360333
:100F4000232B41F4209102013091030130933603A9
:100F500020933503209100013091010121153105C5
:100F600041F42DB73EB74091040150910501241B77
:100F7000350BE0913503F0913603E217F307A0F447
:100F80002E1B3F0B2817390778F0AC014E5F5F4FDF
:100F90002417350748F04E0F5F1F509336034093D8
:100FA00035038193919302C0E0E0F0E0CF01DF913F
:100FB000CF910895CF93DF93009709F487C0FC0188
:100FC000329713821282C0913703D0913803209751
:100FD00081F420813181280F391F80913503909150
:100FE00036038217930779F5F0933603E0933503C0
:100FF0006DC0DE0120E030E0AE17BF0750F412965E
:101000004D915C9113979D014115510509F1DA014C
:10101000F3CFB383A28340815181840F951F8A1738
:101020009B0771F48D919C911197840F951F0296E7
:101030009183808312968D919C91139793838283E1
:101040002115310529F4F0933803E09337033EC0AE
:10105000D9011396FC93EE9312974D915D91A40FD5
:10106000B51FEA17FB0779F480819181840F951FE2
:101070000296D90111969C938E9382819381139647
:101080009C938E931297E0E0F0E08A819B81009719
:1010900019F0FE01EC01F9CFCE01029628813981C9
:1010A000820F931F2091350330913603281739079B
:1010B00069F4309729F4109238031092370302C074
:1010C00013821282D0933603C0933503DF91CF9100
:1010D0000895A0E0B0E0EFE6F8E00C944F09EC01D1
:1010E000CB01209719F40E944207B8C0FE01E60F19
:1010F000F71F9E0122503109E217F30708F4ACC034
:10110000D9010D911C91119706171707B8F00530FA
:10111000110508F49FC0A80144505109461757070C
:1011200008F498C002501109061B170B0193119384
:101130006D937C93CF010E94DA078CC05B01A01AEB
:10114000B10A4E01800E911EA0913703B091380371
:10115000612C712C60E070E0109709F449C0A8156B
:10116000B905C9F5ED90FC901197670142E0C40EF6
:10117000D11CCA14DB0478F147018A189B0864016A
:1011800042E0C40ED11C1296BC9012971396AC91FB
:10119000B5E0CB16D10440F0B282A3839182808265
:1011A000D9018D939C9309C00E5F1F4F0E0D1F1D1B
:1011B000F90111830083EB2DFA2F6115710531F0D0
:1011C000DB011396FC93EE93129744C0F09338031F
:1011D000E09337033FC06D917C91119766167706B7
:1011E00008F43B01BD0112960D90BC91A02DB4CF27
:1011F000609135037091360368157905E9F4681636
:101200007906D0F44091000150910101411551053A
:1012100041F44DB75EB76091040170910501461B22
:10122000570BE417F507C0F4F0933603E09335034A
:10123000F901918380830EC00E9442077C010097D0
:1012400059F0A801BE010E943B09CE010E94DA07B5
:10125000C70104C0CE0102C080E090E0CDB7DEB788
:10126000EEE00C946B099111089581568A5108F4AF
:10127000805285580895FB01DC0102C001900D9257
:1012800041505040D8F70895FB01DC0101900D92C8
:101290000020E1F708952F923F924F925F926F9254
:1012A0007F928F929F92AF92BF92CF92DF92EF92F6
:1012B000FF920F931F93CF93DF93CDB7DEB7CA1B77
:1012C000DB0B0FB6F894DEBF0FBECDBF09942A88A2
:1012D000398848885F846E847D848C849B84AA844A
:1012E000B984C884DF80EE80FD800C811B81AA81D7
:1012F000B981CE0FD11D0FB6F894DEBF0FBECDBFA2
:10130000ED01089510E0CCEBD0E004C0FE010E9496
:0E1310003E072296CE3BD107C9F7F894FFCFD7
:10131E0000003903800078000D0020200061626318
:10132E006465666768696A6B6C6D6E6F70717273F7
:10133E007475767778797A31323334353637383981
:10134E003020002D2E2D2E002E2E2D2E002E2D2E49
:10135E002E002E2D2D2E002D2D2E2D002D2E2E2D30
:10136E00002D2E2D2D002E2D2D2D2D002E2E2D2D22
:10137E002D002E2E2E2D2D002E2E2E2E2D002E2E0D
:10138E002E2E2E002D2E2E2E2E002D2D2E2E2E00FC
:10139E002D2D2D2E2E002D2D2D2D2E002D2D2D2DC6
:1013AE002D000000000079045005FB031404060410
:0213BE005704D2
:00000001FF
