:100000000C94C6030C94EE030C94EE030C94EE03D4
:100010000C94EE030C94EE030C94EE030C94EE039C
:100020000C94EE030C94EE030C94EE030C94EE038C
:100030000C94EE030C94EE030C94EE030C94EE037C
:100040000C94B0150C94EE030C9464190C9496194E
:100050000C94EE030C94EE030C94EE030C94EE035C
:100060000C94EE030C94EE03556E6B6E6F776E205E
:100070004C43442064726976657220636869703A03
:100080002000466F756E6420485838333437472057
:100090004C43442064726976657200466F756E64E5
:1000A00020494C4939333238204C4344206472692A
:1000B00076657200466F756E6420494C493933325B
:1000C00035204C4344206472697665720050616942
:1000D0006E74210000000100FF00320001000001E9
:1000E00002000007030030100400000008000202B4
:1000F000090000000A0000000C0000000D000000D4
:100100000F000000100000001100070012000000A6
:1001100013000000FF00C800100090161100270215
:10012000FF00320012001A00FF0032001300001816
:1001300029002A00FF0032003000000031000000DA
:1001400032000000350006023600080837000700BC
:1001500038000102390000003C0000003D000000B2
:100160002000000021000000500000005100EF00BE
:100170005200000053003F01600000A7610003002F
:100180006A0000009000100092000000930003003D
:10019000950000119700000098000000070033014F
:1001A0000100B903FF8357FFFAB30400000606B647
:1001B0000125B00168CC0105B10600151C1C83AAFD
:1001C000C0065050013C1E08B4070240002A2A0D08
:1001D000783A01553601C035010044020002110091
:1001E000FF962900FF322E89298F2B02E200E401BD
:1001F000E510E601E710E870F200EA00EB20EC3CC5
:10020000EDC8E938F1011B1A1A022461255C183681
:1002100019011F88FF051F80FF051F90FF051FD4D0
:10022000FF05170536092838FF28283C020003007F
:10023000040005EF060007000801093F0000000068
:10024000003E5B4F5B3E3E6B4F6B3E1C3E7C3E1C5C
:10025000183C7E3C181C577D571C1C5E7F5E1C00A2
:10026000183C1800FFE7C3E7FF0018241800FFE759
:10027000DBE7FF30483A060E2629792926407F051C
:100280000507407F05253F5A3CE73C5A7F3E1C1C32
:1002900008081C1C3E7F14227F22145F5F005F5FF2
:1002A00006097F017F006689956A606060606094DE
:1002B000A2FFA29408047E040810207E20100808E3
:1002C0002A1C08081C2A08081E101010100C1E0CEE
:1002D0001E0C30383E3830060E3E0E060000000080
:1002E0000000005F00000007000700147F147F1467
:1002F000242A7F2A122313086462364956205000AC
:1003000008070300001C2241000041221C002A1C97
:100310007F1C2A08083E0808008070300008080882
:100320000808000060600020100804023E514945A2
:100330003E00427F400072494949462141494D33C0
:100340001814127F1027454545393C4A4949314127
:10035000211109073649494936464949291E0000F5
:10036000140000004034000000081422411414144A
:100370001414004122140802015909063E415D5936
:100380004E7C1211127C7F494949363E414141223F
:100390007F4141413E7F494949417F090909013E69
:1003A000414151737F0808087F00417F4100204090
:1003B000413F017F081422417F404040407F021CA2
:1003C000027F7F0408107F3E4141413E7F090909B9
:1003D000063E4151215E7F09192946264949493285
:1003E00003017F01033F4040403F1F2040201F3F4B
:1003F0004038403F631408146303047804036159D0
:10040000494D43007F414141020408102000414111
:10041000417F0402010204404040404000030708BD
:100420000020545478407F284444383844444428B9
:10043000384444287F385454541800087E09021860
:10044000A4A49C787F0804047800447D40002040E8
:10045000403D007F1028440000417F40007C04782C
:1004600004787C080404783844444438FC18242474
:100470001818242418FC7C080404084854545424F4
:1004800004043F44243C4040207C1C2040201C3C71
:100490004030403C44281028444C9090907C446468
:1004A000544C4400083641000000770000004136FB
:1004B000080002010204023C2623263C1EA1A16181
:1004C000123A4040207A38545455592155557941B3
:1004D0002254547842215554784020545579400C88
:1004E0001E5272123955555559395454545939556B
:1004F0005454580000457C410002457D42000145AE
:100500007C407D1211127DF0282528F07C54554541
:10051000002054547C547C0A097F493249494932AD
:100520003A4444443A324A4848303A4141217A3ABE
:1005300042402078009DA0A07D3D4242423D3D408A
:1005400040403D3C24FF2424487E4943662B2FFC39
:100550002F2BFF0929F620C0887E090320545479E7
:10056000410000447D413048484A32384040227AB8
:10057000007A0A0A727D0D19317D2629292F282635
:100580002929292630484D4020380808080808083D
:100590000808382F10C8ACBA2F102834FA00007B96
:1005A000000008142A142222142A1408AA00550054
:1005B000AAAA55AA55AA000000FF00101010FF00BB
:1005C000141414FF001010FF00FF1010F010F014AE
:1005D0001414FC001414F700FF0000FF00FF1414B3
:1005E000F404FC141417101F10101F101F141414FF
:1005F0001F00101010F0000000001F101010101F3E
:1006000010101010F010000000FF1010101010104B
:10061000101010FF10000000FF140000FF00FF008A
:10062000001F10170000FC04F41414171017141402
:10063000F404F40000FF00F714141414141414F755
:1006400000F7141414171410101F101F141414F4AE
:10065000141010F010F000001F101F0000001F14F5
:10066000000000FC140000F010F01010FF10FF1448
:100670001414FF141010101F00000000F010FFFFF2
:10068000FFFFFFF0F0F0F0F0FFFFFF0000000000C0
:10069000FFFF0F0F0F0F0F3844443844FC4A4A4AFB
:1006A000347E02020606027E027E026355494163E1
:1006B0003844443C04407E201E2006027E020299FB
:1006C000A5E7A5991C2A492A1C4C7201724C304A94
:1006D0004D4D303048784830BC625A463D3E49491D
:1006E00049007E0101017E2A2A2A2A2A44445F44C5
:1006F0004440514A444040444A51400000FF0103F5
:10070000E080FF000008086B6B08361236243606BE
:100710000F090F06000018180000001010003040EC
:10072000FF0101001F01011E00191D1712003C3CB2
:100730003C3C000000000000000008000201000036
:10074000030407000000000000000001020408107C
:100750002040800102040810200102040810200437
:100760000404040404040402020202020203030358
:1007700003030300000000250028002B00000000F8
:1007800000240027002A0000F003C61911241FBE10
:10079000CFEFD8E0DEBFCDBF11E0A0E0B1E0EEEFDB
:1007A000F8E302C005900D92A036B107D9F722E018
:1007B000A0E6B1E001C01D92AA32B207E1F717E04E
:1007C000CCE8D7E004C02297FE010E94741CC83810
:1007D000D107C9F70E9437180C947D1C0C940000B7
:1007E000EF92FF920F938CE2E82EFF24F39407E040
:1007F00020E14FE066E08CE791E00E940B1184E677
:1008000091E00F91FF90EF900C945108EF92FF92BE
:100810000F931F93CF93DF9326E040E855E260E00B
:1008200070E08DE891E00E948B176DEC70E08DE830
:1008300091E00E94C41884E691E00E94F20684E6EA
:1008400091E00E94C709EC01C53283E9D80719F489
:1008500064EB70E006C0C83283E9D80739F46BE96D
:1008600070E08DE891E00E94C41814C0C53785E798
:10087000D80719F462E870E0F4CF68E670E08DE81C
:1008800091E00E94841840E150E0BE018DE891E0C3
:100890000E944E19BE0184E691E00E946F0E60E056
:1008A00070E084E691E00E94C70CE12C98EFF92EED
:1008B00008E210E028E230E040E050E060E070E064
:1008C00084E691E00E943B0C20EEE22EFF24FA9495
:1008D00028E230E040E050E068E270E084E691E039
:1008E0000E943B0C30EEE32E37E0F32E28E230E09E
:1008F00040E050E060E570E084E691E00E943B0C4F
:10090000EE24EA9447E0F42E28E230E040E050E0A4
:1009100068E770E084E691E00E943B0C5FE1E52E21
:10092000F12C28E230E040E050E060EA70E084E63C
:1009300091E00E943B0C6FE1E62E68EFF62E28E274
:1009400030E040E050E068EC70E084E691E00E9426
:100950003B0CE0916401F09165010484F585E02D84
:10096000EE24EA94FE2C28E230E040E050E060E023
:1009700070E084E691E0099580E098EF9093610142
:100980008093600161E08DE0DF91CF911F910F9125
:10099000FF90EF900C9441152F923F924F925F92EF
:1009A0006F927F928F929F92AF92BF92CF92DF927F
:1009B000EF92FF920F931F93CF93DF93CDB7DEB7E4
:1009C0002A970FB6F894DEBF0FBECDBF61E08DE071
:1009D0000E947A158CE791E00E948E0F29833A835A
:1009E0004B835C836D837E8389809A806B807C805F
:1009F00060E08DE00E947A1561E080E10E9441157F
:100A000061E08FE00E9441158D819E810B978D3DA5
:100A1000934008F0CEC133E763167104E4F465E057
:100A200071E08DE891E00E94D61884E691E00E9482
:100A300014158C0184E691E00E94101508521109EA
:100A4000E12CF12C9C0148E250E060E070E084E68B
:100A500091E00E943B0C84E691E00E9410155C013D
:100A6000CC24B7FCC094DC2CB401882777FD80959A
:100A7000982F1F921F921F921F9218E9E12E13E0E8
:100A8000F12E00E010E026E930E040E050E00E9466
:100A9000ED171B012C0184E691E00E9414155C0106
:100AA000CC24B7FCC094DC2CB301882777FD80955B
:100AB000982F1F921F921F921F921CEAE12E13E0A3
:100AC000F12E00E010E028E730E040E050E00E9426
:100AD000ED17AB01BC010FB6F894DEBF0FBECDBF62
:100AE000483251050CF047C180916001909161013D
:100AF000909363018093620138E223163104CCF4B1
:100B000080E098EF9093610180936001E09164012F
:100B1000F09165010484F585E02DEE24EA94FE2C25
:100B200008E210E028E230E040E050E060E070E0F1
:100B300090C080E528163104CCF480EE9FEF9093AE
:100B4000610180936001E0916401F091650104848A
:100B5000F585E02DEE24EA94FE2C08E210E028E270
:100B600030E040E050E068E270E073C028E7221611
:100B70003104CCF480EE97E09093610180936001A2
:100B8000E0916401F09165010484F585E02DEE2487
:100B9000EA94FE2C08E210E028E230E040E050E069
:100BA00060E570E056C030EA23163104CCF48FEFD4
:100BB00097E09093610180936001E0916401F0916E
:100BC00065010484F585E02DEE24EA94FE2C08E20C
:100BD00010E028E230E040E050E068E770E039C023
:100BE00088EC28163104CCF48FE190E090936101F9
:100BF00080936001E0916401F09165010484F585C2
:100C0000E02DEE24EA94FE2C08E210E028E230E029
:100C100040E050E060EA70E01CC020EF2216310492
:100C2000DCF48FE198EF9093610180936001E09193
:100C30006401F09165010484F585E02DEE24EA94C9
:100C4000FE2C08E210E028E230E040E050E068ECE2
:100C500070E084E691E009958091620190916301D2
:100C600020916001309161018217930709F4A1C0BE
:100C70008115984F79F4E12C08EFF02E08E210E08E
:100C800028E230E040E050E060E070E084E691E08F
:100C90000E943B0C8091620190916301809681F4E7
:100CA00010EEE12EFF24FA9408E210E028E230E092
:100CB00040E050E068E270E084E691E00E943B0C86
:100CC0008091620190916301803E974081F4B0EE83
:100CD000EB2EB7E0FB2E08E210E028E230E040E027
:100CE00050E060E570E084E691E00E943B0C80916A
:100CF0006201909163018F3F974081F4EE24EA9462
:100D0000A7E0FA2E08E210E028E230E040E050E0F0
:100D100068E770E084E691E00E943B0C80916201FC
:100D2000909163014F9779F4FFE1EF2EF12C08E2E7
:100D300010E028E230E040E050E060EA70E084E655
:100D400091E00E943B0C80916201909163018F3190
:100D5000984F79F5EFE1EE2EE8EFFE2E08E210E075
:100D600028E230E040E050E068EC70E084E691E09A
:100D70000E943B0C1EC04D325105DCF084E691E030
:100D80004F83588769877A870E9414154F81588549
:100D90009A012C5F3F4F281739075CF400916001DE
:100DA0001091610124E030E0B10184E691E00E94FD
:100DB00097132A960FB6F894DEBF0FBECDBFDF9112
:100DC000CF911F910F91FF90EF90DF90CF90BF9048
:100DD000AF909F908F907F906F905F904F903F90DB
:100DE0002F900895439A419A409A60E085E00E94CE
:100DF0007A1562E070E080E090E00E941D1661E0EC
:100E000085E00E947A15439842988BB18F728BB916
:100E100085B1807D85B94198419A83E04198419A96
:100E20008150E1F7439A08950F931F93CF93DF9377
:100E3000162F072F43984298FC018789823069F06A
:100E4000811109C08BB18F728BB985B1807D85B955
:100E50004198419A09C0833039F48BB18F728BB9B4
:100E600085B1807D8C6206C08BB18F728BB985B1E4
:100E7000807D826285B94198419A429A8BB1E02F78
:100E8000E07D8F728E2B8BB985B1F02FFF72807D44
:100E90008F2B85B94198419A8BB1C12FC07D8F723C
:100EA0008C2B8BB985B1D12FDF72807D8D2B85B9CD
:100EB0004198419ADA01C9010197A109B109AC0130
:100EC000BD0196E076956795579547959A95D1F728
:100ED00020E030E001137CC042175307B1F060E11D
:100EE0004198419A4198419A4198419A4198419A32
:100EF0004198419A4198419A4198419A4198419A22
:100F0000615071F72F5F3F4FE7CF8F73815028F00B
:100F10004198419A4198419AF9CF439ADF91CF91F4
:100F20001F910F9108956BB16F726E2B6BB965B104
:100F3000607D6F2B65B94198419A6BB16F726C2BD4
:100F40006BB965B1607D6D2B65B94198419A6BB104
:100F50006F726E2B6BB965B1607D6F2B65B941986F
:100F6000419A6BB16F726C2B6BB965B1607D6D2B63
:100F700065B94198419A6BB16F726E2B6BB965B1CF
:100F8000607D6F2B65B94198419A6BB16F726C2B84
:100F90006BB965B1607D6D2B65B94198419A6BB1B4
:100FA0006F726E2B6BB965B1607D6F2B65B941981F
:100FB000419A6BB16F726C2B6BB965B1607D6D2B13
:100FC00065B94198419A715009F0ADCF2F5F3F4FFD
:100FD0004217530711F070E1A6CF8F73815008F4C8
:100FE0009CCF9BB19F729E2B9BB995B1907D9F2BFF
:100FF00095B94198419A9BB19F729C2B9BB995B131
:10100000907D9D2B95B94198419AE8CF409800C0BA
:1010100000C000C0000089B193B1409A9F72807DEA
:10102000892B08958AB1806D8AB984B18F6284B9A1
:101030000895CF93DF93EC01439A419A409A429AE4
:1010400061E085E00E947A1561E081E10E9441152E
:1010500061E080E10E94411561E08FE00E9441154E
:1010600061E08EE00E94411561E085E00E9441153B
:10107000CE010E9412081D8A1D861C861F861E86B0
:1010800081E08C8B8FEF9FEF998B888B80EF90E0C6
:101090009987888780E491E09B878A87DF91CF9149
:1010A0000895CF93DF93EC0140E451E060EF70E0EE
:1010B0000E94A41284E291E099838883CE01DF919B
:1010C000CF910C9419088AB18F728AB984B1807D4E
:1010D00084B90895CF92DF92EF92FF92CF93DF937E
:1010E000EC01439842989BB1862F807D9F72892B9B
:1010F0008BB985B16F72807D682B65B94198419A33
:10110000CE010E946308429A82E390E00E94451655
:10111000CE010E940608C82ED12CE12CF12CFE2C09
:10112000ED2CDC2CCC24CE010E940608C82AFE2C13
:10113000ED2CDC2CCC24CE010E940608C82AFE2C03
:10114000ED2CDC2CCC24CE010E940608C82A439A40
:10115000CE010E941208C701B601DF91CF91FF9026
:10116000EF90DF90CF90089542989BB1862F807DBD
:101170009F72892B8BB985B16F72807D682B65B9A1
:101180004198419A429A9BB1842F807D9F72892B0E
:101190008BB985B14F72807D482B45B94198419AF2
:1011A000089542989BB1872F807D9F72892B8BB9C0
:1011B00085B17F72807D782B75B94198419A9BB13A
:1011C000862F807D9F72892B8BB985B16F72807D50
:1011D000682B65B94198419A429A9BB1852F807DD1
:1011E0009F72892B8BB985B15F72807D582B55B961
:1011F0004198419A9BB1842F807D9F72892B8BB936
:1012000085B14F72807D482B45B94198419A089528
:1012100042989BB1862F807D9F72892B8BB985B1B7
:101220006F72807D682B65B94198419A429A9BB153
:10123000832F807D9F72892B8BB985B13F72807D12
:10124000382B35B94198419A42989BB1842F807DC3
:101250009F72892B8BB985B14F72807D482B45B920
:101260004198419A429A9BB1822F807D9F72892B2F
:101270008BB985B12F72807D282B25B94198419A71
:101280000895CF93DF93EC01439828853985215049
:10129000310945E064E00E9408092A853B85215018
:1012A000310949E068E0CE010E940809439ADF91C4
:1012B000CF910895CF93DF9300D000D0CDB7DEB7A4
:1012C000439842989BB1862F807D9F72892B8BB962
:1012D00085B16F72807D682B65B94198419A429AB9
:1012E0008AE090E029833A834B835C830E94451611
:1012F0007BB129813A814B815C81CA01AA27BB2736
:10130000682F607D7F72672B6BB965B18F72607DCE
:10131000862B85B94198419A8AE090E029833A83E7
:101320004B835C830E9445167BB129813A814B81B6
:101330005C81BB27A52F942F832F682F607D7F7240
:10134000672B6BB965B18F72607D862B85B941982B
:10135000419A8AE090E029833A834B835C830E9420
:1013600045169BB12981822F807D9F72892B8BB975
:1013700085B12F72807D282B25B94198419A439AD7
:101380000F900F900F900F90DF91CF9108950F93D2
:101390001F93CF93DF93EC0164E00E946A0861150C
:1013A00070488105910539F163EDCE010E946A080C
:1013B00061347349D1F1439842988BB18F728BB9E4
:1013C00085B1807D85B94198419A4198419ACE0175
:1013D0000E946308429ACE010E940608182FCE018F
:1013E0000E940608082FCE010E941208439A802FFF
:1013F00090E0912B1CC027E533E84FEF50E069EBFC
:10140000CE010E945A096CE271E080E090E00E94F7
:101410001D1660EDCE010E946A08611571058949AB
:10142000910511F687E593E802C081E493E9DF9125
:10143000CF911F910F910895CF93DF9300D000D0EB
:10144000CDB7DEB7439842989BB1862F807D9F72BF
:10145000892B8BB985B16F72807D682B65B94198F6
:10146000419A429A8AE090E029833A834B835C83D5
:101470000E9445167BB129813A814B815C81852F81
:101480009927AA27BB27682F607D7F72672B6BB9CE
:1014900065B18F72607D862B85B94198419A8AE04B
:1014A00090E029833A834B835C830E9445167BB18D
:1014B00029813A814B815C81CA01AA27BB27682F09
:1014C000607D7F72672B6BB965B18F72607D862BF3
:1014D00085B94198419A8AE090E029833A834B8309
:1014E0005C830E9445167BB129813A814B815C81E6
:1014F000BB27A52F942F832F682F607D7F72672BCA
:101500006BB965B18F72607D862B85B94198419A20
:101510008AE090E029833A834B835C830E944516DE
:101520009BB12981822F807D9F72892B8BB985B1D8
:101530002F72807D282B25B94198419A439A0F90AC
:101540000F900F900F90DF91CF9108958F929F92FF
:10155000AF92BF92CF92DF92EF92FF920F931F93C1
:10156000CF93DF93EC017A01690143988F89811150
:101570005EC08D89823089F0833021F1813081F520
:101580008FEE90E09C01201B310B5B014C01841A13
:10159000950A860164017B0113C08FEE90E09C01E7
:1015A0002C193D096C01C61AD70A8FE391E0AC01F2
:1015B000401B510B8C010E191F09580146017A017D
:1015C000B90110C08FE391E09C012C193D095C0129
:1015D000A61AB70A4A0168018501B701790102C05C
:1015E0005A014B01AB0160E570E0CE010E94D108C9
:1015F000A60161E570E0CE010E94D108A70162E575
:1016000070E0CE010E94D108A80163E570E0CE0130
:101610000E94D108A40160E270E0CE010E94D108CE
:10162000A50161E270E0CE010E94D10848C081307E
:10163000C9F49B0143E062E0CE010E9408099701D2
:1016400047E066E0CE010E940809960145E064E0AB
:10165000CE010E940809980149E068E0CE010E948D
:1016600008092DC08250823050F5CB01AA2797FD82
:10167000A095BA2FAC0133272227C601AA2797FDD0
:10168000A095BA2F282B392B4A2B5B2B6AE2CE016F
:101690000E941C0AC701AA2797FDA095BA2FAC018A
:1016A00033272227C801AA2797FDA095BA2F282BF8
:1016B000392B4A2B5B2B6BE2CE010E941C0A439A0A
:1016C000DF91CF911F910F91FF90EF90DF90CF901E
:1016D000BF90AF909F908F900895CF92DF92EF923E
:1016E000FF920F931F93CF93DF93EC016901780171
:1016F000121613060CF04FC057FD4DC08A859B850E
:10170000481759070CF047C08885998568177907ED
:101710000CF041C0FB01E20FF31F9F012150310982
:1017200037FD39C077FF03C06F0160E070E0281714
:10173000390734F09C01215031096C01C61AD70ACF
:101740008A01CE010E94A60A9601442737FD4095E2
:10175000542FB701CE010E9414078F89811110C048
:101760000A851B85015011092885398521503109C9
:1017700040E050E060E070E0CE010E94A60A0BC09D
:10178000CE01DF91CF911F910F91FF90EF90DF90ED
:10179000CF900C944109DF91CF911F910F91FF9051
:1017A000EF90DF90CF900895CF92DF92EF92FF926B
:1017B0000F931F93CF93DF93EC0169017801121609
:1017C00013060CF04FC077FD4DC0888599856817CA
:1017D00079070CF047C08A859B85481759070CF09C
:1017E00041C09A012C0D3D1D89010150110917FDC1
:1017F00039C057FF03C0690140E050E008171907DE
:1018000034F08C01015011096C01C41AD50A9B01F6
:10181000CE010E94A60A9601442737FD4095542F19
:10182000B701CE010E9414078F89811110C00A856B
:101830001B8501501109288539852150310940E067
:1018400050E060E070E0CE010E94A60A0BC0CE011D
:10185000DF91CF911F910F91FF90EF90DF90CF908C
:101860000C944109DF91CF911F910F91FF90EF9060
:10187000DF90CF9008958F929F92AF92BF92CF92B8
:10188000DF92EF92FF920F931F93CF93DF93EC01C0
:10189000590168014701121613060CF06BC01016AF
:1018A00011060CF067C088859985681779070CF0D8
:1018B00061C0EA84FB844E155F050CF05BC0FB0140
:1018C000E20FF31F9F012150310937FD53C0DA01A8
:1018D000A00FB11F8D010150110917FD4BC077FFFB
:1018E00003C05F0160E070E057FF03C06D0140E09E
:1018F00050E02817390734F09C01215031095C0170
:10190000A61AB70A0E151F0534F0870101501109F8
:101910006701C41AD50ACE010E94A60A9601D50114
:101920000E94491C9B01AC01B401CE010E94140726
:101930008F89811110C00A851B85015011092885E6
:1019400039852150310940E050E060E070E0CE017F
:101950000E94A60A0FC0CE01DF91CF911F910F9177
:10196000FF90EF90DF90CF90BF90AF909F908F90BF
:101970000C944109DF91CF911F910F91FF90EF904F
:10198000DF90CF90BF90AF909F908F900895EF928F
:10199000FF920F931F93CF93DF93EC017B018F890D
:1019A000811122C0ED89E150E33068F4F0E0DF01FD
:1019B000A35EBE4F4C9150E0EE0FFF1FE95EFE4F5D
:1019C0000081118104C000E010E040E050E0439845
:1019D00060E270E0CE010E94D108A80161E270E0EF
:1019E000CE010E94D10812C08150833078F40A855C
:1019F0001B8501501109288539852150310940E0A6
:101A000050E060E070E0CE010E94A60A20E03CE2D7
:101A100041E050E0B701CE01DF91CF911F910F91CE
:101A2000FF90EF900C941407AF92BF92CF92DF9289
:101A3000EF92FF920F931F93CF93DF93EC016B0113
:101A40007A01B22EA32E77FDA2C057FDA0C08885D3
:101A50009985681779070CF09AC08A859B85481785
:101A600059070CF094C043988F89811135C08D8936
:101A7000823059F08330B1F08130D1F48FEE90E0B4
:101A8000841B950B7B016C0113C08FEE90E09C01D1
:101A9000261B370B69018FE391E09C01241B350B5A
:101AA000790106C08FE391E0861B970B6A017C01E8
:101AB000A60160E270E0CE010E94D108A70161E2B8
:101AC00070E0CE010E94D1084B2D5A2D62E270E0E9
:101AD000CE010E94D1085AC0813011F5ED89E15044
:101AE000E33028F4F0E0EC5EFE4F408101C040E0BE
:101AF00066E1CE010E94B408960143E062E0CE01A7
:101B00000E940809970147E066E0CE010E9408099B
:101B100042988BB18F728BB985B1807D826216C07D
:101B20008250823098F50A851B850150110928855D
:101B3000398521503109CE010E94A60A4398429866
:101B40008BB18F728BB985B1807D8C6285B94198DC
:101B5000419A429A9BB18A2D807D9F72892B8BB9C5
:101B600095B18A2D8F72907D892B85B94198419AC4
:101B70009BB18B2D807D9F72892B8BB995B18B2D5D
:101B80008F72907D892B85B94198419A439ADF9154
:101B9000CF911F910F91FF90EF90DF90CF90BF906A
:101BA000AF900895EF92FF920F931F93CF93DF931F
:101BB000EC010E94FB1443988F89811122C0ED89AA
:101BC000E150E33040F4F0E0EE0FFF1FE25FFE4F24
:101BD0004081518102C040E350E163E070E0CE01FA
:101BE0000E94D1080A851B85015011092885398575
:101BF0002150310940E050E060E070E0CE010E94E9
:101C0000A60A8F89813089F4ED89E150E33028F408
:101C1000F0E0E55FFE4F408101C040E066E1CE01AB
:101C20000E94B408CE010E9441098F89823039F5A3
:101C30008D89813059F038F0823059F0833059F471
:101C400008E2E02E08C018E8E12E05C0B8EEEB2E41
:101C500002C0A8E4EA2E4E2D66E3CE010E94B4082D
:101C60000A851B85015011092885398521503109C4
:101C700040E050E060E070E0CE010E94A60A8F894B
:101C8000833031F58D89813059F038F0823059F048
:101C9000833051F4F0E6FF2E07C0E0ECFE2E04C0C6
:101CA00070EAF72E01C0F12C4F2D66E3CE010E94A1
:101CB000B4080A851B8501501109288539852150F2
:101CC000310940E050E060E070E0CE010E94A60AD9
:101CD000DF91CF911F910F91FF90EF9008950F9397
:101CE0001F93CF93DF93EC018B010E94F20668EC07
:101CF00070E080E090E00E941D16053283E918072D
:101D000021F00832E3E91E0719F51F8A439804ED14
:101D100010E0F80185919491F80132964591549123
:101D20008F3F910531F4BA0180E090E00E941D16CA
:101D300004C0BC01CE010E94D1080C5F1F4FF1E02E
:101D4000003A1F0731F76D89CE010E94D20D5AC0AB
:101D5000013483E9180709F061C082E08F8B439852
:101D600040E061E0CE010E94B40862E370E080E0F0
:101D700090E00E941D1640E068E2CE010E94B40887
:101D800043E260ECCE010E94B40840E161ECCE0178
:101D90000E94B4084BE25BE265EC70E0CE010E9469
:101DA000D10840EC67ECCE010E94B40848E866E335
:101DB000CE010E94B40845E56AE3CE010E94B40852
:101DC0004BE150E061EB70E0CE010E94D10847E0AA
:101DD00067EBCE010E94B40840E061E1CE010E94B1
:101DE000B40866E970E080E090E00E941D1640E0D3
:101DF00069E2CE010E94B40864EF71E080E090E0F7
:101E00000E941D160FE311E02FEE30E040E050E09D
:101E100060E070E0CE010E94A60A7BC00735E3E8CF
:101E20001E0709F04AC083E08F8B439880E0E82FBB
:101E3000F0E0E056FE4F9491C2E0C80F61E0680FF9
:101E4000E62FF0E0E056FE4F64919F3F31F470E0E2
:101E500080E090E00E941D162CC0439842983BB150
:101E6000292F207D3F72232B2BB925B19F72207D16
:101E7000922B95B94198419A429A860F8E5FEC2F2A
:101E8000E817A9F031E03E0FF0E0E056FE4FE49194
:101E90002BB19E2F907D2F72922B9BB995B1EF7233
:101EA000907DE92BE5B94198419AE32FE9CFC60F20
:101EB000439AC63470F58C2FBACF0537154739F5DC
:101EC00081E08F8B439806EE11E0F8018491319602
:101ED00044918F3F39F4642F70E080E090E00E94DD
:101EE0001D1604C0682FCE010E94B4080E5F1F4F5C
:101EF000F2E00C331F0749F76D89CE010E94D20D25
:101F0000CE01DF91CF911F910F910C9441098FEF7A
:101F10008F8BDF91CF911F910F9108952F923F9258
:101F20004F925F926F927F928F929F92AF92BF92E9
:101F3000CF92DF92EF92FF920F931F93CF93DF9395
:101F4000CDB7DEB72A970FB6F894DEBF0FBECDBF70
:101F50008C01FC01A581B0E0FD01E15AF84FC4906D
:101F6000FC018281682F70E0FB01E15AF84FE49098
:101F7000F801448150E0FA01E15AF84FA490F801C9
:101F8000238130E0F901E15AF84F6490FD01E55BEF
:101F9000F84F9490FB01E55BF84F8490FA01E55B04
:101FA000F84FB490F901E55BF84F2491288760E081
:101FB0000E94411560E0F80183810E944115F12CD7
:101FC000EE0CFF1CC7018D58984F7C01FC01A591B8
:101FD000B4918C91282D2095298782238C93712C84
:101FE000660C771CC3018D58984F3C01FC01A591EC
:101FF000B4918C919885909589238C9361E0F80138
:1020000085810E94411561E0F80184810E9441159B
:10201000D12CCC0CDD1CC6018D58984F6C01FC01F5
:10202000A591B4918C9189298C93EA2DF0E0EE0F63
:10203000FF1FED58F84FA591B4918C91B0948B216E
:102040008C93F80182810E948A161C01F80182811A
:102050000E948A162C01AA24AA9473E0B72EA81A0B
:10206000B90A60E0F80185810E94411560E0F8013D
:1020700084810E944115F601A591B4918C919094B0
:102080009A8689218C9361E0F80182810E94411532
:10209000F701A591B4918C9188298C9361E0F801A6
:1020A00083810E944115F80184810E948A164C01A7
:1020B000F80184810E948A168816990629F4F1E0B5
:1020C000FF832414350409F01F8288248A9423E0B6
:1020D000922E881A990A61E0F80185810E944115C3
:1020E000F601A591B4918C912A8582238C93F301FA
:1020F000A591B4918C912885822B8C93F701A591A1
:10210000B4918C91298582238C9360E0F8018281BF
:102110000E944115F80184810E948A167C01F80111
:1021200082810E948A16F801068117810115110526
:1021300009F441C0BC01882777FD8095982F0E9443
:10214000091B2B013C01B701882777FD8095982F4B
:102150000E94091B9B01AC01C301B2010E946E1ACF
:1021600020E030E040E85FE30E94091A6B017C0147
:10217000B501882777FD8095982F0E94091B9B0148
:10218000AC01C701B6010E94951B6B017C01B8012F
:1021900080E090E00E94071B9B01AC01C701B601E3
:1021A0000E94951B20E030E040E85AE30E94951B16
:1021B0000E94D61A05C0B701681B790B61507C4F8D
:1021C000FF81F11102C060E070E0BA82A9829C82B6
:1021D0008B827E836D832A2D3A81482D5C817E819E
:1021E00080E090E02A960FB6F894DEBF0FBECDBF18
:1021F000DF91CF911F910F91FF90EF90DF90CF90E3
:10220000BF90AF909F908F907F906F905F904F9016
:102210003F902F900895EF92FF920F93FC0142831D
:10222000248303836583F782E6828AE090E09183CA
:1022300080830F91FF90EF9008952F923F924F92DD
:102240005F926F927F928F929F92AF92BF92CF9246
:10225000DF92EF92FF920F931F93CF93DF9300D003
:1022600000D0CDB7DEB74C017C836B836A01590186
:10227000C8018701AC014C195D0957FF03C0519596
:102280004195510995016B817C81261B370B37FFE6
:1022900003C031952195310922242394312C241730
:1022A000350714F0212C312C2114310459F03A2D2A
:1022B0002B2D5C01832F922F3B812C81DC82CB82E2
:1022C000C32ED22EAB81BC81AA16BB065CF43C2D7A
:1022D0002D2D6C01832F922F3B812C81BC82AB82F0
:1022E000A32EB22E2501EB81FC814E1A5F0A3C0120
:1022F0006C187D0877FE03C07194619471087201B7
:1023000057FE03C0FFEFEF1AFF0AF594E794C816D3
:10231000D9062CF421E030E03A83298324C06FEF02
:102320007FEF7A8369831FC0D401ED91FC91048013
:10233000F581E02D980121143104D9F04B815C81A5
:10234000B601C4010995E618F708F7FE06C0E98151
:10235000FA81CE0EDF1EE40CF51C2B813C812F5F31
:102360003F4F3C832B836B817C81A616B706E4F636
:1023700004C0A6016B817C81E4CF0F900F900F9079
:102380000F90DF91CF911F910F91FF90EF90DF9011
:10239000CF90BF90AF909F908F907F906F905F9005
:1023A0004F903F902F9008956F927F928F929F92BF
:1023B000AF92BF92CF92DF92EF92FF920F931F9353
:1023C000CF93DF93EC015B016A0139014801E88199
:1023D000F9810284F385E02D87010995E881F9816F
:1023E000A601480D591D415051090284F385E02D85
:1023F0009301B501CE010995E881F9810084F18549
:10240000E02D9401A601B501CE010995E881F9817D
:10241000B501660D771D615071090084F185E02DCD
:102420009401A601CE010995DF91CF911F910F91E3
:10243000FF90EF90DF90CF90BF90AF909F908F90E4
:102440007F906F900895EF92FF920F931F93DC019E
:10245000ED91FC91240F351F215031090680F78141
:10246000E02D780189019B0109951F910F91FF9043
:10247000EF900895EF92FF920F931F93DC01ED917F
:10248000FC91260F371F215031090680F781E02D7E
:1024900078018A0109951F910F91FF90EF9008959F
:1024A0006F927F928F929F92AF92BF92CF92DF9264
:1024B000EF92FF920F931F93CF93DF935C014A013A
:1024C00069013801EB01C60ED71ECC15DD0574F489
:1024D000D501ED91FC910084F185E02D87019301F8
:1024E000A401BE01C50109952196EFCFDF91CF91DF
:1024F0001F910F91FF90EF90DF90CF90BF90AF9022
:102500009F908F907F906F900895EF92FF920F931E
:102510001F93DC01ED91FC9111971A960D911C917E
:102520001B9718962D913C9119970684F785E02DFD
:102530007B0140E050E060E070E009951F910F9151
:10254000FF90EF9008950895FC01138212828CE3AE
:1025500091E0918380837583648357834683718779
:10256000608753874287158A1586148617861686D4
:1025700021E0248B8FEF9FEF938B828B918B808B4D
:10258000268B08952F923F924F925F926F927F9287
:102590008F929F92AF92BF92CF92DF92EF92FF9273
:1025A0000F931F93CF93DF93CDB7DEB728970FB666
:1025B000F894DEBF0FBECDBF5C011B015A83498377
:1025C00038872F83FC82EB8288248394912C821A93
:1025D000930A3901719461947108660C771C270184
:1025E00023E0420E511CEE24E394F12C302F317085
:1025F0003D8302700E83C7010197EF81F8858E1726
:102600009F070CF07BC097FC0AC08F8198850197CB
:1026100098878F8392E0690E711C860C971CC2010B
:10262000AB81BC818A1B9B0B880E991EBD81BB238D
:1026300069F1D501ED91FC912F813885220F331F6F
:102640002F5F3F4F8B819C81280F391F0084F185BC
:10265000E02D860149815A81AF81B8854A1B5B0B09
:10266000B701620D731DC5010995D501ED91FC916E
:102670000084F185E02D920149815A814E195F094C
:102680006F817885620D731DC5010995BE81BB23DD
:1026900071F1D501ED91FC912F813885220F331F07
:1026A0002F5F3F4F8B819C81280F391F0084F1855C
:1026B000E02D860149815A81AF81B8854A1B5B0BA9
:1026C000B1016E197F09C5010995D501ED91FC9104
:1026D0000084F185E02D920149815A814E195F09EC
:1026E000B1018F819885681B790BC50109959FEF12
:1026F000E91AF90AA2E04A0E511C7DCF28960FB6BE
:10270000F894DEBF0FBECDBFDF91CF911F910F9127
:10271000FF90EF90DF90CF90BF90AF909F908F9001
:102720007F906F905F904F903F902F9008956F92A1
:102730007F928F929F92AF92BF92CF92DF92EF9251
:10274000FF920F931F93CF93DF93EC014B013A015C
:1027500059016801E881F981220F331F2F5F3F4F34
:10276000A3014A195B090084F185E02D0995E12C4C
:10277000F12C03E09501A301B401CE010E94C21225
:10278000DF91CF911F910F91FF90EF90DF90CF904D
:10279000BF90AF909F908F907F906F9008952F92F1
:1027A0003F924F925F926F927F928F929F92AF92E1
:1027B000BF92CF92DF92EF92FF920F931F93CF932E
:1027C000DF93CDB7DEB72C970FB6F894DEBF0FBE00
:1027D000CDBF9C878B873A0118870F83FA86E986DD
:1027E000CD82DC0118968D919C9119976817790715
:1027F0000CF094C01A968D919C911B97481759071D
:102800000CF08CC08C2C912CCB01B6E0CB9E800DB3
:10281000911D1124181619060CF080C0C40153E054
:10282000880F991F5A95E1F7860D971D18161906FE
:102830000CF074C0F5E02F9F200111245B016B01A7
:102840001C829201245C3D4F2901461A570A3C81A3
:10285000353031F0F201EA0DFB1D44914B8301C08C
:102860001B827A82698213011E828B8180FF13C0D2
:10287000AB85BC85ED91FC91BD81B13031F4048014
:10288000F581E02D2F81388519C00684F785E02D6C
:10289000EF80F8841EC0E985FA852F813885E2171C
:1028A000F307F9F0AB85BC85ED91FC91BD81B130AA
:1028B00059F40480F581E02D29853A85A101B501FF
:1028C0008B859C8509950DC00684F785E02DE984EC
:1028D000FA848401940149815A81B6018B859C85D3
:1028E0000995EB81E695EB83FE81FF5FFE832981ED
:1028F0003A81280D391D3A8329833FEF231A330A81
:10290000F83009F0B2CF4C814F5F4C83C80CD91C12
:102910008FEFA81AB80A463009F099CF2C960FB657
:10292000F894DEBF0FBECDBFDF91CF911F910F9105
:10293000FF90EF90DF90CF90BF90AF909F908F90DF
:102940007F906F905F904F903F902F900895CF921F
:10295000EF92FF920F931F93CF93DF93EC01262FFB
:102960006A3049F42C898E859F8538E0239F800D3D
:10297000911D112432C06D30A1F1EA88FB880889CD
:1029800019894E855F856C857D85CC880E94CF1323
:102990002C89422F50E08C859D8536E0239F800D49
:1029A000911D11249D878C872E892223D1F06AEFF7
:1029B00064039001659F300D112468857985260F89
:1029C000371F281739076CF463E0440F551F6A95C9
:1029D000E1F78E859F85840F951F9F878E871D86C3
:1029E0001C8681E090E0DF91CF911F910F91FF90C5
:1029F000EF90CF900895FC016370658B8481958181
:102A000026813781613039F0633029F091878087E2
:102A10003387228708953187208793878287089597
:102A2000FC01808591850895FC0182859385089538
:102A3000833081F028F4813099F08230A1F008953C
:102A40008730A9F08830B9F08430D1F480918000CB
:102A50008F7D03C0809180008F77809380000895E0
:102A600084B58F7702C084B58F7D84BD0895809131
:102A7000B0008F7703C08091B0008F7D8093B0004D
:102A80000895CF93DF9390E0FC01E55BF84F24912C
:102A9000FC01E15AF84F8491882349F190E0880FB6
:102AA000991FFC01E358F84FA591B4918D58984FA8
:102AB000FC01C591D4919FB7611108C0F8948C9125
:102AC000209582238C93888182230AC0623051F43E
:102AD000F8948C91322F309583238C938881822BAC
:102AE000888304C0F8948C91822B8C939FBFDF91D4
:102AF000CF9108950F931F93CF93DF931F92CDB77C
:102B0000DEB7282F30E0F901E95CF84F8491F90134
:102B1000E55BF84F1491F901E15AF84F0491002355
:102B2000C9F0882321F069830E9418156981E02F7C
:102B3000F0E0EE0FFF1FED58F84FA591B4919FB74D
:102B4000F8948C91611103C01095812301C0812BF1
:102B50008C939FBF0F90DF91CF911F910F9108959C
:102B60001F920F920FB60F9211242F933F938F93C2
:102B70009F93AF93BF938091850190918601A0911F
:102B80008701B09188013091840123E0230F2D3714
:102B900020F40196A11DB11D05C026E8230F029661
:102BA000A11DB11D2093840180938501909386011E
:102BB000A0938701B09388018091890190918A0147
:102BC000A0918B01B0918C010196A11DB11D809344
:102BD000890190938A01A0938B01B0938C01BF91DE
:102BE000AF919F918F913F912F910F900FBE0F90BA
:102BF0001F9018953FB7F8948091890190918A01B0
:102C0000A0918B01B0918C0126B5A89B05C02F3FE8
:102C100019F00196A11DB11D3FBF6627782F892F9E
:102C20009A2F620F711D811D911D42E0660F771F63
:102C3000881F991F4A95D1F70895CF92DF92EF929E
:102C4000FF92CF93DF936B017C010E94FA15EB0199
:102C5000C114D104E104F10489F00E94A7160E9476
:102C6000FA156C1B7D0B683E734090F381E0C81A27
:102C7000D108E108F108C851DC4FEACFDF91CF91CC
:102C8000FF90EF90DF90CF900895019739F0880F73
:102C9000991F880F991F02970197F1F7089578946B
:102CA00084B5826084BD84B5816084BD85B5826051
:102CB00085BD85B5816085BDEEE6F0E080818160EF
:102CC0008083E1E8F0E010828081826080838081EF
:102CD00081608083E0E8F0E0808181608083E1EBC7
:102CE000F0E0808184608083E0EBF0E080818160AF
:102CF0008083EAE7F0E08081846080838081826065
:102D0000808380818160808380818068808310924D
:102D1000C10008958E3008F08E5087702091040114
:102D200090E4299F90011124822B80937C00809154
:102D30007A00806480937A0080917A0086FDFCCFCF
:102D4000809178002091790090E0922B0895089569
:102D5000FC01818D228D90E0805C9F4F821B910948
:102D60008F7399270895FC01918D828D981731F00A
:102D7000828DE80FF11D858D90E008958FEF9FEF14
:102D80000895FC01918D828D981761F0828DDF018D
:102D9000A80FB11D5D968C91928D9F5F9F73928F4E
:102DA00090E008958FEF9FEF08958CEB99E1892BC8
:102DB00049F080E090E0892B29F00E94BC19811134
:102DC0000C9400000895FC01848DDF01A80FB11D53
:102DD000A35ABF4F2C91848D90E001968F73992751
:102DE000848FA689B7892C93A089B1898C9180643E
:102DF0008C93938D848D981306C00288F389E02DFF
:102E000080818F7D80830895CF93DF93EC01888D3F
:102E10008823C9F0EA89FB89808185FD05C0A889DE
:102E2000B9898C9186FD0FC00FB607FCF5CF808164
:102E300085FFF2CFA889B9898C9185FFEDCFCE01AE
:102E40000E94E316E7CFDF91CF910895CF92DF92F2
:102E5000FF920F931F93CF93DF931F92CDB7DEB7EF
:102E60006C01DC015B969C915B975C968C915C9706
:102E7000981307C05096ED91FC915197808185FD84
:102E800032C0F601038D10E00F5F1F4F0F73112743
:102E9000F02EF601848DF81211C00FB607FCF9CFA1
:102EA000D6015096ED91FC915197808185FFF1CF2D
:102EB000C60169830E94E3166981EBCF838DE80F19
:102EC000F11DE35AFF4F6083D6015B960C935B972D
:102ED0005296ED91FC91539780818062808381E0CE
:102EE00058968C930DC0D6015696ED91FC9157974C
:102EF00060835096ED91FC9151978081806480832E
:102F000081E090E00F90DF91CF911F910F91FF90A2
:102F1000DF90CF900895BF92CF92DF92EF92FF9211
:102F2000CF93DF93EC016A017B01B22EE889F98926
:102F300082E08083411581EE580761057105A1F09B
:102F400060E079E08DE390E0A70196010E94081C03
:102F500021503109410951095695479537952795D3
:102F6000211580E1380798F0E889F989108260E836
:102F700074E88EE190E0A70196010E94081C2150A0
:102F80003109410951095695479537952795EC85A3
:102F9000FD853083EE85FF852083188EEC89FD89C1
:102FA000B082EA89FB89808180618083EA89FB891C
:102FB000808188608083EA89FB8980818068808342
:102FC000EA89FB8980818F7D8083DF91CF91FF909B
:102FD000EF90DF90CF90BF9008954F925F926F92E5
:102FE0007F92AF92BF92CF92DF92EF92FF920F93B8
:102FF0001F93CF93DF93CDB7DEB729013A01621B50
:10300000730B840B950B29893A894B895C892A19A2
:103010003B094C095D09298B3A8B4B8B5C8B9B01DF
:10302000AC0169897A898B899C890E94F81BE41814
:10303000F50806091709A80197010E942A1C2A0D04
:103040003B1D4C1D5D1DCA01B901DF91CF911F9140
:103050000F91FF90EF90DF90CF90BF90AF907F9057
:103060006F905F904F9008950E94781C08950E9481
:103070004F160E9436180E940604C5EDD6E10E9444
:10308000CC042097E1F30E94D516F9CFCF92DF92BE
:10309000EF92FF920F931F93CF93DF936C017A010E
:1030A000EB01E60EF71E00E010E0CE15DF0561F043
:1030B0006991D601ED91FC910190F081E02DC6015E
:1030C0000995080F191FF1CFC801DF91CF911F910A
:1030D0000F91FF90EF90DF90CF90089561157105EB
:1030E00081F0DB010D900020E9F7AD01415051095D
:1030F000461B570BDC01ED91FC910280F381E02D22
:10310000099480E090E00895EF92FF920F931F934F
:10311000CF93DF938C01FB01C0E0D0E064917F018D
:103120008FEFE81AF80A662361F0D801ED91FC915F
:103130000190F081E02DC8010995C80FD91FF70152
:10314000EDCFCE01DF91CF911F910F91FF90EF90C6
:103150000895DC01ED91FC910190F081E02D09943E
:103160000F931F93CF93DF93EC016DE00E94A9189A
:103170008C016AE0CE010E94A918800F911FDF9197
:10318000CF911F910F9108950F931F93CF93DF93CA
:10319000EC010E9484188C01CE010E94B018800FAF
:1031A000911FDF91CF911F910F9108950F931F935E
:1031B000CF93DF93EC010E946E188C01CE010E9428
:1031C000B018800F911FDF91CF911F910F9108953B
:1031D0008F929F92AF92BF92CF92DF92EF92FF9227
:1031E0000F931F93CF93DF93CDB7DEB7A1970FB6A1
:1031F000F894DEBF0FBECDBF7C01C42EE52FCB01FE
:10320000D22E19A221E02D1510F02AE0D22E8E0127
:103210000F5D1F4F8D2C912CA12CB12C6C2D7E2F6E
:10322000A50194010E94081C8C2DD29E80191124A6
:10323000015011098A3014F4805D01C0895CF801E5
:103240008083211531054105510521F0C22EE32F60
:10325000CA01E4CFB801C7010E946E18A1960FB64B
:10326000F894DEBF0FBECDBFDF91CF911F910F91BC
:10327000FF90EF90DF90CF90BF90AF909F908F9096
:1032800008952115310541F4DC01ED91FC91019087
:10329000F081E02D642F09940C94E8180F931F938C
:1032A000CF93DF93EC019A01AB0160E070E00E94E4
:1032B00041198C01CE010E94B018800F911FDF913F
:1032C000CF911F910F9108951F920F920FB60F92F9
:1032D00011242F938F939F93EF93FF93E0919D0180
:1032E000F0919E018081E091A301F091A40182FD03
:1032F00012C090818091A6018F5F8F732091A701EA
:10330000821751F0E091A601F0E0E357FE4F958F50
:103310008093A60101C08081FF91EF919F918F91D1
:103320002F910F900FBE0F901F9018951F920F9224
:103330000FB60F9211242F933F934F935F936F9388
:103340007F938F939F93AF93BF93EF93FF938DE8FA
:1033500091E00E94E316FF91EF91BF91AF919F9191
:103360008F917F916F915F914F913F912F910F902E
:103370000FBE0F901F9018958DE891E00E94A8163F
:1033800021E0892B09F420E0822F0895109290010A
:1033900010928F0188EE93E0A0E0B0E0809391015D
:1033A00090939201A0939301B093940184E591E0EE
:1033B00090938E0180938D0185EC90E090939A011B
:1033C0008093990184EC90E090939C0180939B0101
:1033D00080EC90E090939E0180939D0181EC90E0C1
:1033E0009093A00180939F0182EC90E09093A201C2
:1033F0008093A10186EC90E09093A4018093A301B7
:103400001092A6011092A7011092A8011092A90192
:1034100008955058BB27AA270ED04DC13ED130F099
:1034200043D120F031F49F3F11F41EF433C10EF468
:10343000E095E7FB29C1E92F4FD180F3BA17620766
:1034400073078407950718F071F49EF567C10EF4B1
:10345000E0950B2EBA2FA02D0B01B90190010C01A4
:10346000CA01A0011124FF27591B99F0593F50F4BC
:10347000503E68F11A16F040A22F232F342F442714
:10348000585FF3CF469537952795A795F04053950C
:10349000C9F77EF41F16BA0B620B730B840BBAF0DC
:1034A0009150A1F0FF0FBB1F661F771F881FC2F747
:1034B0000EC0BA0F621F731F841F48F4879577955B
:1034C0006795B795F7959E3F08F0B3CF9395880F12
:1034D00008F09927EE0F9795879508950CD0EBC0CB
:1034E000E3D040F0DAD030F021F45F3F19F0CCC0E7
:1034F000511115C1CFC0F0D098F39923C9F35523CA
:10350000B1F3951B550BBB27AA27621773078407D6
:1035100038F09F5F5F4F220F331F441FAA1FA9F38C
:1035200033D00E2E3AF0E0E830D091505040E6957E
:10353000001CCAF729D0FE2F27D0660F771F881FDF
:10354000BB1F261737074807AB07B0E809F0BB0BCE
:10355000802DBF01FF2793585F4F2AF09E3F5105F2
:1035600068F092C0DCC05F3FECF3983EDCF38695D8
:1035700077956795B795F7959F5FC9F7880F911D68
:103580009695879597F90895E1E0660F771F881F54
:10359000BB1F621773078407BA0720F0621B730B07
:1035A000840BBA0BEE1F88F7E095089504D0689459
:1035B000B111B5C0089598D088F09F5790F0B92FF9
:1035C0009927B751A0F0D1F0660F771F881F991F78
:1035D0001AF0BA95C9F712C0B13081F09FD0B1E0AE
:1035E00008959CC0672F782F8827B85F39F0B93FBE
:1035F000CCF3869577956795B395D9F73EF490957A
:103600008095709561957F4F8F4F9F4F0895E894F7
:1036100009C097FB3EF490958095709561957F4F1A
:103620008F4F9F4F9923A9F0F92F96E9BB279395C8
:10363000F695879577956795B795F111F8CFFAF4D8
:10364000BB0F11F460FF1BC06F5F7F4F8F4F9F4F09
:1036500016C0882311F096E911C0772321F09EE867
:10366000872F762F05C0662371F096E8862F70E0CD
:1036700060E02AF09A95660F771F881FDAF7880FA7
:103680009695879597F9089597F99F6780E870E078
:1036900060E008959FEF80EC089500240A941616C8
:1036A000170618060906089500240A941216130630
:1036B000140605060895092E0394000C11F48823BE
:1036C00052F0BB0F40F4BF2B11F460FF04C06F5FDA
:1036D0007F4F8F4F9F4F089557FD9058440F551FB0
:1036E00059F05F3F71F04795880F97FB991F61F084
:1036F0009F3F79F087950895121613061406551FFB
:10370000F2CF4695F1DF08C0161617061806991F66
:10371000F1CF86957105610508940895E894BB275B
:1037200066277727CB0197F908950BD0C4CFB5DF73
:1037300028F0BADF18F0952309F0A6CFABCF1124FB
:10374000EECFCADFA0F3959FD1F3950F50E0551F40
:10375000629FF001729FBB27F00DB11D639FAA27E6
:10376000F00DB11DAA1F649F6627B00DA11D661F35
:10377000829F2227B00DA11D621F739FB00DA11D56
:10378000621F839FA00D611D221F749F3327A00D10
:10379000611D231F849F600D211D822F762F6A2FAC
:1037A00011249F5750408AF0E1F088234AF0EE0F31
:1037B000FF1FBB1F661F771F881F91505040A9F73E
:1037C0009E3F510570F060CFAACF5F3FECF3983E6B
:1037D000DCF3869577956795B795F795E7959F5FA5
:1037E000C1F7FE2B880F911D9695879597F908953F
:1037F000DB018F939F930E94671CBF91AF91A29FA3
:10380000800D911DA39F900DB29F900D11240895DE
:10381000A1E21A2EAA1BBB1BFD010DC0AA1FBB1FD4
:10382000EE1FFF1FA217B307E407F50720F0A21B46
:10383000B30BE40BF50B661F771F881F991F1A94B3
:1038400069F760957095809590959B01AC01BD01DD
:10385000CF010895052E97FB1EF400940E94411C91
:1038600057FD07D00E94081C07FC03D04EF40C94AF
:10387000411C50954095309521953F4F4F4F5F4FDC
:10388000089590958095709561957F4F8F4F9F4FCC
:1038900008950E94511C332312F48A1B9B0B0C9435
:1038A000621CA29FB001B39FC001A39F700D811D38
:1038B0001124911DB29F700D811D1124911D089539
:1038C0000E94511CB7FF0895821B930B08950E941C
:1038D000511CA59F900DB49F900DA49F800D911D2C
:1038E00011240895EE0FFF1F0590F491E02D099427
:0E38F00081E090E0F8940C947D1CF894FFCFDA
:1038FE00010000000165726173650060C0A02810B0
:10390E000010181060C0A000003F013F01EFEF0053
:10391E0000000000A7144618140D1D11D40B6D0BDA
:10392E00D4113B0CC70CA31200000000A7144618BC
:10393E0034181D1123123A12D41150128512A312EB
:10394E000000000026174618A816C116B316041755
:00000001FF
