:100000000C94DD010C9405020C9405020C9405027D
:100010000C9405020C9405020C9405020C94050244
:100020000C9405020C9405020C9405020C94050234
:100030000C9405020C9405020C9405020C94050224
:100040000C9491060C9405020C943A080C946C08DC
:100050000C9405020C9405020C9405020C94050204
:100060000C9405020C940502000000000000000042
:1000700000005F0000000000000007000700000013
:1000800000147F147F14000000242A7F2A1200002D
:100090000023130864620000003649552250000016
:1000A0000000050300000000001C224100000000C9
:1000B0000041221C0000000000082A1C2A08000041
:1000C0000008083E0808000000A0600000000000D2
:1000D0000008080808080000006060000000000038
:1000E0000020100804020000003E5149453E000077
:1000F0000000427F40000000006251494946000074
:100100000022414949360000001814127F100000F7
:100110000027454545390000003C4A494930000068
:100120000001710905030000003649494936000005
:1001300000064949291E0000000036360000000074
:100140000000AC6C00000000000814224100000018
:1001500000141414141400000041221408000000BC
:10016000000201510906000000324979413E0000B9
:10017000007E0909097E0000007F494949360000D8
:10018000003E414141220000007F4141221C00000D
:10019000007F494949410000007F09090901000029
:1001A000003E414151720000007F0808087F0000B6
:1001B0000000417F41000000002040413F0100005D
:1001C000007F081422410000007F404040400000B2
:1001D000007F020C027F0000007F0408107F0000F7
:1001E000003E4141413E0000007F09090906000030
:1001F000003E4151215E0000007F091929460000A0
:1002000000264949493200000001017F0101000038
:10021000003F4040403F0000001F2040201F0000E2
:10022000003F4038403F00000063140814630000A2
:1002300000030478040300000061514945430000B5
:10024000007F41410000000000020408102000006F
:100250000041417F00000000000402010204000090
:100260000080808080800000000102040000000007
:100270000020545454780000007F48444438000063
:10028000003844442800000000384444487F0000FF
:10029000003854545418000000087E090200000081
:1002A0000018A4A4A47C0000007F080404780000C7
:1002B00000007D00000000000080847D0000000040
:1002C000007F10284400000000417F400000000033
:1002D000007C041804780000007C08047C00000006
:1002E000003844443800000000FC242418000000BA
:1002F00000182424FC00000000007C08040000001A
:10030000004854542400000000047F440000000012
:10031000003C40407C000000001C2040201C0000ED
:10032000003C4030403C00000044281028440000BD
:10033000001CA0A07C000000004464544C44000059
:10034000000836410000000000007F0000000000AF
:100350000041360800000000000201010201000017
:100360000002050502000000000000080002010074
:100370000003040700000000000000000102040860
:1003800010204080010204081020010204081020FF
:10039000040404040404040402020202020203032B
:1003A0000303030300000000250028002B000000C9
:1003B0000000240027002A009C0811241FBECFEF54
:1003C000D8E0DEBFCDBF11E0A0E0B1E0E6EFF3E1A1
:1003D00002C005900D92AA35B107D9F722E0AAE52F
:1003E000B1E001C01D92A230B207E1F713E0CAEB01
:1003F000D3E004C02297FE010E94F509C83BD10753
:10040000C9F70E9463070C94F9090C940000EF925D
:10041000FF920F931F93579A5F9A8AE591E00E948B
:10042000DF03E12C88EFF82E01E010E020E030E05F
:1004300040E050E063E58AE591E00E9410059FE10D
:10044000E92EF12C02E010E02AE030E04AE050E032
:1004500065E48AE591E00E94100520EEE22E27E097
:10046000F22E03E010E028E230E044E150E065E4E1
:100470008AE591E00E94100530EEE32EFF24FA9405
:1004800004E010E020E530E04EE150E065E48AE56C
:1004900091E00E94100528E730E048E250E064E473
:1004A0008AE591E00E941005EE24EA9447E0F42EDC
:1004B00003E010E024EB30E040E050E060E071E069
:1004C0008AE591E00E949105EE24EA94FE2C04E076
:1004D00010E02CED30E04CE350E066E071E08AE59E
:1004E00091E00E9491051F910F91FF90EF90089568
:1004F00008958EBD00000DB407FEFDCF8EB50895A2
:10050000569A5E98559A5D980E947902559A5D9A1E
:100510000895569A5E9A559A5D980E947902559A66
:100520005D9A0895CF93C82F569A5E9A559A5D9812
:10053000892F0E9479028C2F0E947902559A5D9A28
:10054000CF910895CF92DF92EF92FF920F931F9376
:10055000CF93DF9300D000D000D0CDB7DEB71982A3
:1005600083E98A8381E48B838E010F5F1F4FCE0165
:1005700004967C0181E1D82ECC24C39489ED0E949D
:1005800080028D2D0E948902569A5E98559A5D9838
:1005900083ED0E947902569A5E9A80E00E94790269
:1005A000559A5D9AF70181937F01F80191918F012E
:1005B0008913C12CD394F4E1DF12E0CFC1101DC028
:1005C0006EE071E085E691E00E94B0077E0187E071
:1005D000E80EF11C8E010C5F1F4FF80161918F0135
:1005E00040E150E085E691E00E9433080E151F05BA
:1005F000A1F785E691E00E94B9078C2D26960FB6EB
:10060000F894DEBF0FBECDBFDF91CF911F910F9148
:10061000FF90EF90DF90CF9008950F931F93CF93AB
:10062000DF938B01EA018AE20E948002C8010E94E6
:100630009202CE01DF91CF911F910F910C94920203
:100640000F931F93CF93DF938B01EA018BE20E94FC
:100650008002C8010E949202CE01DF91CF911F91CA
:100660000F910C9492026F927F928F929F92AF9211
:10067000BF92CF92DF92EF92FF920F931F93CF938F
:10068000DF937E2C6F2C4617570730F464277527AD
:1006900046275727642775270217130730F42027AA
:1006A00031270227132720273127FB01603F7105DF
:1006B00010F0EFEEF0E0403F510510F04FEE50E04B
:1006C000E901203481E0380710F0CFE3D1E00034B5
:1006D00081E0180710F00FE311E0DA011196AE1B6C
:1006E000BF0B98012F5F3F4F2C1B3D0B0E94E4096D
:1006F0004B015C01BF018AE591E00E940D03A80156
:10070000BE018AE591E00E9420038CE20E948002F3
:10071000569A5E9A559A5D98C12CD12C7601C814D0
:10072000D904EA04FB0461F0862D0E947902872D2A
:100730000E9479028FEFC81AD80AE80AF80AEFCFA8
:10074000559A5D9ADF91CF911F910F91FF90EF9095
:10075000DF90CF90BF90AF909F908F907F906F90E1
:100760000895CF93DF934FEE50E060E070E08AE5AC
:1007700091E00E940D034FE351E060E070E08AE5F4
:1007800091E00E9420038CE20E948002569A5E9AB9
:10079000559A5D98C0E0D6E980E00E94790280E039
:1007A0000E94790280E00E94790280E00E94790232
:1007B000219791F7559A5D9ADF91CF910895CF9344
:1007C000DF93EC010E94D405559A5D9A569A5E9A81
:1007D000CE010E94A202CE010E94A202CE010E947E
:1007E000A20264EF71E080E090E00E94FE0681E0EA
:1007F0000E94800268EC70E080E090E00E94FE06BB
:100800008FEC0E94800280E00E9489028BE80E94A7
:10081000890280E30E9489028DEE0E94800287E6B1
:100820000E94890283E00E94890282E10E9489027B
:1008300081E80E94890288EE0E94800285E80E9479
:10084000890280E10E9489028AE70E9489028BEC7A
:100850000E94800289E30E9489028CE20E94890240
:1008600080E00E94890284E30E94890282E00E9463
:10087000890287EF0E94800280E20E9489028AEE4C
:100880000E94800280E00E94890280E00E9489022A
:1008900080EC0E9480028BE10E94890281EC0E9420
:1008A000800280E10E94890285EC0E9480028FE331
:1008B0000E9489028CE30E94890287EC0E948002D8
:1008C00087EB0E94890286E30E94800288E00E94F2
:1008D00089028AE30E94800285E50E94890281EBF9
:1008E0000E94800280E00E9489028BE10E948902BE
:1008F00086EB0E9480028AE00E94890282EA0E94BE
:10090000890282EF0E94800280E00E94890286E2D2
:100910000E94800281E00E94890280EE0E94800293
:100920008FE00E9489028AE20E94890288E20E9486
:10093000890288E00E9489028EE00E94890288E094
:100940000E94890284E50E94890289EA0E94890244
:1009500083E40E9489028AE00E9489028FE00E945B
:10096000890280E00E94890280E00E94890280E082
:100970000E94890280E00E94890281EE0E9480022A
:1009800080E00E94890285E10E94890287E10E943D
:10099000890287E00E94890281E10E94890286E043
:1009A0000E9489028BE20E94890286E50E948902E8
:1009B0008CE30E94890285E00E94890280E10E9406
:1009C00089028FE00E9489028FE30E9489028FE3EF
:1009D0000E9489028FE00E94890281E10E948002C8
:1009E00068E770E080E090E00E94FE0689E20E94E5
:1009F0008002CE01DF91CF910C94B103EF92FF9270
:100A00000F931F93FA01A9010E0F1F1F460F571FC7
:100A10009F010E9433031F910F91FF90EF90089563
:100A20002F923F924F925F926F927F928F929F92FE
:100A3000AF92BF92CF92DF92EF92FF920F931F93EC
:100A4000CF93DF93CDB7DEB728970FB6F894DEBF0C
:100A50000FBECDBF9A838983322E232E5801FC828C
:100A6000EB8280EE860F803608F06FE388E0689FA7
:100A7000300111242A01C12CD12CD301A859B04036
:100A80003D01F301EC0DFD1DE4913F822886812C90
:100A9000912C8E2F90E09E838D838D819E81082CDA
:100AA00002C0959587950A94E2F780FF0BC0EB8012
:100AB000FC80850195014F815885B20189819A8119
:100AC0000E94FE049FEF891A990AAF81B885AA0D8A
:100AD000BB1DB887AF83B8E08B169104F1F6EFEF3A
:100AE000CE1ADE0A4A0C5B1CF8E0CF16D10449F698
:100AF00028960FB6F894DEBF0FBECDBFDF91CF9121
:100B00001F910F91FF90EF90DF90CF90BF90AF902B
:100B10009F908F907F906F905F904F903F902F901D
:100B200008952F923F924F925F926F927F928F9291
:100B30009F92AF92BF92CF92DF92EF92FF920F936C
:100B40001F93CF93DF935C01EA01490168013701EC
:100B500086E0809F1001819F300C11242B01F2014F
:100B600061912F01662369F0730186019401AE0142
:100B7000C5010E941005CF3ED10588F7C20DD31DD7
:100B8000EECFDF91CF911F910F91FF90EF90DF900B
:100B9000CF90BF90AF909F908F907F906F905F901D
:100BA0004F903F902F900895CF93CFB7F8948091B6
:100BB0005B01811116C061E08AE00E945B0661E082
:100BC0008AE00E9422068CB580618CBD8CB5806461
:100BD0008CBD61E08DE00E94220661E08BE00E9406
:100BE000220680915B018F5F80935B01CFBFCF9125
:100BF0000895833081F028F4813099F08230A1F09B
:100C000008958730A9F08830B9F08430D1F480910C
:100C100080008F7D03C0809180008F77809380005B
:100C2000089584B58F7702C084B58F7D84BD089503
:100C30008091B0008F7703C08091B0008F7D80934A
:100C4000B0000895CF93DF9390E0FC01E458FC4F8F
:100C50002491FC01E057FC4F8491882349F190E0F6
:100C6000880F991FFC01E255FC4FA591B4918C555A
:100C70009C4FFC01C591D4919FB7611108C0F894B5
:100C80008C91209582238C93888182230AC06230C4
:100C900051F4F8948C91322F309583238C93888172
:100CA000822B888304C0F8948C91822B8C939FBFF5
:100CB000DF91CF9108950F931F93CF93DF931F92EE
:100CC000CDB7DEB7282F30E0F901E859FC4F849109
:100CD000F901E458FC4F1491F901E057FC4F0491DD
:100CE0000023C9F0882321F069830E94F9056981F6
:100CF000E02FF0E0EE0FFF1FEC55FC4FA591B491F3
:100D00009FB7F8948C91611103C01095812301C0A5
:100D1000812B8C939FBF0F90DF91CF911F910F91EB
:100D200008951F920F920FB60F9211242F933F93A5
:100D30008F939F93AF93BF9380915D0190915E01DC
:100D4000A0915F01B091600130915C0123E0230F1D
:100D50002D3720F40196A11DB11D05C026E8230FF3
:100D60000296A11DB11D20935C0180935D019093BB
:100D70005E01A0935F01B093600180916101909149
:100D80006201A0916301B09164010196A11DB11DA2
:100D90008093610190936201A0936301B093640119
:100DA000BF91AF919F918F913F912F910F900FBE67
:100DB0000F901F9018953FB7F89480916101909122
:100DC0006201A0916301B091640126B5A89B05C0A2
:100DD0002F3F19F00196A11DB11D3FBF6627782F47
:100DE000892F9A2F620F711D811D911D42E0660FA0
:100DF000771F881F991F4A95D1F70895CF92DF92E8
:100E0000EF92FF92CF93DF936B017C010E94DB0690
:100E1000EB01C114D104E104F10489F00E946107DF
:100E20000E94DB066C1B7D0B683E734090F381E0F3
:100E3000C81AD108E108F108C851DC4FEACFDF91A8
:100E4000CF91FF90EF90DF90CF900895789484B584
:100E5000826084BD84B5816084BD85B5826085BDB6
:100E600085B5816085BDEEE6F0E08081816080839C
:100E7000E1E8F0E01082808182608083808181607F
:100E80008083E0E8F0E0808181608083E1EBF0E046
:100E9000808184608083E0EBF0E0808181608083EA
:100EA000EAE7F0E0808184608083808182608083D3
:100EB0008081816080838081806880831092C100FE
:100EC0000895089508950E9426070E9462070E94CF
:100ED0000702CCE0D9E00E9478022097E1F30E945B
:100EE0000C09F9CFCF92DF92EF92FF920F931F93ED
:100EF000CF93DF936C017A01EB01E60EF71E00E061
:100F000010E0CE15DF0561F06991D601ED91FC91FD
:100F10000190F081E02DC6010995080F191FF1CF4E
:100F2000C801DF91CF911F910F91FF90EF90DF905B
:100F3000CF9008956115710581F0DB010D900020BF
:100F4000E9F7AD0141505109461B570BDC01ED910A
:100F5000FC910280F381E02D099480E090E00895F7
:100F60000C949A07DC01ED91FC910190F081E02D49
:100F700009940F931F93CF93DF93EC016DE00E94D0
:100F8000B2078C016AE0CE010E94B207800F911F68
:100F9000DF91CF911F910F9108958F929F92AF9201
:100FA000BF92CF92DF92EF92FF920F931F93CF9356
:100FB000DF93CDB7DEB7A1970FB6F894DEBF0FBEB3
:100FC000CDBF7C01C42EE52FCB01D22E19A221E08A
:100FD0002D1510F02AE0D22E8E010F5D1F4F8D2CA3
:100FE000912CA12CB12C6C2D7E2FA50194010E9477
:100FF000C2098C2DD29E80191124015011098A300A
:1010000014F4805D01C0895CF801808321153105ED
:101010004105510521F0C22EE32FCA01E4CFB801EA
:10102000C7010E949A07A1960FB6F894DEBF0FBEC3
:10103000CDBFDF91CF911F910F91FF90EF90DF9087
:10104000CF90BF90AF909F908F900895211531055C
:1010500041F4DC01ED91FC910190F081E02D642FD1
:1010600009940C94CD079A01462F50E060E070E09F
:101070000C9426081F920F920FB60F9211242F93F3
:101080008F939F93EF93FF93E0917501F091760119
:101090008081E0917B01F0917C0182FD12C0908102
:1010A00080917E018F5F8F7320917F01821751F0B5
:1010B000E0917E01F0E0EB59FE4F958F80937E0129
:1010C00001C08081FF91EF919F918F912F910F909F
:1010D0000FBE0F901F9018951F920F920FB60F9290
:1010E00011242F933F934F935F936F937F938F932D
:1010F0009F93AF93BF93EF93FF9385E691E00E9498
:101100001A09FF91EF91BF91AF919F918F917F91BC
:101110006F915F914F913F912F910F900FBE0F9064
:101120001F90189585E691E00E94DF0821E0892B49
:1011300009F420E0822F089510926801109267014F
:1011400088EE93E0A0E0B0E08093690190936A019B
:10115000A0936B01B0936C018DE491E090936601D4
:101160008093650185EC90E090937201809371010A
:1011700084EC90E0909374018093730180EC90E094
:10118000909376018093750181EC90E090937801C3
:101190008093770182EC90E090937A0180937901BB
:1011A00086EC90E090937C0180937B0110927E010D
:1011B00010927F0110928001109281010895FC012C
:1011C000818D228D90E0805C9F4F821B91098F73EF
:1011D00099270895FC01918D828D981731F0828DA9
:1011E000E80FF11D858D90E008958FEF9FEF089532
:1011F000FC01918D828D981761F0828DDF01A80F1F
:10120000B11D5D968C91928D9F5F9F73928F90E040
:1012100008958FEF9FEF089582E998E0892B49F0B8
:1012200080E090E0892B29F00E94920881110C94B3
:1012300000000895FC01848DDF01A80FB11DA35AA1
:10124000BF4F2C91848D90E001968F739927848FE6
:10125000A689B7892C93A089B1898C9180648C93DD
:10126000938D848D981306C00288F389E02D8081C8
:101270008F7D80830895CF93DF93EC01888D882341
:10128000C9F0EA89FB89808185FD05C0A889B989F3
:101290008C9186FD0FC00FB607FCF5CF808185FFCE
:1012A000F2CFA889B9898C9185FFEDCFCE010E943C
:1012B0001A09E7CFDF91CF910895CF92DF92FF9285
:1012C0000F931F93CF93DF931F92CDB7DEB76C01BF
:1012D000DC015B969C915B975C968C915C97981374
:1012E00007C05096ED91FC915197808185FD32C0E9
:1012F000F601038D10E00F5F1F4F0F731127F02EC3
:10130000F601848DF81211C00FB607FCF9CFD60193
:101310005096ED91FC915197808185FFF1CFC601E8
:1013200069830E941A096981EBCF838DE80FF11D53
:10133000E35AFF4F6083D6015B960C935B975296FE
:10134000ED91FC91539780818062808381E0589673
:101350008C930DC0D6015696ED91FC915797608302
:101360005096ED91FC91519780818064808381E05B
:1013700090E00F90DF91CF911F910F91FF90DF9040
:10138000CF900895A1E21A2EAA1BBB1BFD010DC030
:10139000AA1FBB1FEE1FFF1FA217B307E407F50725
:1013A00020F0A21BB30BE40BF50B661F771F881F01
:1013B000991F1A9469F760957095809590959B0197
:1013C000AC01BD01CF010895A29FB001B39FC00140
:1013D000A39F700D811D1124911DB29F700D811D61
:1013E0001124911D0895EE0FFF1F0590F491E02D3B
:0613F0000994F894FFCF00
:1013F60048656C6C6F00576F726C642121005265F2
:10140600616420544654204944206661696C6564D1
:101416002C2049442073686F756C64206265203007
:101426007830393334312C206275742072656164EA
:10143600204944203D20307800000000005D0972FC
:0A14460007DF08F808EA083B090078
:00000001FF
