:100000000C94DD010C9405020C9405020C9405027D
:100010000C9405020C9405020C9405020C94050244
:100020000C9405020C9405020C9405020C94050234
:100030000C9405020C9405020C9405020C94050224
:100040000C94330A0C9405020C94DC0B0C940E0CEB
:100050000C9405020C9405020C9405020C94050204
:100060000C9405020C940502000000000000000042
:1000700000005F0000000000000007000700000013
:1000800000147F147F14000000242A7F2A1200002D
:100090000023130864620000003649552250000016
:1000A0000000050300000000001C224100000000C9
:1000B0000041221C0000000000082A1C2A08000041
:1000C0000008083E0808000000A0600000000000D2
:1000D0000008080808080000006060000000000038
:1000E0000020100804020000003E5149453E000077
:1000F0000000427F40000000006251494946000074
:100100000022414949360000001814127F100000F7
:100110000027454545390000003C4A494930000068
:100120000001710905030000003649494936000005
:1001300000064949291E0000000036360000000074
:100140000000AC6C00000000000814224100000018
:1001500000141414141400000041221408000000BC
:10016000000201510906000000324979413E0000B9
:10017000007E0909097E0000007F494949360000D8
:10018000003E414141220000007F4141221C00000D
:10019000007F494949410000007F09090901000029
:1001A000003E414151720000007F0808087F0000B6
:1001B0000000417F41000000002040413F0100005D
:1001C000007F081422410000007F404040400000B2
:1001D000007F020C027F0000007F0408107F0000F7
:1001E000003E4141413E0000007F09090906000030
:1001F000003E4151215E0000007F091929460000A0
:1002000000264949493200000001017F0101000038
:10021000003F4040403F0000001F2040201F0000E2
:10022000003F4038403F00000063140814630000A2
:1002300000030478040300000061514945430000B5
:10024000007F41410000000000020408102000006F
:100250000041417F00000000000402010204000090
:100260000080808080800000000102040000000007
:100270000020545454780000007F48444438000063
:10028000003844442800000000384444487F0000FF
:10029000003854545418000000087E090200000081
:1002A0000018A4A4A47C0000007F080404780000C7
:1002B00000007D00000000000080847D0000000040
:1002C000007F10284400000000417F400000000033
:1002D000007C041804780000007C08047C00000006
:1002E000003844443800000000FC242418000000BA
:1002F00000182424FC00000000007C08040000001A
:10030000004854542400000000047F440000000012
:10031000003C40407C000000001C2040201C0000ED
:10032000003C4030403C00000044281028440000BD
:10033000001CA0A07C000000004464544C44000059
:10034000000836410000000000007F0000000000AF
:100350000041360800000000000201010201000017
:100360000002050502000000000000080002010074
:100370000003040700000000000000000102040860
:1003800010204080010204081020010204081020FF
:10039000040404040404040402020202020203032B
:1003A0000303030300000000250028002B000000C9
:1003B0000000240027002A003E0C11241FBECFEFAE
:1003C000D8E0DEBFCDBF11E0A0E0B1E0ECE9FFE195
:1003D00002C005900D92AC34B107D9F721E0ACE42E
:1003E000B1E001C01D92A43FB207E1F713E0CAEBF0
:1003F000D3E004C02297FE010E94C80FC83BD1077A
:10040000C9F70E94050B0C94CC0F0C940000AF921E
:10041000BF92CF92DF92EF92FF920F931F93579A62
:100420005F9A8CE491E00E943D04EE24EA94FE2C55
:1004300008E010E028E130E040E050E060E070E0EB
:100440008CE491E00E944506C12C98EFD92EEE2451
:10045000E394F12C00E010E020E030E040E054E0D4
:1004600060E070E08CE491E00E948006EE24EA9463
:10047000FE2C00E110E020E330E044E150E060E0D9
:1004800070E08CE491E00E9445064FE1C42ED12C2F
:1004900052E0E52EF12C04E110E020E030E040E0F5
:1004A00054E060E070E08CE491E00E948006EE246D
:1004B000EA94FE2C08E110E028E430E042E350E04A
:1004C00060E070E08CE491E00E94450670EEC72E7B
:1004D00077E0D72EE3E0EE2EF12C02E310E020E0EF
:1004E00030E040E054E060E070E08CE491E00E9495
:1004F0008006EE24EA94FE2C00E210E020E630E0D4
:100500004AE550E060E070E08CE491E00E9445062E
:10051000AFE1CA2ED12CB4E0EB2EF12C0AE510E0AD
:1005200020E030E040E054E060E070E08CE491E0F6
:100530000E94800610EEC12EDD24DA9406E910E058
:1005400020E030E049E154E06EE97FE38CE491E0A3
:100550000E9469080FE1A02EB12C84E0C82ED12C96
:1005600098ECE92EF12C00E010E022E049E154E0A3
:100570006EE97FE38CE491E00E944407A12C28EF10
:10058000B22E3AEFE32EF12C24E049E154E06EE97B
:100590007FE38CE491E00E9444071F910F91FF904C
:1005A000EF90DF90CF90BF90AF90089508958EBDEB
:1005B00000000DB407FEFDCF8EB50895569A5E98E3
:1005C000559A5D980E94D702559A5D9A0895569A59
:1005D0005E9A559A5D980E94D702559A5D9A089541
:1005E000CF93C82F569A5E9A559A5D98892F0E948C
:1005F000D7028C2F0E94D702559A5D9ACF91089509
:10060000CF92DF92EF92FF920F931F93CF93DF93DE
:1006100000D000D000D0CDB7DEB7198283E98A833D
:1006200081E48B838E010F5F1F4FCE0104967C0106
:1006300081E1D82ECC24C39489ED0E94DE028D2D59
:100640000E94E702569A5E98559A5D9883ED0E9443
:10065000D702569A5E9A80E00E94D702559A5D9A18
:10066000F70181937F01F80191918F018913C12CCA
:10067000D394F4E1DF12E0CFC1101DC060E071E05F
:1006800087E591E00E94520B7E0187E0E80EF11CA5
:100690008E010C5F1F4FF80161918F0140E150E026
:1006A00087E591E00E94D50B0E151F05A1F787E5A0
:1006B00091E00E945B0B8C2D26960FB6F894DEBF5E
:1006C0000FBECDBFDF91CF911F910F91FF90EF90A3
:1006D000DF90CF9008950F931F93CF93DF938B01FB
:1006E000EA018AE20E94DE02C8010E94F002CE0105
:1006F000DF91CF911F910F910C94F0020F931F93F4
:10070000CF93DF938B01EA018BE20E94DE02C801E6
:100710000E94F002CE01DF91CF911F910F910C94B6
:10072000F0026F927F928F929F92AF92BF92CF9280
:10073000DF92EF92FF920F931F93CF93DF937E2C64
:100740006F2C4617570730F464277527462757271D
:10075000642775270217130730F420273127022753
:10076000132720273127FB01603F710510F0EFEEC2
:10077000F0E0403F510510F04FEE50E0E901203429
:1007800081E0380710F0CFE3D1E0003481E01807B2
:1007900010F00FE311E0DA011196AE1BBF0B9801C8
:1007A0002F5F3F4F2C1B3D0B0E94B70F4B015C018D
:1007B000BF018CE491E00E946B03A801BE018CE4B0
:1007C00091E00E947E038CE20E94DE02569A5E9ABD
:1007D000559A5D98C12CD12C7601C814D904EA042D
:1007E000FB0461F0862D0E94D702872D0E94D7025C
:1007F0008FEFC81AD80AE80AF80AEFCF559A5D9A1F
:10080000DF91CF911F910F91FF90EF90DF90CF90EC
:10081000BF90AF909F908F907F906F900895CF93EF
:10082000DF934FEE50E060E070E08CE491E00E94D6
:100830006B034FE351E060E070E08CE491E00E94D4
:100840007E038CE20E94DE02569A5E9A559A5D986B
:10085000C0E0D6E980E00E94D70280E00E94D70283
:1008600080E00E94D70280E00E94D702219791F792
:10087000559A5D9ADF91CF910895CF93DF93EC0164
:100880000E947609559A5D9A569A5E9ACE010E9408
:100890000003CE010E940003CE010E94000364EF1A
:1008A00071E080E090E00E94A00A81E00E94DE02F8
:1008B00068EC70E080E090E00E94A00A8FEC0E945B
:1008C000DE0280E00E94E7028BE80E94E70280E3FC
:1008D0000E94E7028DEE0E94DE0287E60E94E70298
:1008E00083E00E94E70282E10E94E70281E80E9421
:1008F000E70288EE0E94DE0285E80E94E70280E1BE
:100900000E94E7028AE70E94E7028BEC0E94DE0267
:1009100089E30E94E7028CE20E94E70280E00E94E5
:10092000E70284E30E94E70282E00E94E70287EF89
:100930000E94DE0280E20E94E7028AEE0E94DE024E
:1009400080E00E94E70280E00E94E70280EC0E94C3
:10095000DE028BE10E94E70281EC0E94DE0280E170
:100960000E94E70285EC0E94DE028FE30E94E7020C
:100970008CE30E94E70287EC0E94DE0287EB0E9474
:10098000E70286E30E94DE0288E00E94E7028AE333
:100990000E94DE0285E50E94E70281EB0E94DE02F2
:1009A00080E00E94E7028BE10E94E70286EB0E9452
:1009B000DE028AE00E94E70282EA0E94E70282EFFA
:1009C0000E94DE0280E00E94E70286E20E94DE02D0
:1009D00081E00E94E70280EE0E94DE028FE00E942A
:1009E000E7028AE20E94E70288E20E94E70288E0CA
:1009F0000E94E7028EE00E94E70288E00E94E70280
:100A000084E50E94E70289EA0E94E70283E40E94EB
:100A1000E7028AE00E94E7028FE00E94E70280E09E
:100A20000E94E70280E00E94E70280E00E94E70265
:100A300080E00E94E70281EE0E94DE0280E00E94D8
:100A4000E70285E10E94E70287E10E94E70287E072
:100A50000E94E70281E10E94E70286E00E94E7022D
:100A60008BE20E94E70286E50E94E7028CE30E9487
:100A7000E70285E00E94E70280E10E94E7028FE042
:100A80000E94E7028FE30E94E7028FE30E94E702E1
:100A90008FE00E94E70281E10E94DE0268E770E0D9
:100AA00080E090E00E94A00A89E20E94DE02CE016E
:100AB000DF91CF910C940F04EF92FF920F931F934D
:100AC000FA01A9010E0F1F1F460F571F9F010E9419
:100AD00091031F910F91FF90EF9008952F923F92F5
:100AE0004F925F926F927F928F929F92AF92BF923E
:100AF000CF92DF92EF92FF920F931F93CF93DF93EA
:100B0000CDB7DEB728970FB6F894DEBF0FBECDBFC6
:100B10009A838983322E232E5801FC82EB8280EE49
:100B2000860F803608F06FE388E0689F300111245B
:100B30002A01C12CD12CD301A859B0403D01F301A9
:100B4000EC0DFD1DE4913F822886812C912C8E2F87
:100B500090E09E838D838D819E81082C02C09595A7
:100B600087950A94E2F780FF0BC0EB80FC8085013B
:100B700095014F815885B20189819A810E945C0557
:100B80009FEF891A990AAF81B885AA0DBB1DB88756
:100B9000AF83B8E08B169104F1F6EFEFCE1ADE0AC0
:100BA0004A0C5B1CF8E0CF16D10449F628960FB624
:100BB000F894DEBF0FBECDBFDF91CF911F910F9193
:100BC000FF90EF90DF90CF90BF90AF909F908F906D
:100BD0007F906F905F904F903F902F900895CF92AD
:100BE000DF92EF92FF920F931F93CF93DF93EC016D
:100BF0007A016901AB01420F531F0E946B03A701E9
:100C0000B701CE010E947E038CE20E94DE02C0E0AA
:100C1000D0E0CC15DD0529F0C8010E94F002219634
:100C2000F8CFDF91CF911F910F91FF90EF90DF9060
:100C3000CF900895CF92DF92EF92FF920F931F9380
:100C4000CF93DF93EC016A017901AB010E946B0342
:100C5000A6014E0D5F1DB601CE010E947E038CE2FF
:100C60000E94DE02C0E0D0E0CE15DF0529F0C80109
:100C70000E94F0022196F8CFDF91CF911F910F9142
:100C8000FF90EF90DF90CF9008956F927F928F92B8
:100C90009F92AF92BF92CF92DF92EF92FF920F930B
:100CA0001F93CF93DF93EC015B016A014901380187
:100CB00087010E94EF05A601460D571D9401B5015D
:100CC000CE010E94EF059301A601B501CE010E945D
:100CD0001A06B501680D791D9301A601CE010E9487
:100CE0001A06DF91CF911F910F91FF90EF90DF9047
:100CF000CF90BF90AF909F908F907F906F9008950E
:100D00002F923F924F925F926F927F928F929F921B
:100D1000AF92BF92CF92DF92EF92FF920F931F9309
:100D2000CF93DF93CDB7DEB761970FB6F894DEBFF0
:100D30000FBECDBF3C011A012B0159011E870D8743
:100D4000470119821A821B821C8276E0FE013596C9
:100D5000DF01272F1D922A95E9F757FE23C0760160
:100D600084012D853E85A5016DE2798B0E946E057B
:100D70005094409430942094211C311C411C511CEF
:100D800079893FEEA316B10450F4789DC001799D96
:100D9000900D1124A80EB91E81E08C8709C091E046
:100DA0009C8706C0211431044104510441F01C8683
:100DB00080E01AE0E12EF12C00E010E00AC076019C
:100DC00084012D853E85A50160E30E946E0581E0CA
:100DD00042C0A1E0A80FAB87E1E0F0E0EC0FFD1FFF
:100DE000E80FF11DF88BEF87C201B101A80197014F
:100DF0000E94980FAF85B8896C9319012A012114BC
:100E000031044104510411F08B85E3CF3B84BC8550
:100E10003B0E86E0889D2001899D500C11249B8506
:100E20009923C1F0FE012B85E20FF11D6081605D09
:100E3000760184012D853E85A501C3010E946E05C2
:100E40003FEEA316B10410F4A40CB51C8B858150A1
:100E50008B87E5CF832D61960FB6F894DEBF0FBE6A
:100E6000CDBFDF91CF911F910F91FF90EF90DF9059
:100E7000CF90BF90AF909F908F907F906F905F903A
:100E80004F903F902F9008952F923F924F925F92F4
:100E90006F927F928F929F92AF92BF92CF92DF928A
:100EA000EF92FF920F931F93CF93DF93CDB7DEB7EF
:100EB0002D970FB6F894DEBF0FBECDBF9C838B83FA
:100EC0002A013B0129871D870C87FE82ED821601CE
:100ED000B886AF8220E030E0A901C301B2010E94D0
:100EE000C90D87FF23C0750186012D813E814C8588
:100EF0005D856DE28B819C810E946E0577FA70940E
:100F000077F870942C853D852F3E310588F426E0D6
:100F10002C9DC0012D9D900D11244C855D85480FA1
:100F2000591F5D874C8751E0598304C0198202C064
:100F300081E08983B12C60E070E080E09FE3E98587
:100F4000BE1641F020E030E040E251E40E94CD0DB9
:100F5000B394F5CF9B01AC01C301B2010E94650DB2
:100F60004B015C010E94350E2B01612C712CCF804E
:100F7000D88471010D811E812C853D85B301A201AC
:100F80008B819C810E948006F981F80FF983829DF4
:100F90009001839D300D1124C90113E0880F991F22
:100FA0001A95E1F74C855D85840F951F8F3E91055D
:100FB00038F4220F331FFC01E21BF30BFD87EC8793
:100FC000F985FF2301F1EF80F88481012D813E81B5
:100FD0004C855D856EE28B819C810E946E052C851F
:100FE0003D852F3E310560F426E0229DC001239D02
:100FF000900D11244C855D85480F591F5D874C87E6
:1010000059815F5F5983C301B2010E94610E9B0148
:10101000AC01C501B4010E94640D26E0229DF001DF
:10102000239DF00D1124FB87EA871A82EA81F98556
:10103000EF1799F120E030E040E251E40E94130FF5
:101040004B015C010E94350E2B01612C712CCF806D
:10105000D88471010D811E812C853D85B301A201CB
:101060008B819C810E9480062C853D852F3E310519
:1010700030F44A855B85240F351F3D872C87C301DB
:10108000B2010E94610E9B01AC01C501B4010E9436
:10109000640D5A815F5F5A83C9CF8E2F2981820FD9
:1010A0002D960FB6F894DEBF0FBECDBFDF91CF9166
:1010B0001F910F91FF90EF90DF90CF90BF90AF9076
:1010C0009F908F907F906F905F904F903F902F9068
:1010D00008952F923F924F925F926F927F928F92DC
:1010E0009F92AF92BF92CF92DF92EF92FF920F93B7
:1010F0001F93CF93DF93CDB7DEB72C970FB6F8943D
:10110000DEBF0FBECDBF9B838A834A015B013C8754
:101110002B871D830C831701DF82CE8220E030E015
:10112000A901C501B4010E94C90D87FF23C0760142
:1011300081012C813D814B855C856DE28A819B819B
:101140000E946E05B7FAB094B7F8B0942B853C8531
:101150002F3E310588F426E0229DC001239D900D8D
:1011600011244B855C85480F591F5C874B8751E0E4
:10117000598304C0198202C081E089832AE037EDD7
:1011800043EA5BE3C501B4010E94650D4B015C01BC
:101190000E94350E2B01612C712CCE80DF807101F5
:1011A0000C811D812B853C85B301A2018A819B8125
:1011B0000E9480069981980F9983829D9001839D5A
:1011C000300D1124C90143E0880F991F4A95E1F7BA
:1011D000EB85FC858E0F9F1F8F3E910538F4220F03
:1011E000331FAC01421B530B5C874B87EE80FF80A3
:1011F00081012C813D814B855C856EE28A819B81DA
:101200000E946E058B859C858F3E910560F426E0DB
:10121000229DC001239D900D1124EB85FC85E80FD4
:10122000F91FFC87EB87C301B2010E94610E9B018D
:10123000AC01C501B4010E94640D26E0229DA0010D
:10124000239D500D11245A87498752E0588720E08A
:1012500030E040E251E40E94130F4B015C010E9418
:10126000350E2B01612C712CCE80DF8071010C8139
:101270001D812B853C85B301A2018A819B810E943F
:1012800080068B859C858F3E910530F4E985FA8533
:101290008E0F9F1F9C878B87C301B2010E94610E36
:1012A0009B01AC01C501B4010E94640DF885F150A9
:1012B000F887F111CCCF89818D5F2C960FB6F89409
:1012C000DEBF0FBECDBFDF91CF911F910F91FF9079
:1012D000EF90DF90CF90BF90AF909F908F907F90D6
:1012E0006F905F904F903F902F900895CF93CFB71E
:1012F000F89480914D01811116C061E08AE00E944E
:10130000FD0961E08AE00E94C4098CB580618CBD52
:101310008CB580648CBD61E08DE00E94C40961E001
:101320008BE00E94C40980914D018F5F80934D0135
:10133000CFBFCF910895833081F028F4813099F0A8
:101340008230A1F008958730A9F08830B9F0843058
:10135000D1F4809180008F7D03C0809180008F77D1
:1013600080938000089584B58F7702C084B58F7D07
:1013700084BD08958091B0008F7703C08091B00044
:101380008F7D8093B0000895CF93DF9390E0FC01B0
:10139000E458FC4F2491FC01E057FC4F84918823D2
:1013A00049F190E0880F991FFC01E255FC4FA5918F
:1013B000B4918C559C4FFC01C591D4919FB761119C
:1013C00008C0F8948C91209582238C938881822385
:1013D0000AC0623051F4F8948C91322F30958323F7
:1013E0008C938881822B888304C0F8948C91822B03
:1013F0008C939FBFDF91CF9108950F931F93CF934D
:10140000DF931F92CDB7DEB7282F30E0F901E859FE
:10141000FC4F8491F901E458FC4F1491F901E05715
:10142000FC4F04910023C9F0882321F069830E94B6
:101430009B096981E02FF0E0EE0FFF1FEC55FC4F98
:10144000A591B4919FB7F8948C91611103C0109548
:10145000812301C0812B8C939FBF0F90DF91CF918F
:101460001F910F9108951F920F920FB60F921124A2
:101470002F933F938F939F93AF93BF9380914F018F
:1014800090915001A0915101B091520130914E01C3
:1014900023E0230F2D3720F40196A11DB11D05C0B7
:1014A00026E8230F0296A11DB11D20934E018093C3
:1014B0004F0190935001A0935101B093520180913C
:1014C000530190915401A0915501B091560101969C
:1014D000A11DB11D8093530190935401A093550118
:1014E000B0935601BF91AF919F918F913F912F91F2
:1014F0000F900FBE0F901F9018953FB7F8948091F2
:10150000530190915401A0915501B091560126B517
:10151000A89B05C02F3F19F00196A11DB11D3FBF2B
:101520006627782F892F9A2F620F711D811D911DBB
:1015300042E0660F771F881F991F4A95D1F70895DB
:10154000CF92DF92EF92FF92CF93DF936B017C01FA
:101550000E947D0AEB01C114D104E104F10489F079
:101560000E94030B0E947D0A6C1B7D0B683E73403A
:1015700090F381E0C81AD108E108F108C851DC4FA6
:10158000EACFDF91CF91FF90EF90DF90CF90089559
:10159000789484B5826084BD84B5816084BD85B54E
:1015A000826085BD85B5816085BDEEE6F0E0808115
:1015B00081608083E1E8F0E0108280818260808336
:1015C000808181608083E0E8F0E0808181608083B9
:1015D000E1EBF0E0808184608083E0EBF0E08081EB
:1015E00081608083EAE7F0E080818460808380818D
:1015F0008260808380818160808380818068808335
:101600001092C1000895089508950E94C80A0E948A
:10161000040B0E940702CEEADCE00E94D60220976B
:10162000E1F30E94AE0CF9CFCF92DF92EF92FF92DE
:101630000F931F93CF93DF936C017A01EB01E60EBA
:10164000F71E00E010E0CE15DF0561F06991D601CC
:10165000ED91FC910190F081E02DC6010995080FF4
:10166000191FF1CFC801DF91CF911F910F91FF900A
:10167000EF90DF90CF9008956115710581F0DB0147
:101680000D900020E9F7AD0141505109461B570B61
:10169000DC01ED91FC910280F381E02D099480E062
:1016A00090E008950C943C0BDC01ED91FC910190CD
:1016B000F081E02D09940F931F93CF93DF93EC01FA
:1016C0006DE00E94540B8C016AE0CE010E94540B25
:1016D000800F911FDF91CF911F910F9108958F92ED
:1016E0009F92AF92BF92CF92DF92EF92FF920F93B1
:1016F0001F93CF93DF93CDB7DEB7A1970FB6F894C2
:10170000DEBF0FBECDBF7C01C42EE52FCB01D22E94
:1017100019A221E02D1510F02AE0D22E8E010F5DC6
:101720001F4F8D2C912CA12CB12C6C2D7E2FA5013F
:1017300094010E94760F8C2DD29E801911240150A5
:1017400011098A3014F4805D01C0895CF80180833E
:10175000211531054105510521F0C22EE32FCA01A3
:10176000E4CFB801C7010E943C0BA1960FB6F894D4
:10177000DEBF0FBECDBFDF91CF911F910F91FF90C4
:10178000EF90DF90CF90BF90AF909F908F90089593
:101790002115310541F4DC01ED91FC910190F081BE
:1017A000E02D642F09940C946F0B9A01462F50E0A2
:1017B00060E070E00C94C80B1F920F920FB60F926E
:1017C00011242F938F939F93EF93FF93E0916701E1
:1017D000F09168018081E0916D01F0916E0182FDD0
:1017E00012C09081809170018F5F8F732091710181
:1017F000821751F0E0917001F0E0E95AFE4F958FA9
:101800008093700101C08081FF91EF919F918F9132
:101810002F910F900FBE0F901F9018951F920F924F
:101820000FB60F9211242F933F934F935F936F93B3
:101830007F938F939F93AF93BF93EF93FF9387E52E
:1018400091E00E94BC0CFF91EF91BF91AF919F91ED
:101850008F917F916F915F914F913F912F910F9059
:101860000FBE0F901F90189587E591E00E94810CA4
:1018700021E0892B09F420E0822F089510925A016B
:101880001092590188EE93E0A0E0B0E080935B01F4
:1018900090935C01A0935D01B0935E018FE391E0B2
:1018A000909358018093570185EC90E090936401E8
:1018B0008093630184EC90E09093660180936501CE
:1018C00080EC90E0909368018093670181EC90E058
:1018D00090936A018093690182EC90E090936C018F
:1018E00080936B0186EC90E090936E0180936D0184
:1018F0001092700110927101109272011092730196
:101900000895FC01818D228D90E0805C9F4F821BA9
:1019100091098F7399270895FC01918D828D9817F5
:1019200031F0828DE80FF11D858D90E008958FEFE5
:101930009FEF0895FC01918D828D981761F0828D43
:10194000DF01A80FB11D5D968C91928D9F5F9F73F3
:10195000928F90E008958FEF9FEF089584E39CE0CD
:10196000892B49F080E090E0892B29F00E94340C0B
:1019700081110C9400000895FC01848DDF01A80FF3
:10198000B11DA35ABF4F2C91848D90E001968F73A7
:101990009927848FA689B7892C93A089B1898C91C6
:1019A00080648C93938D848D981306C00288F3898C
:1019B000E02D80818F7D80830895CF93DF93EC01AC
:1019C000888D8823C9F0EA89FB89808185FD05C05F
:1019D000A889B9898C9186FD0FC00FB607FCF5CF99
:1019E000808185FFF2CFA889B9898C9185FFEDCFE1
:1019F000CE010E94BC0CE7CFDF91CF910895CF922A
:101A0000DF92FF920F931F93CF93DF931F92CDB777
:101A1000DEB76C01DC015B969C915B975C968C91C8
:101A20005C97981307C05096ED91FC915197808177
:101A300085FD32C0F601038D10E00F5F1F4F0F735D
:101A40001127F02EF601848DF81211C00FB607FC95
:101A5000F9CFD6015096ED91FC915197808185FF89
:101A6000F1CFC60169830E94BC0C6981EBCF838DE5
:101A7000E80FF11DE35AFF4F6083D6015B960C938C
:101A80005B975296ED91FC915397808180628083A1
:101A900081E058968C930DC0D6015696ED91FC913D
:101AA000579760835096ED91FC91519780818064A7
:101AB000808381E090E00F90DF91CF911F910F9193
:101AC000FF90DF90CF9008955058BB27AA270ED0E3
:101AD00070C161D130F066D120F031F49F3F11F434
:101AE0001EF456C10EF4E095E7FB4CC1E92F72D10C
:101AF00080F3BA17620773078407950718F071F42B
:101B00009EF58AC10EF4E0950B2EBA2FA02D0B0185
:101B1000B90190010C01CA01A0011124FF27591B32
:101B200099F0593F50F4503E68F11A16F040A22F38
:101B3000232F342F4427585FF3CF469537952795A9
:101B4000A795F0405395C9F77EF41F16BA0B620BA8
:101B5000730B840BBAF09150A1F0FF0FBB1F661FEF
:101B6000771F881FC2F70EC0BA0F621F731F841F32
:101B700048F4879577956795B795F7959E3F08F058
:101B8000B3CF9395880F08F09927EE0F9795879517
:101B90000895D4D008F481E008950CD00AC102D190
:101BA00040F0F9D030F021F45F3F19F0EBC0511153
:101BB00034C1EEC00FD198F39923C9F35523B1F383
:101BC000951B550BBB27AA2762177307840738F0AC
:101BD0009F5F5F4F220F331F441FAA1FA9F333D00B
:101BE0000E2E3AF0E0E830D091505040E695001CBF
:101BF000CAF729D0FE2F27D0660F771F881FBB1F7B
:101C0000261737074807AB07B0E809F0BB0B802D54
:101C1000BF01FF2793585F4F2AF09E3F510568F0A0
:101C2000B1C0FBC05F3FECF3983EDCF3869577953F
:101C30006795B795F7959F5FC9F7880F911D9695A2
:101C4000879597F90895E1E0660F771F881FBB1FFE
:101C5000621773078407BA0720F0621B730B840BAB
:101C6000BA0BEE1F88F7E0950895BCD088F09F5717
:101C700090F0B92F9927B751A0F0D1F0660F771FD8
:101C8000881F991F1AF0BA95C9F712C0B13081F0B8
:101C9000C3D0B1E00895C0C0672F782F8827B85F00
:101CA00039F0B93FCCF3869577956795B395D9F719
:101CB0003EF490958095709561957F4F8F4F9F4F23
:101CC0000895E89409C097FB3EF49095809570952F
:101CD00061957F4F8F4F9F4F9923A9F0F92F96E978
:101CE000BB279395F695879577956795B795F111ED
:101CF000F8CFFAF4BB0F11F460FF1BC06F5F7F4F8A
:101D00008F4F9F4F16C0882311F096E911C077239B
:101D100021F09EE8872F762F05C0662371F096E8A4
:101D2000862F70E060E02AF09A95660F771F881F73
:101D3000DAF7880F9695879597F90895990F000817
:101D4000550FAA0BE0E8FEEF16161706E807F9078D
:101D5000C0F012161306E407F50798F0621B730B28
:101D6000840B950B39F40A2661F0232B242B252BA9
:101D700021F408950A2609F4A140A6958FEF811D4C
:101D8000811D089597F99F6780E870E060E00895ED
:101D90009FEF80EC089500240A9416161706180683
:101DA0000906089500240A9412161306140605065F
:101DB0000895092E0394000C11F4882352F0BB0FF0
:101DC00040F4BF2B11F460FF04C06F5F7F4F8F4F53
:101DD0009F4F089557FD9058440F551F59F05F3F8E
:101DE00071F04795880F97FB991F61F09F3F79F03D
:101DF00087950895121613061406551FF2CF4695BF
:101E0000F1DF08C0161617061806991FF1CF869540
:101E10007105610508940895E894BB276627772724
:101E2000CB0197F908950BD0C4CFB5DF28F0BADF06
:101E300018F0952309F0A6CFABCF1124EECFCADF5F
:101E4000A0F3959FD1F3950F50E0551F629FF001CD
:101E5000729FBB27F00DB11D639FAA27F00DB11D26
:101E6000AA1F649F6627B00DA11D661F829F2227AF
:101E7000B00DA11D621F739FB00DA11D621F839F36
:101E8000A00D611D221F749F3327A00D611D231F0C
:101E9000849F600D211D822F762F6A2F11249F575A
:101EA00050408AF0E1F088234AF0EE0FFF1FBB1F7D
:101EB000661F771F881F91505040A9F79E3F51051C
:101EC00070F060CFAACF5F3FECF3983EDCF38695CD
:101ED00077956795B795F795E7959F5FC1F7FE2BC7
:101EE000880F911D9695879597F90895A1E21A2E6E
:101EF000AA1BBB1BFD010DC0AA1FBB1FEE1FFF1FAE
:101F0000A217B307E407F50720F0A21BB30BE40BFD
:101F1000F50B661F771F881F991F1A9469F7609544
:101F20007095809590959B01AC01BD01CF010895FE
:101F3000052E97FB1EF400940E94AF0F57FD07D0AB
:101F40000E94760F07FC03D04EF40C94AF0F50950F
:101F50004095309521953F4F4F4F5F4F0895909595
:101F60008095709561957F4F8F4F9F4F0895A29FE9
:101F7000B001B39FC001A39F700D811D1124911D5D
:101F8000B29F700D811D1124911D0895EE0FFF1F4A
:0C1F90000590F491E02D0994F894FFCF27
:101F9C005265616420544654204944206661696C42
:101FAC0065642C2049442073686F756C64206265ED
:101FBC0020307830393334312C20627574207265BE
:101FCC006164204944203D2030780000000000FF6F
:0C1FDC000C140B810C9A0C8C0CDD0C001A
:00000001FF
