:100000000C94DD010C9405020C9405020C9405027D
:100010000C9405020C9405020C9405020C94050244
:100020000C9405020C9405020C9405020C94050234
:100030000C9405020C9405020C9405020C94050224
:100040000C946C090C9405020C94E70C0C94190D9B
:100050000C9405020C9405020C9405020C94050204
:100060000C9405020C940502000000000000000042
:1000700000005F0000000000000007000700000013
:1000800000147F147F14000000242A7F2A1200002D
:100090000023130864620000003649552250000016
:1000A0000000050300000000001C224100000000C9
:1000B0000041221C0000000000082A1C2A08000041
:1000C0000008083E0808000000A0600000000000D2
:1000D0000008080808080000006060000000000038
:1000E0000020100804020000003E5149453E000077
:1000F0000000427F40000000006251494946000074
:100100000022414949360000001814127F100000F7
:100110000027454545390000003C4A494930000068
:100120000001710905030000003649494936000005
:1001300000064949291E0000000036360000000074
:100140000000AC6C00000000000814224100000018
:1001500000141414141400000041221408000000BC
:10016000000201510906000000324979413E0000B9
:10017000007E0909097E0000007F494949360000D8
:10018000003E414141220000007F4141221C00000D
:10019000007F494949410000007F09090901000029
:1001A000003E414151720000007F0808087F0000B6
:1001B0000000417F41000000002040413F0100005D
:1001C000007F081422410000007F404040400000B2
:1001D000007F020C027F0000007F0408107F0000F7
:1001E000003E4141413E0000007F09090906000030
:1001F000003E4151215E0000007F091929460000A0
:1002000000264949493200000001017F0101000038
:10021000003F4040403F0000001F2040201F0000E2
:10022000003F4038403F00000063140814630000A2
:1002300000030478040300000061514945430000B5
:10024000007F41410000000000020408102000006F
:100250000041417F00000000000402010204000090
:100260000080808080800000000102040000000007
:100270000020545454780000007F48444438000063
:10028000003844442800000000384444487F0000FF
:10029000003854545418000000087E090200000081
:1002A0000018A4A4A47C0000007F080404780000C7
:1002B00000007D00000000000080847D0000000040
:1002C000007F10284400000000417F400000000033
:1002D000007C041804780000007C08047C00000006
:1002E000003844443800000000FC242418000000BA
:1002F00000182424FC00000000007C08040000001A
:10030000004854542400000000047F440000000012
:10031000003C40407C000000001C2040201C0000ED
:10032000003C4030403C00000044281028440000BD
:10033000001CA0A07C000000004464544C44000059
:10034000000836410000000000007F0000000000AF
:100350000041360800000000000201010201000017
:100360000002050502000000000000080002010074
:100370000003040700000000000000000102040860
:1003800010204080010204081020010204081020FF
:10039000040404040404040402020202020203032B
:1003A0000303030300000000250028002B000000C9
:1003B0000000240027002A00490D11241FBECFEFA2
:1003C000D8E0DEBFCDBF12E0A0E0B1E0E8ECFBE199
:1003D00002C005900D92AA31B107D9F722E0AAE137
:1003E000B2E001C01D92A23EB207E1F713E0CAEBF2
:1003F000D3E004C02297FE010E94DE0DC83BD10766
:10040000C9F70E94AC0B0C94E20D0C940000579AB3
:100410005F9A8AE392E00E94F60526E040E855E202
:1004200060E070E085E492E00E94490B61E08AE0C0
:100430000E94FD0861E08BE00E94FD0861E08CE015
:100440000E94FD0861E083E00E94FD0861E08DE00C
:100450000E94FD0867E071E085E492E00E94160CBE
:1004600061E271E085E492E00E94F90B6091000185
:1004700070910101809102019091030128EE33E017
:1004800040E050E00E94AE0DBA01A9012AE030E040
:1004900085E492E00E94810C6EE371E085E492E0D5
:1004A0000C94160C0F931F938091240290912502B7
:1004B000A0912602B0912702409130025091310262
:1004C00060913202709133028C019D01041B150B67
:1004D000260B370B40910001509101016091020100
:1004E00070910301041715072607370768F18093F9
:1004F000300290933102A0933202B093330281E034
:1005000090E090932F0280932E0261E08DE00E9494
:100510003609609124027091250280912602909103
:10052000270228EE33E040E050E00E948C0DC90124
:10053000AA2797FDA095BA2F8093280290932902AD
:10054000A0932A02B0932B021F910F9108950F934D
:100550001F9380912E0290912F02029709F047C0BD
:1005600081E090E090932D0280932C020E94B609C6
:1005700060931A0270931B0280931C0290931D02D9
:1005800061E083E00E94360960912C028CE00E94B9
:10059000360964E471E085E492E00E94160C0E9442
:1005A000B60900911A0210911B0220911C02309191
:1005B0001D02601B710B820B930B68387341810520
:1005C0009105A8F010922D0210922C0260E083E0B9
:1005D0000E94360960912C028CE00E94360963E586
:1005E00071E085E492E01F910F910C94160C1F911D
:1005F0000F9108958F929F92AF92BF92CF92DF9208
:10060000EF92FF920F931F93CF93DF93C0912C0231
:10061000D0912D020091380210913902E0903602FB
:10062000F0903702C0903402D090350280902802BA
:1006300090902902A0902A02B0902B0265E671E00A
:1006400085E492E00E94F90B2AE030E0B501A401B4
:1006500085E492E00E94810C6CE671E085E492E012
:100660000E94F90B4AE050E0B60185E492E00E9456
:10067000CB0C65E771E085E492E00E94F90B4AE05B
:1006800050E0B70185E492E00E94CB0C6DE771E089
:1006900085E492E00E94F90B4AE050E0B80185E45D
:1006A00092E00E94CB0C65E871E085E492E00E9444
:1006B000F90B4AE050E0BE0185E492E00E94CB0CC9
:1006C00085E492E0DF91CF911F910F91FF90EF9021
:1006D000DF90CF90BF90AF909F908F900C94020CC2
:1006E000CF92DF92EF92FF920F931F93EE24EA9442
:1006F000FE2C04E010E02EE130E040E050E06DE838
:1007000071E08AE392E00E94A8072CE330E040E029
:1007100050E062E971E08AE392E00E94A8072AE5CE
:1007200030E040E050E067E971E08AE392E00E9447
:10073000A8074091220250912302662757FD609539
:10074000762FC12CD12C94E0E92EF12C0EE110E093
:1007500024E630E08AE392E00E94EB074091200219
:1007600050912102662757FD6095762F0CE310E02B
:1007700024E630E08AE392E00E94EB0740911E02FB
:1007800050911F02662757FD6095762F0AE510E00D
:1007900024E630E08AE392E00E94EB0740913402C5
:1007A00050913502662757FD6095762F20EEC22EB8
:1007B000DD24DA940EE110E024E630E08AE392E0F2
:1007C0000E94EB074091360250913702662757FD91
:1007D0006095762F0CE310E024E630E08AE392E0A7
:1007E0000E94EB074091380250913902662757FD6D
:1007F0006095762F0AE510E024E630E08AE392E087
:100800000E94EB078091340290913502909323026D
:1008100080932202809136029091370290932102B8
:1008200080932002809138029091390290931F02A8
:1008300080931E021F910F91FF90EF90DF90CF9059
:10084000089580912E0290912F02019709F057C0D0
:1008500010922F0210922E028EE00E94480A90936E
:100860003502809334028FE00E94480A9093390247
:100870008093380280E10E94480A90933702809367
:100880003602209138023091390280910401909112
:100890000501281739078CF061E08AE00E943609CB
:1008A0006CE971E085E492E00E94160C82E090E031
:1008B00090932F0280932E0204C060E08AE00E9491
:1008C00036098091340290913502883C91055CF4A0
:1008D00061E08BE00E94360967EB71E085E492E00D
:1008E0000E94160C04C060E08BE00E94360960E0B4
:1008F0008DE00E9436090E94FA020C94700308955C
:100900000E94B60960932402709325028093260208
:10091000909327020E9452020E9421040C94A70285
:100920008EBD00000DB407FEFDCF8EB50895569A1A
:100930005E98559A5D980E949004559A5D9A089524
:10094000569A5E9A559A5D980E949004559A5D9ABF
:100950000895CF93C82F569A5E9A559A5D98892F1D
:100960000E9490048C2F0E949004559A5D9ACF911A
:100970000895CF92DF92EF92FF920F931F93CF9340
:10098000DF9300D000D000D0CDB7DEB7198283E965
:100990008A8381E48B838E010F5F1F4FCE01049603
:1009A0007C0181E1D82ECC24C39489ED0E94970468
:1009B0008D2D0E94A004569A5E98559A5D9883EDFD
:1009C0000E949004569A5E9A80E00E949004559A84
:1009D0005D9AF70181937F01F80191918F0189134D
:1009E000C12CD394F4E1DF12E0CFC1101DC06EEC36
:1009F00071E085E492E00E94F90B7E0187E0E80E49
:100A0000F11C8E010C5F1F4FF80161918F0140E1D5
:100A100050E085E492E00E94E00C0E151F05A1F75E
:100A200085E492E00E94020C8C2D26960FB6F89475
:100A3000DEBF0FBECDBFDF91CF911F910F91FF9011
:100A4000EF90DF90CF9008950F931F93CF93DF9394
:100A50008B01EA018AE20E949704C8010E94A9045E
:100A6000CE01DF91CF911F910F910C94A9040F93A8
:100A70001F93CF93DF938B01EA018BE20E949704CF
:100A8000C8010E94A904CE01DF91CF911F910F915F
:100A90000C94A9046F927F928F929F92AF92BF9213
:100AA000CF92DF92EF92FF920F931F93CF93DF933A
:100AB0007E2C6F2C4617570730F46427752746277E
:100AC0005727642775270217130730F4202731278B
:100AD0000227132720273127FB01603F710510F003
:100AE000EFEEF0E0403F510510F04FEE50E0E9012D
:100AF000203481E0380710F0CFE3D1E0003481E00A
:100B0000180710F00FE311E0DA011196AE1BBF0BCE
:100B100098012F5F3F4F2C1B3D0B0E94CD0D4B01C9
:100B20005C01BF018AE392E00E942405A801BE0196
:100B30008AE392E00E9437058CE20E949704569A5D
:100B40005E9A559A5D98C12CD12C7601C814D904AF
:100B5000EA04FB0461F0862D0E949004872D0E9418
:100B600090048FEFC81AD80AE80AF80AEFCF559A0E
:100B70005D9ADF91CF911F910F91FF90EF90DF90E1
:100B8000CF90BF90AF909F908F907F906F9008957F
:100B9000CF93DF934FEE50E060E070E08AE392E0A5
:100BA0000E9424054FE351E060E070E08AE392E0A8
:100BB0000E9437058CE20E949704569A5E9A559AD5
:100BC0005D98C0E0D6E980E00E94900480E00E9439
:100BD000900480E00E94900480E00E94900421979D
:100BE00091F7559A5D9ADF91CF910895CF93DF9356
:100BF000EC010E94AF08559A5D9A569A5E9ACE0112
:100C00000E94B904CE010E94B904CE010E94B90429
:100C100064EF71E080E090E00E94E50981E00E94CD
:100C2000970468EC70E080E090E00E94E5098FECAA
:100C30000E94970480E00E94A0048BE80E94A00418
:100C400080E30E94A0048DEE0E94970487E60E9434
:100C5000A00483E00E94A00482E10E94A00481E835
:100C60000E94A00488EE0E94970485E80E94A004D8
:100C700080E10E94A0048AE70E94A0048BEC0E94FD
:100C8000970489E30E94A0048CE20E94A00480E003
:100C90000E94A00484E30E94A00482E00E94A004B9
:100CA00087EF0E94970480E20E94A0048AEE0E94CF
:100CB000970480E00E94A00480E00E94A00480ECE1
:100CC0000E9497048BE10E94A00481EC0E9497048B
:100CD00080E10E94A00485EC0E9497048FE30E94AB
:100CE000A0048CE30E94A00487EC0E94970487EB89
:100CF0000E94A00486E30E94970488E00E94A0045A
:100D00008AE30E94970485E50E94A00481EB0E947B
:100D1000970480E00E94A0048BE10E94A00486EB6F
:100D20000E9497048AE00E94A00482EA0E94A00424
:100D300082EF0E94970480E00E94A00486E20E9455
:100D4000970481E00E94A00480EE0E9497048FE047
:100D50000E94A0048AE20E94A00488E20E94A004EB
:100D600088E00E94A0048EE00E94A00488E00E9417
:100D7000A00484E50E94A00489EA0E94A00483E400
:100D80000E94A0048AE00E94A0048FE00E94A004B8
:100D900080E00E94A00480E00E94A00480E00E9405
:100DA000A00480E00E94A00481EE0E94970480E0ED
:100DB0000E94A00485E10E94A00487E10E94A00493
:100DC00087E00E94A00481E10E94A00486E00E94C6
:100DD000A0048BE20E94A00486E50E94A0048CE39C
:100DE0000E94A00485E00E94A00480E10E94A0046B
:100DF0008FE00E94A0048FE30E94A0048FE30E9472
:100E0000A0048FE00E94A00481E10E94970468E79B
:100E100070E080E090E00E94E50989E20E9497047A
:100E2000CE01DF91CF910C94C805EF92FF920F9302
:100E30001F93FA01A9010E0F1F1F460F571F9F0195
:100E40000E944A051F910F91FF90EF9008952F92F5
:100E50003F924F925F926F927F928F929F92AF924A
:100E6000BF92CF92DF92EF92FF920F931F93CF9397
:100E7000DF93CDB7DEB728970FB6F894DEBF0FBE6D
:100E8000CDBF9A838983322E232E5801FC82EB82B8
:100E900080EE860F803608F06FE388E0689F3001AF
:100EA00011242A01C12CD12CD301A859B0403D01F5
:100EB000F301EC0DFD1DE4913F822886812C912CDD
:100EC0008E2F90E09E838D838D819E81082C02C0A1
:100ED000959587950A94E2F780FF0BC0EB80FC8024
:100EE000850195014F815885B20189819A810E94BF
:100EF00015079FEF891A990AAF81B885AA0DBB1D06
:100F0000B887AF83B8E08B169104F1F6EFEFCE1AF5
:100F1000DE0A4A0C5B1CF8E0CF16D10449F628968D
:100F20000FB6F894DEBF0FBECDBFDF91CF911F91FA
:100F30000F91FF90EF90DF90CF90BF90AF909F9078
:100F40008F907F906F905F904F903F902F9008957B
:100F50002F923F924F925F926F927F928F929F92C9
:100F6000AF92BF92CF92DF92EF92FF920F931F93B7
:100F7000CF93DF935C01EA0149016801370186E004
:100F8000809F1001819F300C11242B01F20161918F
:100F90002F01662369F0730186019401AE01C5013A
:100FA0000E942707CF3ED10588F7C20DD31DEECF93
:100FB000DF91CF911F910F91FF90EF90DF90CF9035
:100FC000BF90AF909F908F907F906F905F904F9069
:100FD0003F902F9008952F923F924F925F926F9281
:100FE0007F928F929F92AF92BF92CF92DF92EF92B9
:100FF000FF920F931F93CF93DF93CDB7DEB7619727
:101000000FB6F894DEBF0FBECDBF3C011A012B0115
:1010100059011E870D87470119821A821B821C8283
:1010200076E0FE013596DF01272F1D922A95E9F71C
:1010300057FE23C0760184012D853E85A5016DE212
:10104000798B0E9427075094409430942094211C5F
:10105000311C411C511C79893FEEA316B10450F498
:10106000789DC001799D900D1124A80EB91E81E0D4
:101070008C8709C091E09C8706C02114310441048B
:10108000510441F01C8680E01AE0E12EF12C00E0D2
:1010900010E00AC0760184012D853E85A50160E33C
:1010A0000E94270781E042C0A1E0A80FAB87E1E0E2
:1010B000F0E0EC0FFD1FE80FF11DF88BEF87C20188
:1010C000B101A80197010E94AE0DAF85B8896C935C
:1010D00019012A01211431044104510411F08B85B6
:1010E000E3CF3B84BC853B0E86E0889D2001899D33
:1010F000500C11249B859923C1F0FE012B85E20F32
:10110000F11D6081605D760184012D853E85A5011C
:10111000C3010E9427073FEEA316B10410F4A40CEC
:10112000B51C8B8581508B87E5CF832D61960FB6DB
:10113000F894DEBF0FBECDBFDF91CF911F910F910D
:10114000FF90EF90DF90CF90BF90AF909F908F90E7
:101150007F906F905F904F903F902F900895CF9326
:10116000CFB7F89480913B02811116C061E08AE00C
:101170000E94360961E08AE00E94FD088CB580611A
:101180008CBD8CB580648CBD61E08DE00E94FD0853
:1011900061E08BE00E94FD0880913B028F5F8093AD
:1011A0003B02CFBFCF910895833081F028F4813086
:1011B00099F08230A1F008958730A9F08830B9F015
:1011C0008430D1F4809180008F7D03C080918000B5
:1011D0008F7780938000089584B58F7702C084B59F
:1011E0008F7D84BD08958091B0008F7703C080917A
:1011F000B0008F7D8093B0000895CF93DF9390E08F
:10120000FC01E458FC4F2491FC01E057FC4F849111
:10121000882349F190E0880F991FFC01E255FC4FAB
:10122000A591B4918C559C4FFC01C591D4919FB769
:10123000611108C0F8948C91209582238C93888149
:1012400082230AC0623051F4F8948C91322F309589
:1012500083238C938881822B888304C0F8948C919B
:10126000822B8C939FBFDF91CF9108950F931F9393
:10127000CF93DF931F92CDB7DEB7282F30E0F9016F
:10128000E859FC4F8491F901E458FC4F1491F9019D
:10129000E057FC4F04910023C9F0882321F06983B3
:1012A0000E94D4086981E02FF0E0EE0FFF1FEC559B
:1012B000FC4FA591B4919FB7F8948C91611103C034
:1012C0001095812301C0812B8C939FBF0F90DF91DC
:1012D000CF911F910F9108951F920F920FB60F9209
:1012E00011242F933F938F939F93AF93BF9380913C
:1012F0003D0290913E02A0913F02B0914002309198
:101300003C0223E0230F2D3720F40196A11DB11DCF
:1013100005C026E8230F0296A11DB11D20933C02B3
:1013200080933D0290933E02A0933F02B09340020F
:101330008091410290914202A0914302B0914402F7
:101340000196A11DB11D8093410290934202A0938A
:101350004302B0934402BF91AF919F918F913F910F
:101360002F910F900FBE0F901F9018952FB7F894E4
:1013700060913D0270913E0280913F029091400247
:101380002FBF08953FB7F894809141029091420297
:10139000A0914302B091440226B5A89B05C02F3FFF
:1013A00019F00196A11DB11D3FBF6627782F892F27
:1013B0009A2F620F711D811D911D42E0660F771FEC
:1013C000881F991F4A95D1F70895CF92DF92EF9227
:1013D000FF92CF93DF936B017C010E94C209EB0166
:1013E000C114D104E104F10489F00E94650A0E944D
:1013F000C2096C1B7D0B683E734090F381E0C81AF4
:10140000D108E108F108C851DC4FEACFDF91CF9154
:10141000FF90EF90DF90CF900895789484B582602C
:1014200084BD84B5816084BD85B5826085BD85B588
:10143000816085BDEEE6F0E0808181608083E1E837
:10144000F0E010828081826080838081816080836F
:10145000E0E8F0E0808181608083E1EBF0E0808172
:1014600084608083E0EBF0E0808181608083EAE744
:10147000F0E08081846080838081826080838081CD
:10148000816080838081806880831092C10008958C
:101490008E3008F08E5087702091060190E4299FCD
:1014A00090011124822B80937C0080917A008064CB
:1014B00080937A0080917A0086FDFCCF809178003D
:1014C0002091790090E0922B08950895FC01818D80
:1014D000228D90E0805C9F4F821B91098F7399272A
:1014E0000895FC01918D828D981731F0828DE80F5F
:1014F000F11D858D90E008958FEF9FEF0895FC0119
:10150000918D828D981761F0828DDF01A80FB11D3A
:101510005D968C91928D9F5F9F73928F90E008955E
:101520008FEF9FEF08958FE39DE0892B49F080E0D6
:1015300090E0892B29F00E943F0D81110C9400004E
:101540000895FC01848DDF01A80FB11DA35ABF4F80
:101550002C91848D90E001968F739927848FA689B2
:10156000B7892C93A089B1898C9180648C93938DD9
:10157000848D981306C00288F389E02D80818F7DC9
:1015800080830895CF93DF93EC01888D8823C9F081
:10159000EA89FB89808185FD05C0A889B9898C917C
:1015A00086FD0FC00FB607FCF5CF808185FFF2CF17
:1015B000A889B9898C9185FFEDCFCE010E94A10A3F
:1015C000E7CFDF91CF910895CF92DF92FF920F93F3
:1015D0001F93CF93DF931F92CDB7DEB76C01DC0171
:1015E0005B969C915B975C968C915C97981307C077
:1015F0005096ED91FC915197808185FD32C0F601A6
:10160000038D10E00F5F1F4F0F731127F02EF601AF
:10161000848DF81211C00FB607FCF9CFD601509691
:10162000ED91FC915197808185FFF1CFC6016983CF
:101630000E94A10A6981EBCF838DE80FF11DE35A67
:10164000FF4F6083D6015B960C935B975296ED91AA
:10165000FC91539780818062808381E058968C93BF
:101660000DC0D6015696ED91FC9157976083509628
:10167000ED91FC91519780818064808381E090E0BE
:101680000F90DF91CF911F910F91FF90DF90CF903E
:101690000895BF92CF92DF92EF92FF92CF93DF93A4
:1016A000EC016A017B01B22EE889F98982E080832E
:1016B000411581EE580761057105A1F060E079E000
:1016C0008DE390E0A70196010E948C0D2150310915
:1016D000410951095695479537952795211580E180
:1016E000380798F0E889F989108260E874E88EE19B
:1016F00090E0A70196010E948C0D2150310941090B
:1017000051095695479537952795EC85FD8530838A
:10171000EE85FF852083188EEC89FD89B082EA89E9
:10172000FB89808180618083EA89FB898081886070
:101730008083EA89FB89808180688083EA89FB89CC
:1017400080818F7D8083DF91CF91FF90EF90DF903C
:10175000CF90BF90089508950E940D0A0E94AB0B90
:101760000E940702C3E9DAE00E9480042097E1F3B7
:101770000E94930AF9CFCF92DF92EF92FF920F93DC
:101780001F93CF93DF936C017A01EB01E60EF71EF6
:1017900000E010E0CE15DF0561F06991D601ED9112
:1017A000FC910190F081E02DC6010995080F191FE9
:1017B000F1CFC801DF91CF911F910F91FF90EF9072
:1017C000DF90CF9008956115710581F0DB010D90D8
:1017D0000020E9F7AD0141505109461B570BDC01D0
:1017E000ED91FC910280F381E02D099480E090E07E
:1017F00008950C94E30BDC01ED91FC910190F081D4
:10180000E02D09940F931F93CF93DF93EC016DE0CC
:101810000E94FB0B8C016AE0CE010E94FB0B800F43
:10182000911FDF91CF911F910F9108950F931F93F7
:10183000CF93DF93EC010E94E30B8C01CE010E9459
:10184000020C800F911FDF91CF911F910F9108958E
:101850008F929F92AF92BF92CF92DF92EF92FF92C0
:101860000F931F93CF93DF93CDB7DEB7A1970FB63A
:10187000F894DEBF0FBECDBF7C01C42EE52FCB0197
:10188000D22E19A221E02D1510F02AE0D22E8E01C1
:101890000F5D1F4F8D2C912CA12CB12C6C2D7E2F08
:1018A000A50194010E948C0D8C2DD29E80191124CB
:1018B000015011098A3014F4805D01C0895CF8017F
:1018C0008083211531054105510521F0C22EE32FFA
:1018D000CA01E4CFB801C7010E94E30BA1960FB67D
:1018E000F894DEBF0FBECDBFDF91CF911F910F9156
:1018F000FF90EF90DF90CF90BF90AF909F908F9030
:101900000895CF92DF92EF92FF920F931F93CF93A0
:10191000DF93EC016A017B012115310579F4E8813F
:10192000F9810190F081E02D642FDF91CF911F911B
:101930000F91FF90EF90DF90CF9009942A303105FE
:10194000E9F477FF1AC06DE20E94FB0B8C0144277B
:101950005527BA014C195D096E097F092AE0CE01AD
:101960000E94280C800F911FDF91CF911F910F9142
:10197000FF90EF90DF90CF9008952AE0B701A60185
:10198000CE01DF91CF911F910F91FF90EF90DF90EB
:10199000CF900C94280C9A01AB01662757FD6095F7
:1019A000762F0C94810C2115310541F4DC01ED9169
:1019B000FC910190F081E02D642F09940C94280C87
:1019C0009A01462F50E060E070E00C94D30C1F9217
:1019D0000F920FB60F9211242F938F939F93EF9333
:1019E000FF93E0915502F09156028081E0915B02F5
:1019F000F0915C0282FD12C0908180915E028F5F47
:101A00008F7320915F02821751F0E0915E02F0E047
:101A1000EB5BFD4F958F80935E0201C08081FF914B
:101A2000EF919F918F912F910F900FBE0F901F906C
:101A300018951F920F920FB60F9211242F933F9378
:101A40004F935F936F937F938F939F93AF93BF93C6
:101A5000EF93FF9385E492E00E94A10AFF91EF913A
:101A6000BF91AF919F918F917F916F915F914F91B6
:101A70003F912F910F900FBE0F901F90189585E406
:101A800092E00E94660A21E0892B09F420E0822F6F
:101A90000895109248021092470288EE93E0A0E069
:101AA000B0E08093490290934A02A0934B02B09316
:101AB0004C028DE092E0909346028093450285ECC3
:101AC00090E0909352028093510284EC90E09093C6
:101AD00054028093530280EC90E0909356028093DE
:101AE000550281EC90E0909358028093570282EC6B
:101AF00090E090935A028093590286EC90E0909384
:101B00005C0280935B0210925E0210925F02109260
:101B10006002109261020895A1E21A2EAA1BBB1B5B
:101B2000FD010DC0AA1FBB1FEE1FFF1FA217B307A9
:101B3000E407F50720F0A21BB30BE40BF50B661FBF
:101B4000771F881F991F1A9469F760957095809583
:101B500090959B01AC01BD01CF010895052E97FB27
:101B60001EF400940E94C50D57FD07D00E948C0DF5
:101B700007FC03D04EF40C94C50D5095409530955C
:101B800021953F4F4F4F5F4F0895909580957095E9
:101B900061957F4F8F4F9F4F0895A29FB001B39FD4
:101BA000C001A39F700D811D1124911DB29F700D66
:101BB000811D1124911D0895EE0FFF1F0590F491D2
:081BC000E02D0994F894FFCF19
:101BC800E8030000000101426F6F74696E672047E7
:101BD800617264656E2053746174696F6E2E2E2E67
:101BE8000053657474696E6720696E7465727661F6
:101BF8006C20636865636B7320746F3A20002073F0
:101C08006563200050756D70204163746976617456
:101C180065640050756D702044652D416374697664
:101C2800617465640054696D653A2000204C6967E9
:101C380068743A20002054656D703A200020536F74
:101C4800696C3A20002050554D503A20004C4754BA
:101C58003A00544D503A00534F4C3A00536F696C58
:101C680020447279202D2041637469766174696E0D
:101C7800672050756D70004C6F77204C69676874E9
:101C8800202D205472697020416C61726D0052657C
:101C9800616420544654204944206661696C656437
:101CA8002C2049442073686F756C6420626520306D
:101CB8007830393334312C20627574207265616450
:101CC800204944203D2030780000000000E40ABB91
:0A1CD8000B660A7F0A710AC20A00B7
:00000001FF
