:100000000C94BF020C94F0020C94F0020C94F002D9
:100010000C94F0020C94F0020C94F0020C94F00298
:100020000C94F0020C94F0020C94F0020C94F00288
:100030000C94F0020C94F0020C94F0020C94F00278
:100040000C94F0020C94F0020C94F0020C94F00268
:100050000C94F0020C94F0020C94F0020C94C6097B
:100060000C94F0020C94A20B0C94D80B0C94F0029C
:100070000C94F0020C94F0020C94F0020C94F00238
:100080000C94F0020C94F0020C94F0020C94F00228
:100090000C94F0020C94F0020C94F0020C94F00218
:1000A0000C94F0020C94F0020C94F0020C94F00208
:1000B0000C94F0020C94F0020C94F0020C94F002F8
:1000C0000C94F0020C94F0020C94F0020C94F002E8
:1000D0000C94F0020C94F0020C94F0020C94F002D8
:1000E0000C94F0021C091F090E091209180956097F
:1000F000230927092D09310935093B093F0943091E
:10010000560949094D0951090C947C0C0C943B0982
:100110000C94020C0C94FC0C0C940C0C0C944909DF
:100120000C941F090C944D090C9451090C940E0960
:100130000C9443090C9418090C943F090C945A0C24
:100140000C9423090C94DA0C0C9427090C943109B3
:100150000C9412090C941C090C94DA0A0C943509BD
:100160000C942D090C944F0C0C9456090C9490038C
:100170000C94680C000000000000000000005F000C
:1001800000000000000007000700000000147F14BA
:100190007F14000000242A7F2A1200000023130885
:1001A000646200000036495522500000000005033B
:1001B00000000000001C2241000000000041221C41
:1001C0000000000000082A1C2A0800000008083E61
:1001D0000808000000A060000000000000080808F7
:1001E0000808000000606000000000000020100807
:1001F00004020000003E5149453E00000000427FDD
:100200004000000000625149494600000022414977
:1002100049360000001814127F10000000274545E1
:1002200045390000003C4A4949300000000171098D
:1002300005030000003649494936000000064949D7
:10024000291E000000003636000000000000AC6CE3
:1002500000000000000814224100000000141414E3
:100260001414000000412214080000000002015193
:100270000906000000324979413E0000007E09096C
:10028000097E0000007F494949360000003E414197
:1002900041220000007F4141221C0000007F4949AB
:1002A00049410000007F090909010000003E414169
:1002B00051720000007F0808087F00000000417FA5
:1002C00041000000002040413F010000007F081471
:1002D00022410000007F404040400000007F020CAF
:1002E000027F0000007F0408107F0000003E4141B3
:1002F000413E0000007F090909060000003E41510F
:10030000215E0000007F09192946000000264949A6
:10031000493200000001017F01010000003F404020
:10032000403F0000001F2040201F0000003F4038D9
:10033000403F0000006314081463000000030478C9
:10034000040300000061514945430000007F414122
:100350000000000000020408102000000041417F5E
:100360000000000000040201020400000080808000
:1003700080800000000102040000000000205454AE
:1003800054780000007F484444380000003844445A
:100390002800000000384444487F000000385454CE
:1003A0005418000000087E09020000000018A4A4F0
:1003B000A47C0000007F08040478000000007D0099
:1003C000000000000080847D00000000007F1028F5
:1003D0004400000000417F4000000000007C041841
:1003E00004780000007C08047C00000000384444CD
:1003F0003800000000FC2424180000000018242409
:10040000FC00000000007C08040000000048545478
:100410002400000000047F4400000000003C404035
:100420007C000000001C2040201C0000003C4030EC
:10043000403C00000044281028440000001CA0A0FC
:100440007C000000004464544C4400000008364125
:100450000000000000007F0000000000004136089E
:100460000000000000020101020100000002050579
:100470000200000000000A0B02090C0D0E08070321
:100480000401000000000000000000000000000067
:10049000000000000000000000000000000000005C
:1004A0001211100000000000000000000000000019
:1004B00000000000000000000000010210202008E1
:1004C00008102040102040800201020108040201AF
:1004D000010204081020408080402010080402011E
:1004E0008004020180402010080402010804020177
:1004F00001020408102040800102040810204080FE
:1005000005050505070508080808020202020A0A8F
:1005100008080404040401010101010101010303AD
:10052000030303030303040707070C0C0C0C0C0C58
:100530000C0C0202020206060606060606060B0B55
:100540000B0B0B0B0B0B00002200250028002B00CF
:100550002E003100340002010000050108010B01EA
:1005600000002100240027002A002D003000330065
:1005700001010000040107010A0190030C0C112481
:100580001FBECFEFD1E2DEBFCDBF00E00CBF12E057
:10059000A0E0B2E0ECE3FBE100E00BBF02C007909B
:1005A0000D92A435B107D9F723E0A4E5B2E001C06C
:1005B0001D92AC35B207E1F715E0CEE7D5E000E0DB
:1005C00006C022970109FE010BBF0E94980DCA3791
:1005D000D10780E00807A9F70E94CB0A0C949C0D74
:1005E0000C940000CF92DF92EF92FF920F931F9333
:1005F000CF93DF93EC010E94100A2A893B892130B6
:100600003105E1F40C891D892E893F896B017C013C
:10061000C01AD10AE20AF30A0A851B852C853D859A
:10062000C016D106E206F30690F11B8A1A8A6C8B7B
:100630007D8B8E8B9F8B088519851FC0232B39F5E9
:100640000C891D892E893F896B017C01C01AD10A52
:10065000E20AF30A0E851F8528893989C016D1065A
:10066000E206F306A0F021E030E03B8B2A8B6C8B96
:100670007D8B8E8B9F8B088119812E813F814C81D0
:100680005D816A817B8184EB92E00E945008DF915A
:10069000CF911F910F91FF90EF90DF90CF90089531
:1006A000EF92FF920F931F93E1E0F1E08081806170
:1006B0008083E2E0F1E080818061808384EB92E0DE
:1006C0000E942806EE24EA94FE2C03E010E020E0CD
:1006D00030E040E050E060E072E084EB92E00E94A5
:1006E000E2072EE130E040E050E064E072E084EBAD
:1006F00092E00E94E2071F910F91FF90EF90089502
:100700008CE992E00E94F20284E892E00E94F202F8
:100710008CE692E00E94F20284E592E00C94F202F0
:10072000CF92DF92EF92FF920F931F93CF93DF93BD
:10073000C0E5D0E0D0939F02C0939E02EAE0F0E0D3
:10074000F093A102E093A002F093A302E093A2022F
:1007500080E098EF90939D0280939C021092A502F6
:100760001092A40284E690E0A0E0B0E08093A6029C
:100770009093A702A093A802B093A9028093AA0223
:100780009093AB02A093AC02B093AD021092AF0273
:100790001092AE021092B0021092B1021092B20208
:1007A0001092B30268EC70E0709387026093860247
:1007B00004E610E0109389020093880244E150E0BF
:1007C00050938B0240938A0220EE37E030938502EB
:1007D0002093840210928D0210928C020F2EF8EE5C
:1007E000CF2EF3E0DF2EE12CF12CF02DC0928E0203
:1007F000D0928F02E0929002F09291020F2EF0E9D7
:10080000CF2EDD24D394E12CF12CF02DC092920256
:10081000D0929302E0929402F09295021092970285
:1008200010929602109298021092990210929A02D7
:1008300010929B0210936F0200936E0270937102EC
:100840006093700250937302409372024FE150E044
:1008500050936D0240936C021092750210927402D4
:1008600048EC50E060E070E04093760250937702ED
:10087000609378027093790240937A0250937B02DE
:1008800060937C0270937D0210927F0210927E0230
:1008900010928002109281021092820210928302C2
:1008A000D0935702C093560248E250E05093590249
:1008B00040935802F0935B02E0935A023093550242
:1008C0002093540230935D0220935C0280935E0279
:1008D00090935F02A0936002B09361021092620253
:1008E00010926302109264021092650210926702E5
:1008F00010926602109268021092690210926A02C7
:1009000010926B02DF91CF911F910F91FF90EF90AA
:10091000DF90CF9008958EBD00000DB407FEFDCF8F
:100920008EB50895E1E0F1E0908198609083E2E077
:10093000F1E09081977F90836B9A73980E948B046B
:100940006B9A739A0895E1E0F1E09081986090834A
:10095000E2E0F1E09081986090836B9A73980E9436
:100960008B046B9A739A0895CF93C82FE1E0F1E05E
:10097000208128602083E2E0F1E02081286020834C
:100980006B9A7398892F0E948B048C2F0E948B0482
:100990006B9A739ACF910895CF92DF92EF92FF9264
:1009A0000F931F93CF93DF9300D000D0CDB7DEB766
:1009B000198283E98A8381E48B838E010F5F1F4F45
:1009C000CE0104967C0181E1D82ECC24C39489ED1C
:1009D0000E9492048D2D0E94A304809101018860E1
:1009E0008093010180910201877F809302016B9ABD
:1009F000739883ED0E948B0480910101886080933D
:100A000001018091020188608093020180E00E94D0
:100A10008B046B9A739AF70181937F01F80191918E
:100A20008F018913C12CD394F4E1DF12D0CFC11010
:100A30001DC068E072E08FEB92E00E94180B7E010F
:100A400087E0E80EF11C8E010C5F1F4FF8016191E9
:100A50008F0140E150E08FEB92E00E949B0B0E155E
:100A60001F05A1F78FEB92E00E94210B8C2D26969B
:100A70000FB6F894DEBF0FBECDBFDF91CF911F91AF
:100A80000F91FF90EF90DF90CF9008950F931F93F9
:100A9000CF93DF938B01EA018AE20E949204C8019E
:100AA0000E94B404CE01DF91CF911F910F910C945D
:100AB000B4040F931F93CF93DF938B01EA018BE272
:100AC0000E949204C8010E94B404CE01DF91CF912C
:100AD0001F910F910C94B4046F927F928F929F920A
:100AE000AF92BF92CF92DF92EF92FF920F931F933C
:100AF000CF93DF937E2C6F2C4617570730F4642773
:100B0000752746275727642775270217130730F4E0
:100B1000202731270227132720273127FB01603F99
:100B2000710510F0EFEEF0E0403F510510F04FEE90
:100B300050E0E901203481E0380710F0CFE3D1E044
:100B4000003481E0180710F00FE311E0DA0111968C
:100B5000AE1BBF0B98012F5F3F4F2C1B3D0B0E941C
:100B6000890D4B015C01BF0184EB92E00E944605B8
:100B7000A801BE0184EB92E00E9459058CE20E941C
:100B800092048091010188608093010180910201AB
:100B90008860809302016B9A7398C12CD12C7601E6
:100BA000C814D904EA04FB0461F0862D0E948B046A
:100BB000872D0E948B048FEFC81AD80AE80AF80A1A
:100BC000EFCF6B9A739ADF91CF911F910F91FF90A6
:100BD000EF90DF90CF90BF90AF909F908F907F90DD
:100BE0006F900895CF93DF934FEE50E060E070E098
:100BF00084EB92E00E9446054FE351E060E070E034
:100C000084EB92E00E9459058CE20E94920480914C
:100C100001018860809301018091020188608093C6
:100C200002016B9A7398C0E0D6E980E00E948B04C1
:100C300080E00E948B0480E00E948B0480E00E9490
:100C40008B04219791F76B9A739ADF91CF91089556
:100C5000CF93DF93EC010E94DE086B9A739AE1E078
:100C6000F1E0808188608083E2E0F1E0808188604B
:100C70008083CE010E94CC04CE010E94CC04CE0120
:100C80000E94CC0464EF71E080E090E00E943F0A93
:100C900081E00E94920468EC70E080E090E00E94A5
:100CA0003F0A8FEC0E94920480E00E94A3048BE82C
:100CB0000E94A30480E30E94A3048DEE0E9492048C
:100CC00087E60E94A30483E00E94A30482E10E94BD
:100CD000A30481E80E94A30488EE0E94920485E8A0
:100CE0000E94A30480E10E94A3048AE70E94A30457
:100CF0008BEC0E94920489E30E94A3048CE20E9480
:100D0000A30480E00E94A30484E30E94A30482E081
:100D10000E94A30487EF0E94920480E20E94A30431
:100D20008AEE0E94920480E00E94A30480E00E9468
:100D3000A30480EC0E9492048BE10E94A30481EC46
:100D40000E94920480E10E94A30485EC0E94920418
:100D50008FE30E94A3048CE30E94A30487EC0E940B
:100D6000920487EB0E94A30486E30E94920488E029
:100D70000E94A3048AE30E94920485E50E94A304D2
:100D800081EB0E94920480E00E94A3048BE10E9408
:100D9000A30486EB0E9492048AE00E94A30482EAE4
:100DA0000E94A30482EF0E94920480E00E94A304A8
:100DB00086E20E94920481E00E94A30480EE0E94D9
:100DC00092048FE00E94A3048AE20E94A30488E2B6
:100DD0000E94A30488E00E94A3048EE00E94A30462
:100DE00088E00E94A30484E50E94A30489EA0E948B
:100DF000A30483E40E94A3048AE00E94A3048FE07A
:100E00000E94A30480E00E94A30480E00E94A30447
:100E100080E00E94A30480E00E94A30481EE0E946F
:100E2000920480E00E94A30485E10E94A30487E16C
:100E30000E94A30487E00E94A30481E10E94A3040E
:100E400086E00E94A3048BE20E94A30486E50E9430
:100E5000A3048CE30E94A30485E00E94A30480E124
:100E60000E94A3048FE00E94A3048FE30E94A304C6
:100E70008FE30E94A3048FE00E94A30481E10E94FB
:100E8000920468E770E080E090E00E943F0A89E207
:100E90000E949204CE01DF91CF910C94F205EF9263
:100EA000FF920F931F93FA01A9010E0F1F1F460F08
:100EB000571F9F010E946C051F910F91FF90EF90AB
:100EC00008952F923F924F925F926F927F928F92EE
:100ED0009F92AF92BF92CF92DF92EF92FF920F93C9
:100EE0001F93CF93DF93CDB7DEB728970FB6F89453
:100EF000DEBF0FBECDBF9A838983322E232E5801C9
:100F0000FC82EB8280EE860F803608F06FE388E08B
:100F1000689F300111242A01C12CD12CD301AC5877
:100F2000BF4F3D01F301EC0DFD1DE4913F8228868A
:100F3000812C912C8E2F90E09E838D838D819E81BC
:100F4000082C02C0959587950A94E2F780FF0BC0A4
:100F5000EB80FC80850195014F815885B201898124
:100F60009A810E944F079FEF891A990AAF81B8852D
:100F7000AA0DBB1DB887AF83B8E08B169104F1F6BC
:100F8000EFEFCE1ADE0A4A0C5B1CF8E0CF16D10454
:100F900049F628960FB6F894DEBF0FBECDBFDF919D
:100FA000CF911F910F91FF90EF90DF90CF90BF9066
:100FB000AF909F908F907F906F905F904F903F90F9
:100FC0002F9008952F923F924F925F926F927F924F
:100FD0008F929F92AF92BF92CF92DF92EF92FF9249
:100FE0000F931F93CF93DF935C01EA0149016801DE
:100FF000370186E0809F1001819F300C11242B0166
:10100000F20161912F01662369F073018601940159
:10101000AE01C5010E946107CF3ED10588F7C20D20
:10102000D31DEECFDF91CF911F910F91FF90EF90E5
:10103000DF90CF90BF90AF909F908F907F906F90F8
:101040005F904F903F902F900895CF92DF92EF9254
:10105000FF920F931F93CF93DF93EC016A01790105
:10106000AB010E944605A6014E0D5F1DB601CE01E3
:101070000E9459058CE20E949204C0E0D0E0CE1597
:10108000DF0529F0C8010E94B4042196F8CFDF9152
:10109000CF911F910F91FF90EF90DF90CF90089527
:1010A0002F923F924F925F926F927F928F929F9278
:1010B000AF92BF92CF92DF92EF92FF920F931F9366
:1010C000CF93DF9300D01F92CDB7DEB75C011B0139
:1010D0005A834983480188279927821B930B9C8355
:1010E0008B837C01EE0CFF1C92E0E90EF11CC12CFD
:1010F000D12C2601440C551C8401920169807A8010
:101100006C187D08A301B101EB81FC816E1B7F0B84
:10111000C5010E9425089201A3016B817C81620DAB
:10112000731DC5010E942508CE14DF04C4F0FFEF33
:10113000CF1ADF0A83E0480E511C4E0C5F1C8B81D6
:101140009C819195819591098C159D0549F4EB81C0
:10115000FC81EE15FF054CF0E12CF12C01C02701BC
:101160008B819C818E159F055CF4EB81FC8131960F
:10117000FC83EB83CF01880F991F0196480E591EFF
:101180008B819C811816190614F07201B2CF0F9052
:101190000F900F900F90DF91CF911F910F91FF90C3
:1011A000EF90DF90CF90BF90AF909F908F907F9007
:1011B0006F905F904F903F902F900895CF93CFB74F
:1011C000F8948091B502811116C061E085E30E9418
:1011D000900961E085E30E9457098CB580618CBD60
:1011E0008CB580648CBD61E084E30E94570961E0A6
:1011F00083E30E9457098091B5028F5F8093B50207
:10120000CFBFCF91089590E0FC013197E231F10515
:1012100008F04CC0EE58FF4F0C94830D8091800075
:101220008F7703C0809180008F7D80938000089528
:1012300080918000877FF9CF84B58F7702C084B515
:101240008F7D84BD08958091B0008F7703C0809119
:10125000B0008F7D8093B0000895809190008F77CB
:1012600007C0809190008F7D03C080919000877FA0
:101270008093900008958091A0008F7707C080919F
:10128000A0008F7D03C08091A000877F8093A00085
:101290000895809120018F7707C0809120018F7D74
:1012A00003C080912001877F809320010895CF9310
:1012B000DF9390E0FC01E654FB4F2491FC01E050E9
:1012C000FB4F8491882349F190E0880F991FFC011E
:1012D000E05AFA4FA591B4918A5B9A4FFC01C591EF
:1012E000D4919FB7611108C0F8948C912095822306
:1012F0008C93888182230AC0623051F4F8948C91D7
:10130000322F309583238C938881822B888304C06D
:10131000F8948C91822B8C939FBFDF91CF9108958D
:101320000F931F93CF93DF931F92CDB7DEB7282F74
:1013300030E0F901EC58FB4F8491F901E654FB4F82
:101340001491F901E050FB4F04910023C9F0882368
:1013500021F069830E9403096981E02FF0E0EE0F1C
:10136000FF1FEA5BFA4FA591B4919FB7F8948C9157
:10137000611103C01095812301C0812B8C939FBF05
:101380000F90DF91CF911F910F9108951F920F92AF
:101390000FB60F9211242F933F938F939F93AF9388
:1013A000BF938091B7029091B802A091B902B09119
:1013B000BA023091B60223E0230F2D3720F40196B4
:1013C000A11DB11D05C026E8230F0296A11DB11D68
:1013D0002093B6028093B7029093B802A093B9020B
:1013E000B093BA028091BB029091BC02A091BD0261
:1013F000B091BE020196A11DB11D8093BB029093D6
:10140000BC02A093BD02B093BE02BF91AF919F9169
:101410008F913F912F910F900FBE0F901F901895B5
:101420002FB7F8946091B7027091B8028091B90219
:101430009091BA022FBF08953FB7F8948091BB02F4
:101440009091BC02A091BD02B091BE0226B5A89BAE
:1014500005C02F3F19F00196A11DB11D3FBF6627A2
:10146000782F892F9A2F620F711D811D911D42E0E7
:10147000660F771F881F991F4A95D1F70895CF925D
:10148000DF92EF92FF92CF93DF936B017C010E947A
:101490001C0AEB01C114D104E104F10489F00E949B
:1014A000C90A0E941C0A6C1B7D0B683E734090F3B6
:1014B00081E0C81AD108E108F108C851DC4FEACF31
:1014C000DF91CF91FF90EF90DF90CF9008957894C7
:1014D00084B5826084BD84B5816084BD85B5826039
:1014E00085BD85B5816085BDEEE6F0E080818160D7
:1014F0008083E1E8F0E010828081826080838081D7
:1015000081608083E0E8F0E0808181608083E1EBAE
:10151000F0E0808184608083E0EBF0E08081816096
:101520008083E1E9F0E08081826080838081816056
:101530008083E0E9F0E0808181608083E1EAF0E08F
:10154000808182608083808181608083E0EAF0E036
:10155000808181608083E1E2F1E08081826080832C
:10156000808181608083E0E2F1E08081816080831E
:10157000EAE7F0E0808184608083808182608083FC
:101580008081816080838081806880831092C10027
:101590000895089508950E94670A0E94CA0A0E9449
:1015A0005003CCE7DCE00E9480032097E1F30E9427
:1015B0007C0CF9CFCF92DF92EF92FF920F931F93A3
:1015C000CF93DF936C017A01EB01E60EF71E00E08A
:1015D00010E0CE15DF0561F06991D601ED91FC9127
:1015E0000190F081E02DC6011995080F191FF1CF68
:1015F000C801DF91CF911F910F91FF90EF90DF9085
:10160000CF9008956115710581F0DB010D900020E8
:10161000E9F7AD0141505109461B570BDC01ED9133
:10162000FC910280F381E02D199480E090E0089510
:101630000C94020BDC01ED91FC910190F081E02D06
:1016400019940F931F93CF93DF93EC016DE00E94E9
:101650001A0B8C016AE0CE010E941A0B800F911FB9
:10166000DF91CF911F910F9108958F929F92AF922A
:10167000BF92CF92DF92EF92FF920F931F93CF937F
:10168000DF93CDB7DEB7A1970FB6F894DEBF0FBEDC
:10169000CDBF7C01C42EE52FCB01D22E19A221E0B3
:1016A0002D1510F02AE0D22E8E010F5D1F4F8D2CCC
:1016B000912CA12CB12C6C2D7E2FA50194010E94A0
:1016C000610D8C2DD29E80191124015011098A3090
:1016D00014F4805D01C0895CF80180832115310517
:1016E0004105510521F0C22EE32FCA01E4CFB80114
:1016F000C7010E94020BA1960FB6F894DEBF0FBE81
:10170000CDBFDF91CF911F910F91FF90EF90DF90B0
:10171000CF90BF90AF909F908F9008952115310585
:1017200041F4DC01ED91FC910190F081E02D642FFA
:1017300019940C94350B9A01462F50E060E070E04C
:101740000C948E0B1F920F920FB60F9211240BB6B2
:101750000F922F938F939F93EF93FF93E091CF027C
:10176000F091D0028081E091D502F091D60282FD05
:1017700012C090818091D8028F5F8F732091D9021F
:10178000821751F0E091D802F0E0E154FD4F958FBF
:101790008093D80201C08081FF91EF919F918F913A
:1017A0002F910F900BBE0F900FBE0F901F901895AA
:1017B0001F920F920FB60F9211240BB60F922F9318
:1017C0003F934F935F936F937F938F939F93AF93C9
:1017D000BF93EF93FF938FEB92E00E94B90CFF91C0
:1017E000EF91BF91AF919F918F917F916F915F9199
:1017F0004F913F912F910F900BBE0F900FBE0F9006
:101800001F9018958FEB92E00E944F0C21E0892BDE
:1018100009F420E0822F08951092C2021092C102B2
:1018200088EE93E0A0E0B0E08093C3029093C402FE
:10183000A093C502B093C60287E492E09093C002E1
:101840008093BF0285EC90E09093CC028093CB0212
:1018500084EC90E09093CE028093CD0280EC90E0F7
:101860009093D0028093CF0281EC90E09093D202CB
:101870008093D10282EC90E09093D4028093D302C3
:1018800086EC90E09093D6028093D5021092D80215
:101890001092D9021092DA021092DB020895FC0134
:1018A000818D228D90E0805C9F4F821B91098F7308
:1018B00099270895FC01918D828D981731F0828DC2
:1018C000E80FF11D858D90E008958FEF9FEF08954B
:1018D000FC01918D828D981761F0828DDF01A80F38
:1018E000B11D5D968C91928D9F5F9F73928F90E05A
:1018F00008958FEF9FEF089582E09CE0892B41F0DF
:1019000080E090E0892B21F00E94020C811125C01B
:1019100080E090E0892B41F080E090E0892B21F07D
:101920000E94000081111CC080E090E0892B41F0F2
:1019300080E090E0892B21F00E940000811113C00B
:1019400080E090E0892BA1F080E090E0892B81F08D
:101950000E94000081110AC008950E940000D8CFA3
:101960000E940000E1CF0E940000EACF0C9400002A
:101970000895FC01848DDF01A80FB11DA35ABF4F4C
:101980002C91848D90E001968F739927848FA6897E
:10199000B7892C93A089B1898C9180648C93938DA5
:1019A000848D981306C00288F389E02D80818F7D95
:1019B00080830895CF93DF93EC01888D8823C9F04D
:1019C000EA89FB89808185FD05C0A889B9898C9148
:1019D00086FD0FC00FB607FCF5CF808185FFF2CFE3
:1019E000A889B9898C9185FFEDCFCE010E94B90CF1
:1019F000E7CFDF91CF910895CF92DF92FF920F93BF
:101A00001F93CF93DF931F92CDB7DEB76C01DC013C
:101A10005B969C915B975C968C915C97981307C042
:101A20005096ED91FC915197808185FD32C0F60171
:101A3000038D10E00F5F1F4F0F731127F02EF6017B
:101A4000848DF81211C00FB607FCF9CFD60150965D
:101A5000ED91FC915197808185FFF1CFC60169839B
:101A60000E94B90C6981EBCF838DE80FF11DE35A19
:101A7000FF4F6083D6015B960C935B975296ED9176
:101A8000FC91539780818062808381E058968C938B
:101A90000DC0D6015696ED91FC91579760835096F4
:101AA000ED91FC91519780818064808381E090E08A
:101AB0000F90DF91CF911F910F91FF90DF90CF900A
:101AC0000895A1E21A2EAA1BBB1BFD010DC0AA1F7F
:101AD000BB1FEE1FFF1FA217B307E407F50720F097
:101AE000A21BB30BE40BF50B661F771F881F991F12
:101AF0001A9469F760957095809590959B01AC015B
:101B0000BD01CF010895EE0FFF1F0590F491E02D68
:101B10001994A29FB001B39FC001A39F700D811DB6
:101B20001124911DB29F700D811D1124911D0895E6
:0C1B30000790F691E02D1994F894FFCF77
:101B3C004152310041523200526561642054465486
:101B4C00204944206661696C65642C2049442073EB
:101B5C00686F756C642062652030783039333431AD
:101B6C002C206275742072656164204944203D20EC
:101B7C0030780000000000FC0CDA0A4F0C680C5A9C
:041B8C000CDA0C0063
:00000001FF
