:100000000C9453000C947B000C947B000C947B00AC
:100010000C947B000C947B000C947B000C947B0074
:100020000C947B000C947B000C947B000C947B0064
:100030000C947B000C947B000C947B000C947B0054
:100040000C94C9020C947B000C94E0050C941206ED
:100050000C947B000C947B000C947B000C947B0034
:100060000C947B000C947B0001020408102040805B
:1000700001020408102001020408102004040404F2
:100080000404040402020202020203030303030342
:1000900000000000250028002B00000000002400C4
:1000A00027002A00420611241FBECFEFD8E0DEBF92
:1000B000CDBF11E0A0E0B1E0E8E9FDE002C00590AD
:1000C0000D92A434B107D9F721E0A4E4B1E001C056
:1000D0001D92AA3EB207E1F710E0C6EAD0E004C0E4
:1000E0002297FE010E94BD06C43AD107C9F70E94BB
:1000F000EC040C94CA060C940000CF92DF92EF92AD
:10010000FF926B017C0160E071E08DE491E00E9460
:1001100039052AE030E0B701A6018DE491E0FF90B7
:10012000EF90DF90CF900C94CE05CF92DF92EF92BC
:10013000FF926B017C0164E171E08DE491E00E942B
:1001400039052AE030E0B701A6018DE491E0FF9087
:10015000EF90DF90CF900C94CE05CF93DF93CDB787
:10016000DEB7CC5CD1090FB6F894DEBF0FBECDBFB1
:1001700061E08DE00E94900226E040E855E260E0F8
:1001800070E08DE491E00E94890468E271E08DE402
:1001900091E00E945605CE0101960E94030180ED78
:1001A000C82E87E0D82EE12CF12C08EE13E020E0D9
:1001B00030E04EE251E06DE770E0CE0101960E9422
:1001C0008B0198EEC92E93E0D92EE12CF12C08EE8C
:1001D00013E020E030E04EE251E065E970E0CE014E
:1001E00001960E948B010E941303AB01BC01CE015A
:1001F00001960E94FE016AE070E080E090E00E94BB
:100200004203F1CF0895FC011582148211821082FD
:100210001382128208950F931F93CF93DF93CDB76C
:10022000DEB762970FB6F894DEBF0FBECDBF9C015C
:100230008B01FC01808191814281538148175907CC
:1002400041F142E1489FF001499FF00D1124E20F76
:10025000F31F3696DE011196542F01900D925A9598
:10026000E1F701966BE070E00E948506F901918349
:100270008083FE013196D80101900D924A95E1F7F5
:10028000F9018481958101979583848380E090E0D2
:1002900002C08FEF9FEF62960FB6F894DEBF0FBEDD
:1002A000CDBFDF91CF911F910F910895CF93DF9331
:1002B000CDB7DEB79C01DC011296ED91FC9113974E
:1002C000CF0101966BE070E00E948506D9014D9147
:1002D0005C9184179507D1F042E14E9FD0014F9F6A
:1002E000B00D1124A20FB31F1696FE013596019092
:1002F0000D924A95E1F7F901938382838481958178
:1003000001969583848380E090E002C08FEF9FEF99
:10031000DF91CF9108956F927F928F929F92AF92CB
:10032000BF92CF92DF92EF92FF920F931F93CF93E2
:10033000DF93CDB7DEB762970FB6F894DEBF0FBE7E
:10034000CDBF3C01FA0148015901DA010D900020AE
:10035000E9F71197A41BB50B1897C8F57A83698341
:10036000CE010B9628E0DC011D922A95E9F7DA010F
:100370000D900020E9F7AD01415051094E1B5F0B74
:10038000BF010E94C106CF82D886E986FA868B8299
:100390009C82AD82BE822DB73EB7225131090FB685
:1003A000F8943EBF0FBE2DBFADB7BEB7119682E128
:1003B000FE01319601900D928A95E1F7C3010E94EA
:1003C00056010FB6F894DEBF0FBECDBF02C08FEF4F
:1003D0009FEF62960FB6F894DEBF0FBECDBFDF91E0
:1003E000CF911F910F91FF90EF90DF90CF90BF9032
:1003F000AF909F908F907F906F9008957F928F9293
:100400009F92AF92BF92CF92DF92EF92FF920F93A3
:100410001F93CF93DF93CDB7DEB762970FB6F894F3
:10042000DEBF0FBECDBF8C016A017B0181E090E091
:10043000F80124813581232B11F080E090E0AA247B
:10044000BB24A81AB90A812C912C32E1732EF80131
:10045000848195818816990608F04DC0BE016F5FB2
:100460007F4FC8010E940B01892B09F041C08B818D
:100470009C81AD81BE81C816D906EA06FB06D0F084
:10048000E981FA81C701B6010995892B19F4FFEFBB
:10049000AF1ABF0A8F819885A985BA850097A105F3
:1004A000B10511F18C0D9D1DAE1DBF1D8B839C836D
:1004B000AD83BE838DB79EB742970FB6F8949EBFAB
:1004C0000FBE8DBFADB7BEB71196FE013196872D19
:1004D00001900D928A95E1F7C8010E9456010FB66E
:1004E000F894DEBF0FBECDBFFFEF8F1A9F0AAFCFCC
:1004F000AA24AA94BA2CC50162960FB6F894DEBF5E
:100500000FBECDBFDF91CF911F910F91FF90EF9064
:10051000DF90CF90BF90AF909F908F907F90089585
:10052000CF93DF9390E0FC01E859FF4F2491FC0149
:10053000E458FF4F8491882349F190E0880F991F78
:10054000FC01E656FF4FA591B49180579F4FFC01E7
:10055000C591D4919FB7611108C0F8948C912095F2
:1005600082238C93888182230AC0623051F4F894EC
:100570008C91322F309583238C938881822B8883B2
:1005800004C0F8948C91822B8C939FBFDF91CF9104
:1005900008951F920F920FB60F9211242F933F933D
:1005A0008F939F93AF93BF938091450190914601A4
:1005B000A0914701B09148013091440123E0230FFD
:1005C0002D3720F40196A11DB11D05C026E8230F8B
:1005D0000296A11DB11D2093440180934501909383
:1005E0004601A0934701B093480180914901909141
:1005F0004A01A0914B01B0914C010196A11DB11D82
:100600008093490190934A01A0934B01B0934C0110
:10061000BF91AF919F918F913F912F910F900FBEFE
:100620000F901F9018952FB7F89460914501709125
:10063000460180914701909148012FBF08953FB72F
:10064000F8948091490190914A01A0914B01B09199
:100650004C0126B5A89B05C02F3F19F00196A11D9E
:10066000B11D3FBF6627782F892F9A2F620F711D0A
:10067000811D911D42E0660F771F881F991F4A95C3
:10068000D1F70895CF92DF92EF92FF92CF93DF934D
:100690006B017C010E941F03EB01C114D104E10432
:1006A000F10489F00E94A5030E941F036C1B7D0BBF
:1006B000683E734090F381E0C81AD108E108F10860
:1006C000C851DC4FEACFDF91CF91FF90EF90DF90E0
:1006D000CF900895789484B5826084BD84B581609C
:1006E00084BD85B5826085BD85B5816085BDEEE63A
:1006F000F0E0808181608083E1E8F0E01082808119
:1007000082608083808181608083E0E8F0E0808186
:1007100081608083E1EBF0E0808184608083E0EBA6
:10072000F0E0808181608083EAE7F0E0808184608E
:1007300080838081826080838081816080838081EA
:10074000806880831092C10008950895FC01818D16
:10075000228D90E0805C9F4F821B91098F739927B7
:100760000895FC01918D828D981731F0828DE80FEC
:10077000F11D858D90E008958FEF9FEF0895FC01A6
:10078000918D828D981761F0828DDF01A80FB11DC8
:100790005D968C91928D9F5F9F73928F90E00895EC
:1007A0008FEF9FEF089588E396E0892B49F080E072
:1007B00090E0892B29F00E94380681110C940000EA
:1007C0000895FC01848DDF01A80FB11DA35ABF4F0E
:1007D0002C91848D90E001968F739927848FA68940
:1007E000B7892C93A089B1898C9180648C93938D67
:1007F000848D981306C00288F389E02D80818F7D57
:1008000080830895CF93DF93EC01888D8823C9F00E
:10081000EA89FB89808185FD05C0A889B9898C9109
:1008200086FD0FC00FB607FCF5CF808185FFF2CFA4
:10083000A889B9898C9185FFEDCFCE010E94E10393
:10084000E7CFDF91CF910895CF92DF92FF920F9380
:100850001F93CF93DF931F92CDB7DEB76C01DC01FE
:100860005B969C915B975C968C915C97981307C004
:100870005096ED91FC915197808185FD32C0F60133
:10088000038D10E00F5F1F4F0F731127F02EF6013D
:10089000848DF81211C00FB607FCF9CFD60150961F
:1008A000ED91FC915197808185FFF1CFC60169835D
:1008B0000E94E1036981EBCF838DE80FF11DE35ABC
:1008C000FF4F6083D6015B960C935B975296ED9138
:1008D000FC91539780818062808381E058968C934D
:1008E0000DC0D6015696ED91FC91579760835096B6
:1008F000ED91FC91519780818064808381E090E04C
:100900000F90DF91CF911F910F91FF90DF90CF90CB
:100910000895BF92CF92DF92EF92FF92CF93DF9331
:10092000EC016A017B01B22EE889F98982E08083BB
:10093000411581EE580761057105A1F060E079E08D
:100940008DE390E0A70196010E949906215031099C
:10095000410951095695479537952795211580E10D
:10096000380798F0E889F989108260E874E88EE128
:1009700090E0A70196010E94990621503109410992
:1009800051095695479537952795EC85FD85308318
:10099000EE85FF852083188EEC89FD89B082EA8977
:1009A000FB89808180618083EA89FB8980818860FE
:1009B0008083EA89FB89808180688083EA89FB895A
:1009C00080818F7D8083DF91CF91FF90EF90DF90CA
:1009D000CF90BF90089508950E946A030E94EB048F
:1009E0000E94AD00C3EDD3E00E9402012097E1F325
:1009F0000E94D303F9CFCF92DF92EF92FF920F9331
:100A00001F93CF93DF936C017A01EB01E60EF71E83
:100A100000E010E0CE15DF0561F06991D601ED919F
:100A2000FC910190F081E02DC6010995080F191F76
:100A3000F1CFC801DF91CF911F910F91FF90EF90FF
:100A4000DF90CF9008956115710581F0DB010D9065
:100A50000020E9F7AD0141505109461B570BDC015D
:100A6000ED91FC910280F381E02D099480E090E00B
:100A700008950C942305DC01ED91FC910190F08127
:100A8000E02D09940F931F93CF93DF93EC016DE05A
:100A90000E943B058C016AE0CE010E943B05800F5D
:100AA000911FDF91CF911F910F9108950F931F9385
:100AB000CF93DF93EC010E9423058C01CE010E94AD
:100AC0004205800F911FDF91CF911F910F910895E3
:100AD0008F929F92AF92BF92CF92DF92EF92FF924E
:100AE0000F931F93CF93DF93CDB7DEB7A1970FB6C8
:100AF000F894DEBF0FBECDBF7C01C42EE52FCB0125
:100B0000D22E19A221E02D1510F02AE0D22E8E014E
:100B10000F5D1F4F8D2C912CA12CB12C6C2D7E2F95
:100B2000A50194010E9499068C2DD29E8019112452
:100B3000015011098A3014F4805D01C0895CF8010C
:100B40008083211531054105510521F0C22EE32F87
:100B5000CA01E4CFB801C7010E942305A1960FB6D0
:100B6000F894DEBF0FBECDBFDF91CF911F910F91E3
:100B7000FF90EF90DF90CF90BF90AF909F908F90BD
:100B800008952115310541F4DC01ED91FC910190AE
:100B9000F081E02D642F09940C9468050F931F9346
:100BA000CF93DF93EC010E94C1058C01CE010E941E
:100BB0004205800F911FDF91CF911F910F910895F2
:100BC0001F920F920FB60F9211242F938F939F9322
:100BD000EF93FF93E0915D01F0915E018081E091E0
:100BE0006301F091640182FD12C0908180916601E1
:100BF0008F5F8F7320916701821751F0E09166013A
:100C0000F0E0E35BFE4F958F8093660101C0808129
:100C1000FF91EF919F918F912F910F900FBE0F90A9
:100C20001F9018951F920F920FB60F9211242F93B9
:100C30003F934F935F936F937F938F939F93AF9364
:100C4000BF93EF93FF938DE491E00E94E103FF9146
:100C5000EF91BF91AF919F918F917F916F915F9134
:100C60004F913F912F910F900FBE0F901F901895AD
:100C70008DE491E00E94A60321E0892B09F420E095
:100C8000822F08951092500110924F0188EE93E048
:100C9000A0E0B0E08093510190935201A0935301E2
:100CA000B093540187E391E090934E0180934D01FE
:100CB00085EC90E090935A018093590184EC90E088
:100CC00090935C0180935B0180EC90E090935E01D7
:100CD00080935D0181EC90E09093600180935F01CF
:100CE00082EC90E0909362018093610186EC90E049
:100CF00090936401809363011092660110926701E2
:100D000010926801109269010895AA1BBB1B51E162
:100D100007C0AA1FBB1FA617B70710F0A61BB70B6B
:100D2000881F991F5A95A9F780959095BC01CD0110
:100D30000895A1E21A2EAA1BBB1BFD010DC0AA1F1C
:100D4000BB1FEE1FFF1FA217B307E407F50720F034
:100D5000A21BB30BE40BF50B661F771F881F991FAF
:100D60001A9469F760957095809590959B01AC01F8
:100D7000BD01CF010895EE0FFF1F0590F491E02D06
:100D80000994FB01DC0102C001900D9241505040DA
:080D9000D8F70895F894FFCF95
:100D980074657374312028313030302C3230303063
:100DA800293A200074657374322028313030302C91
:100DB80031303030293A2000416C6976650054653D
:100DC800737400000000002404FB04A603BF03B1F1
:040DD800030204000E
:00000001FF
