:100000000C945E000C9486000C9486000C94860080
:100010000C9486000C9486000C9486000C94860048
:100020000C9486000C9486000C9486000C94860038
:100030000C9486000C9486000C9486000C94860028
:100040000C9434070C9486000C94860A0C94B80A1D
:100050000C9486000C9486000C9486000C94860008
:100060000C9486000C948600000000080002010039
:100070000003040700000000000000000102040863
:100080001020408001020408102001020408102002
:10009000040404040404040402020202020203032E
:1000A0000303030300000000250028002B000000CC
:1000B0000000240027002A005C01E80A11241FBE6A
:1000C000CFEFD8E0DEBFCDBF11E0A0E0B1E0EAE6BF
:1000D000FBE102C005900D92A436B107D9F722E0EA
:1000E000A4E6B1E001C01D92A031B207E1F710E033
:1000F000CCEBD0E004C02297FE010E94AF0DC83BBC
:10010000D107C9F70E94AF090C94B30D0C940000FD
:10011000CF92DF92EF92FF920F931F93CF93DF93D3
:1001200088E691E00E948D0426E040E052EC61E018
:1001300070E083E791E00E94050984E0C82E81E029
:10014000D82EC0E0D0E0F601E190F1906F0100916F
:100150001601109117012EE130E040E050E0BE01A1
:1001600088E691E00E94AC056E96C03FD10559F734
:10017000DF91CF911F910F91FF90EF90DF90CF9083
:1001800008954F925F926F927F928F929F92AF925B
:10019000BF92CF92DF92EF92FF920F931F93CF9374
:1001A000DF9300D000D000D0CDB7DEB784E691E079
:1001B0000E94A60129833A834B835C836D837E83EF
:1001C0008B809C8069817A81882777FD8095982F24
:1001D0001F921F921F9220EF2F93A12CB12C65012B
:1001E00014EFE12E16E0F12E00E010E028EE30E0F2
:1001F00040E050E00E9467092B013C01B4018827D0
:1002000077FD8095982F1F921F9221E02F9320E475
:100210002F9312E2E12E17E0F12E00E010E026EA23
:1002200030E040E050E00E9467090FB6F894DEBF6E
:100230000FBECDBF2D813E812B30310534F1209191
:100240001601309117012F5F3F4F261737078CF0AB
:10025000C2016EE170E00E942A0D660F771F6C5F8D
:100260007E4FFB0180819181909315018093140151
:100270000CC0009114011091150122E030E0AB0197
:10028000B20188E691E00E94E90526960FB6F8943F
:10029000DEBF0FBECDBFDF91CF911F910F91FF90B9
:1002A000EF90DF90CF90BF90AF909F908F907F9016
:1002B0006F905F904F9008950F930EE02FE040E114
:1002C00061E184E691E00E9467010F9108950F9328
:1002D000FC0140832283018363830F910895BF92C1
:1002E000CF92DF92EF92FF920F931F93CF93DF9302
:1002F000B82E34E0C32ED12C00E014E0C0E0D0E0F2
:10030000E12CF12C8B2D0E940408C817D9070CF49E
:10031000EC01801791070CF48C01E80EF91E81E0C6
:10032000C81AD10879F7C701801B910B8C1B9D0B54
:1003300097FD019695958795DF91CF911F910F912C
:10034000FF90EF90DF90CF90BF9008952F923F9253
:100350004F925F926F927F928F929F92AF92BF92D5
:10036000CF92DF92EF92FF920F931F93CF93DF9381
:10037000CDB7DEB728970FB6F894DEBF0FBECDBF5E
:100380008C01FC01A381B0E0FD01E057FF4FC49058
:10039000FC018081682F70E0FB01E057FF4FE49083
:1003A000F801428150E0FA01E057FF4FA490F801B4
:1003B000218130E0F901E057FF4F6490FD01E458DE
:1003C000FF4F3490FB01E458FF4F9490FA01E4583A
:1003D000FF4FB490F901E458FF4F249060E00E9471
:1003E000C50660E0F80181810E94C506F12CEE0C83
:1003F000FF1C97012C553F4F7901F901A591B4914C
:100400008C91392D30953F8383238C93712C660C0E
:10041000771CC3018C559F4F3C01FC01A591B49101
:100420008C91922D909589238C9361E0F8018381C2
:100430000E94C50661E0F80182810E94C506D12CA8
:10044000CC0CDD1C96012C553F4F6901F901A5919B
:10045000B4918C9183298C93EA2DF0E0EE0FFF1F6D
:10046000EC55FF4FA591B4918C91B0948B218C9356
:10047000F801808190E00E946F015C01F8018081A9
:1004800090E00E946F018A159B0524F42501481A0B
:10049000590A03C02C014A185B08A80EB91E60E077
:1004A000F80183810E94C50660E0F80182810E9404
:1004B000C506F601A591B4918C91309483218C935B
:1004C00061E0F80180810E94C506F701A591B49111
:1004D0008C9189298C9361E0F80181810E94C50685
:1004E000F801828190E00E946F014C01F801828145
:1004F00090E00E946F01881599052CF49401281B47
:10050000390BC90102C08819990903972CF421E01D
:1005100033E0431651040CF020E0880C991C61E094
:10052000F801838128870E94C506F601A591B49140
:100530008C9183218C93F301A591B4918C918229A4
:100540008C93F701A591B4918C913F8183238C9377
:1005500060E0F80180810E94C506F80182810E9456
:1005600004087C01F80180810E9404082885222368
:1005700009F444C0BC01882777FD8095982F0E941C
:100580002B0C2B013C01B701882777FD8095982F14
:100590000E942B0C9B01AC01C301B2010E94900B85
:1005A00020E030E040E85FE30E942B0B6B017C0110
:1005B0008EEF97E08A199B0997FD0196BC0175950E
:1005C0006795882777FD8095982F0E942B0C9B01BB
:1005D000AC01C701B6010E94B70C20E030E046E94B
:1005E00053E40E94B70C20E030E040E85AE30E9458
:1005F000B70C0E94F80BE62F872F02C0E0E080E0E6
:10060000BA82A9829C828B82ED838E832A2D3A81C5
:10061000482D5C816E2F782F80E090E028960FB6F1
:10062000F894DEBF0FBECDBFDF91CF911F910F9128
:10063000FF90EF90DF90CF90BF90AF909F908F9002
:100640007F906F905F904F903F902F9008958EBD58
:1006500000000DB407FEFDCF8EB50895569A5E9842
:10066000559A5D980E942703559A5D9A0895569A67
:100670005E9A559A5D980E942703559A5D9A08954F
:10068000CF93C82F569A5E9A559A5D98892F0E94EB
:1006900027038C2F0E942703559A5D9ACF910895C6
:1006A000CF92DF92EF92FF920F931F93CF93DF933E
:1006B00000D000D000D0CDB7DEB7198283E98A839D
:1006C00081E48B838E010F5F1F4FCE0104967C0166
:1006D00081E1D82ECC24C39489ED0E942E038D2D68
:1006E0000E943703569A5E98559A5D9883ED0E9452
:1006F0002703569A5E9A80E00E942703559A5D9AD6
:10070000F70181937F01F80191918F018913C12C29
:10071000D394F4E1DF12E0CFC1101DC069E171E0B4
:1007200083E791E00E94FC097E0187E0E80EF11C5E
:100730008E010C5F1F4FF80161918F0140E150E085
:1007400083E791E00E947F0A0E151F05A1F783E75A
:1007500091E00E94050A8C2D26960FB6F894DEBF14
:100760000FBECDBFDF91CF911F910F91FF90EF9002
:10077000DF90CF9008950F931F93CF93DF938B015A
:10078000EA018AE20E942E03C8010E944003CE01C2
:10079000DF91CF911F910F910C9440030F931F9302
:1007A000CF93DF938B01EA018BE20E942E03C801F5
:1007B0000E944003CE01DF91CF911F910F910C94C5
:1007C00040036F927F928F929F92AF92BF92CF928F
:1007D000DF92EF92FF920F931F93CF93DF937E2CC4
:1007E0006F2C4617570730F464277527462757277D
:1007F000642775270217130730F4202731270227B3
:10080000132720273127FB01603F710510F0EFEE21
:10081000F0E0403F510510F04FEE50E0E901203488
:1008200081E0380710F0CFE3D1E0003481E0180711
:1008300010F00FE311E0DA011196AE1BBF0B980127
:100840002F5F3F4F2C1B3D0B0E947F0D4B015C0126
:10085000BF0188E691E00E94BB03A801BE0188E6C3
:1008600091E00E94CE038CE20E942E03569A5E9A7B
:10087000559A5D98C12CD12C7601C814D904EA048C
:10088000FB0461F0862D0E942703872D0E94270319
:100890008FEFC81AD80AE80AF80AEFCF559A5D9A7E
:1008A000DF91CF911F910F91FF90EF90DF90CF904C
:1008B000BF90AF909F908F907F906F900895CF934F
:1008C000DF934FEE50E060E070E088E691E00E9438
:1008D000BB034FE351E060E070E088E691E00E94E6
:1008E000CE038CE20E942E03569A5E9A559A5D982A
:1008F000C0E0D6E980E00E94270380E00E94270341
:1009000080E00E94270380E00E942703219791F74F
:10091000559A5D9ADF91CF910895CF93DF93EC01C3
:100920000E947706559A5D9A569A5E9ACE010E9469
:100930005003CE010E945003CE010E94500364EF89
:1009400071E080E090E00E94A10781E00E942E0308
:1009500068EC70E080E090E00E94A1078FEC0E94BC
:100960002E0380E00E9437038BE80E94370380E368
:100970000E9437038DEE0E942E0387E60E94370304
:1009800083E00E94370382E10E94370381E80E94DE
:10099000370388EE0E942E0385E80E94370380E12A
:1009A0000E9437038AE70E9437038BEC0E942E03D4
:1009B00089E30E9437038CE20E94370380E00E94A3
:1009C000370384E30E94370382E00E94370387EFF6
:1009D0000E942E0380E20E9437038AEE0E942E03BB
:1009E00080E00E94370380E00E94370380EC0E9481
:1009F0002E038BE10E94370381EC0E942E0380E1DD
:100A00000E94370385EC0E942E038FE30E94370378
:100A10008CE30E94370387EC0E942E0387EB0E9431
:100A2000370386E30E942E0388E00E9437038AE39F
:100A30000E942E0385E50E94370381EB0E942E035E
:100A400080E00E9437038BE10E94370386EB0E940F
:100A50002E038AE00E94370382EA0E94370382EF66
:100A60000E942E0380E00E94370386E20E942E033C
:100A700081E00E94370380EE0E942E038FE00E94E7
:100A800037038AE20E94370388E20E94370388E036
:100A90000E9437038EE00E94370388E00E943703EC
:100AA00084E50E94370389EA0E94370383E40E94A9
:100AB00037038AE00E9437038FE00E94370380E00B
:100AC0000E94370380E00E94370380E00E943703D2
:100AD00080E00E94370381EE0E942E0380E00E9496
:100AE000370385E10E94370387E10E94370387E0DF
:100AF0000E94370381E10E94370386E00E9437039A
:100B00008BE20E94370386E50E9437038CE30E9444
:100B1000370385E00E94370380E10E9437038FE0AE
:100B20000E9437038FE30E9437038FE30E9437034D
:100B30008FE00E94370381E10E942E0368E770E096
:100B400080E090E00E94A10789E20E942E03CE017E
:100B5000DF91CF910C945F04EF92FF920F931F935C
:100B6000FA01A9010E0F1F1F460F571F9F010E9478
:100B7000E1031F910F91FF90EF900895CF92DF92C4
:100B8000EF92FF920F931F93CF93DF93EC016A01D3
:100B90007901AB010E94BB03A6014E0D5F1DB6019A
:100BA000CE010E94CE038CE20E942E03C0E0D0E072
:100BB000CE15DF0529F0C8010E9440032196F8CF29
:100BC000DF91CF911F910F91FF90EF90DF90CF9029
:100BD00008952F923F924F925F926F927F928F92E1
:100BE0009F92AF92BF92CF92DF92EF92FF920F93BC
:100BF0001F93CF93DF9300D000D0CDB7DEB75C0159
:100C00001B015A834983480188279927821B930B2C
:100C10009C838B837C01EE0CFF1C92E0E90EF11C9F
:100C2000C12CD12C2601440C551C840192016980F1
:100C30007A806C187D08A301B101EB81FC816E1BE9
:100C40007F0BC5010E94BE059201A3016B817C81CF
:100C5000620D731DC5010E94BE05CE14DF04C4F0F1
:100C6000FFEFCF1ADF0A83E0480E511C4E0C5F1CC9
:100C70008B819C819195819591098C159D0549F4F5
:100C8000EB81FC81EE15FF054CF0E12CF12C01C04D
:100C900027018B819C818E159F055CF4EB81FC8183
:100CA0003196FC83EB83CF01880F991F0196480E84
:100CB000591E8B819C811816190614F07201B2CF4F
:100CC0000F900F900F900F90DF91CF911F910F9188
:100CD000FF90EF90DF90CF90BF90AF909F908F905C
:100CE0007F906F905F904F903F902F900895CF939B
:100CF000CFB7F89480916901811116C061E08AE054
:100D00000E94FE0661E08AE00E94C5068CB5806103
:100D10008CBD8CB580648CBD61E08DE00E94C50601
:100D200061E08BE00E94C506809169018F5F80932E
:100D30006901CFBFCF910895833081F028F48130CD
:100D400099F08230A1F008958730A9F08830B9F089
:100D50008430D1F4809180008F7D03C08091800029
:100D60008F7780938000089584B58F7702C084B513
:100D70008F7D84BD08958091B0008F7703C08091EE
:100D8000B0008F7D8093B0000895CF93DF9390E003
:100D9000FC01E458FF4F2491FC01E057FF4F849180
:100DA000882349F190E0880F991FFC01E255FF4F1D
:100DB000A591B4918C559F4FFC01C591D4919FB7DB
:100DC000611108C0F8948C91209582238C938881BE
:100DD00082230AC0623051F4F8948C91322F3095FE
:100DE00083238C938881822B888304C0F8948C9110
:100DF000822B8C939FBFDF91CF9108950F931F9308
:100E0000CF93DF931F92CDB7DEB7282F30E0F901E3
:100E1000E859FF4F8491F901E458FF4F1491F9010B
:100E2000E057FF4F04910023C9F0882321F0698324
:100E30000E949C066981E02FF0E0EE0FFF1FEC5549
:100E4000FF4FA591B4919FB7F8948C91611103C0A5
:100E50001095812301C0812B8C939FBF0F90DF9150
:100E6000CF911F910F9108951F920F920FB60F927D
:100E700011242F933F938F939F93AF93BF938091B0
:100E80006B0190916C01A0916D01B0916E01309158
:100E90006A0123E0230F2D3720F40196A11DB11D17
:100EA00005C026E8230F0296A11DB11D20936A01FB
:100EB00080936B0190936C01A0936D01B0936E01D0
:100EC00080916F0190917001A0917101B0917201B8
:100ED0000196A11DB11D80936F0190937001A093A5
:100EE0007101B0937201BF91AF919F918F913F912A
:100EF0002F910F900FBE0F901F9018953FB7F89449
:100F000080916F0190917001A0917101B091720177
:100F100026B5A89B05C02F3F19F00196A11DB11D54
:100F20003FBF6627782F892F9A2F620F711D811D71
:100F3000911D42E0660F771F881F991F4A95D1F7D0
:100F40000895CF92DF92EF92FF92CF93DF936B01E0
:100F50007C010E947E07EB01C114D104E104F1047D
:100F600089F00E9421080E947E076C1B7D0B683E61
:100F7000734090F381E0C81AD108E108F108C85124
:100F8000DC4FEACFDF91CF91FF90EF90DF90CF90D1
:100F90000895789484B5826084BD84B5816084BDF1
:100FA00085B5826085BD85B5816085BDEEE6F0E0E2
:100FB000808181608083E1E8F0E01082808182603E
:100FC0008083808181608083E0E8F0E080818160BF
:100FD0008083E1EBF0E0808184608083E0EBF0E0EF
:100FE000808181608083EAE7F0E080818460808393
:100FF000808182608083808181608083808180683D
:1010000080831092C10008958E3008F08E50877052
:101010002091180190E4299F90011124822B809344
:101020007C0080917A00806480937A0080917A00BD
:1010300086FDFCCF809178002091790090E0922B82
:1010400008950895FC01818D228D90E0805C9F4F72
:10105000821B91098F7399270895FC01918D828DD0
:10106000981731F0828DE80FF11D858D90E008957D
:101070008FEF9FEF0895FC01918D828D981761F09D
:10108000828DDF01A80FB11D5D968C91928D9F5FBF
:101090009F73928F90E008958FEF9FEF08958EEDEC
:1010A0009AE0892B49F080E090E0892B29F00E949A
:1010B000DE0A81110C9400000895FC01848DDF018B
:1010C000A80FB11DA35ABF4F2C91848D90E00196BB
:1010D0008F739927848FA689B7892C93A089B189AA
:1010E0008C9180648C93938D848D981306C00288B4
:1010F000F389E02D80818F7D80830895CF93DF93E6
:10110000EC01888D8823C9F0EA89FB89808185FDFF
:1011100005C0A889B9898C9186FD0FC00FB607FC60
:10112000F5CF808185FFF2CFA889B9898C9185FFA1
:10113000EDCFCE010E945D08E7CFDF91CF910895FA
:10114000CF92DF92FF920F931F93CF93DF931F9263
:10115000CDB7DEB76C01DC015B969C915B975C962A
:101160008C915C97981307C05096ED91FC91519724
:10117000808185FD32C0F601038D10E00F5F1F4FA7
:101180000F731127F02EF601848DF81211C00FB6DF
:1011900007FCF9CFD6015096ED91FC9151978081D3
:1011A00085FFF1CFC60169830E945D086981EBCF9D
:1011B000838DE80FF11DE35AFF4F6083D6015B96E4
:1011C0000C935B975296ED91FC91539780818062CE
:1011D000808381E058968C930DC0D6015696ED9190
:1011E000FC91579760835096ED91FC9151978081C7
:1011F0008064808381E090E00F90DF91CF911F9118
:101200000F91FF90DF90CF900895BF92CF92DF9221
:10121000EF92FF92CF93DF93EC016A017B01B22E34
:10122000E889F98982E08083411581EE58076105DC
:101230007105A1F060E079E08DE390E0A7019601EF
:101240000E943E0D2150310941095109569547959B
:1012500037952795211580E1380798F0E889F989B5
:10126000108260E874E88EE190E0A70196010E9488
:101270003E0D215031094109510956954795379541
:101280002795EC85FD853083EE85FF852083188EBC
:10129000EC89FD89B082EA89FB8980818061808345
:1012A000EA89FB89808188608083EA89FB89808163
:1012B00080688083EA89FB8980818F7D8083DF91CC
:1012C000CF91FF90EF90DF90CF90BF9008954F9215
:1012D0005F926F927F92AF92BF92CF92DF92EF9226
:1012E000FF920F931F93CF93DF93CDB7DEB7290102
:1012F0003A01621B730B840B950B29893A894B8940
:101300005C892A193B094C095D09298B3A8B4B8B67
:101310005C8B9B01AC0169897A898B899C890E94CD
:101320001A0DE418F50806091709A80197010E948B
:10133000600D2A0D3B1D4C1D5D1DCA01B901DF91D9
:10134000CF911F910F91FF90EF90DF90CF90BF90C2
:10135000AF907F906F905F904F90089508950E9496
:10136000C9070E94AE090E948800CFE4D8E00E941D
:10137000C1002097E1F30E944F08F9CFCF92DF928E
:10138000EF92FF920F931F93CF93DF936C017A013B
:10139000EB01E60EF71E00E010E0CE15DF0561F070
:1013A0006991D601ED91FC910190F081E02DC6018B
:1013B0000995080F191FF1CFC801DF91CF911F9137
:1013C0000F91FF90EF90DF90CF9008956115710518
:1013D00081F0DB010D900020E9F7AD01415051098A
:1013E000461B570BDC01ED91FC910280F381E02D4F
:1013F000099480E090E008950C94E609DC01ED91F9
:10140000FC910190F081E02D09940F931F93CF93ED
:10141000DF93EC016DE00E94FE098C016AE0CE01D1
:101420000E94FE09800F911FDF91CF911F910F91B4
:1014300008958F929F92AF92BF92CF92DF92EF92D8
:10144000FF920F931F93CF93DF93CDB7DEB7A19792
:101450000FB6F894DEBF0FBECDBF7C01C42EE52FC2
:10146000CB01D22E19A221E02D1510F02AE0D22EA8
:101470008E010F5D1F4F8D2C912CA12CB12C6C2D4A
:101480007E2FA50194010E943E0D8C2DD29E8019C5
:101490001124015011098A3014F4805D01C0895C67
:1014A000F8018083211531054105510521F0C22E37
:1014B000E32FCA01E4CFB801C7010E94E609A19653
:1014C0000FB6F894DEBF0FBECDBFDF91CF911F9155
:1014D0000F91FF90EF90DF90CF90BF90AF909F90D3
:1014E0008F9008952115310541F4DC01ED91FC91B7
:1014F0000190F081E02D642F09940C94190A9A014F
:10150000462F50E060E070E00C94720A1F920F9238
:101510000FB60F9211242F938F939F93EF93FF9306
:10152000E0918301F09184018081E0918901F09143
:101530008A0182FD12C0908180918C018F5F8F7330
:1015400020918D01821751F0E0918C01F0E0ED586F
:10155000FE4F958F80938C0101C08081FF91EF91A8
:101560009F918F912F910F900FBE0F901F90189504
:101570001F920F920FB60F9211242F933F934F9308
:101580005F936F937F938F939F93AF93BF93EF93EB
:10159000FF9383E791E00E945D08FF91EF91BF9177
:1015A000AF919F918F917F916F915F914F913F91FB
:1015B0002F910F900FBE0F901F90189583E791E029
:1015C0000E94220821E0892B09F420E0822F08954F
:1015D000109276011092750188EE93E0A0E0B0E0E1
:1015E0008093770190937801A0937901B0937A0169
:1015F00088E591E0909374018093730185EC90E00D
:101600009093800180937F0184EC90E0909382011D
:101610008093810180EC90E090938401809383011A
:1016200081EC90E0909386018093850182EC90E0BC
:10163000909388018093870186EC90E090938A01D3
:101640008093890110928C0110928D0110928E016D
:1016500010928F0108955058BB27AA270ED04DC174
:101660003ED130F043D120F031F49F3F11F41EF40D
:1016700033C10EF4E095E7FB29C1E92F4FD180F388
:10168000BA17620773078407950718F071F49EF57F
:1016900067C10EF4E0950B2EBA2FA02D0B01B901F6
:1016A00090010C01CA01A0011124FF27591B99F0D8
:1016B000593F50F4503E68F11A16F040A22F232FE4
:1016C000342F4427585FF3CF469537952795A79534
:1016D000F0405395C9F77EF41F16BA0B620B730BDB
:1016E000840BBAF09150A1F0FF0FBB1F661F771F4C
:1016F000881FC2F70EC0BA0F621F731F841F48F401
:10170000879577956795B795F7959E3F08F0B3CF86
:101710009395880F08F09927EE0F97958795089570
:101720000CD0EBC0E3D040F0DAD030F021F45F3FD2
:1017300019F0CCC0511115C1CFC0F0D098F3992346
:10174000C9F35523B1F3951B550BBB27AA27621785
:101750007307840738F09F5F5F4F220F331F441FCA
:10176000AA1FA9F333D00E2E3AF0E0E830D0915002
:101770005040E695001CCAF729D0FE2F27D0660FEF
:10178000771F881FBB1F261737074807AB07B0E82E
:1017900009F0BB0B802DBF01FF2793585F4F2AF044
:1017A0009E3F510568F092C0DCC05F3FECF3983E6D
:1017B000DCF3869577956795B795F7959F5FC9F7A1
:1017C000880F911D9695879597F90895E1E0660F2A
:1017D000771F881FBB1F621773078407BA0720F0A3
:1017E000621B730B840BBA0BEE1F88F7E09508950C
:1017F00004D06894B111B5C0089598D088F09F576F
:1018000090F0B92F9927B751A0F0D1F0660F771F4C
:10181000881F991F1AF0BA95C9F712C0B13081F02C
:101820009FD0B1E008959CC0672F782F8827B85FBC
:1018300039F0B93FCCF3869577956795B395D9F78D
:101840003EF490958095709561957F4F8F4F9F4F97
:101850000895E89409C097FB3EF4909580957095A3
:1018600061957F4F8F4F9F4F9923A9F0F92F96E9EC
:10187000BB279395F695879577956795B795F11161
:10188000F8CFFAF4BB0F11F460FF1BC06F5F7F4FFE
:101890008F4F9F4F16C0882311F096E911C0772310
:1018A00021F09EE8872F762F05C0662371F096E819
:1018B000862F70E060E02AF09A95660F771F881FE8
:1018C000DAF7880F9695879597F9089597F99F67A6
:1018D00080E870E060E008959FEF80EC08950024B8
:1018E0000A941616170618060906089500240A9485
:1018F00012161306140605060895092E0394000C0B
:1019000011F4882352F0BB0F40F4BF2B11F460FF99
:1019100004C06F5F7F4F8F4F9F4F089557FD9058C2
:10192000440F551F59F05F3F71F04795880F97FBA3
:10193000991F61F09F3F79F087950895121613065D
:101940001406551FF2CF4695F1DF08C0161617068C
:101950001806991FF1CF86957105610508940895C1
:10196000E894BB2766277727CB0197F908950BD01A
:10197000C4CFB5DF28F0BADF18F0952309F0A6CF61
:10198000ABCF1124EECFCADFA0F3959FD1F3950F13
:1019900050E0551F629FF001729FBB27F00DB11DF3
:1019A000639FAA27F00DB11DAA1F649F6627B00D83
:1019B000A11D661F829F2227B00DA11D621F739F6C
:1019C000B00DA11D621F839FA00D611D221F749F7A
:1019D0003327A00D611D231F849F600D211D822FC1
:1019E000762F6A2F11249F5750408AF0E1F0882308
:1019F0004AF0EE0FFF1FBB1F661F771F881F915015
:101A00005040A9F79E3F510570F060CFAACF5F3FCD
:101A1000ECF3983EDCF3869577956795B795F79547
:101A2000E7959F5FC1F7FE2B880F911D96958795CF
:101A300097F90895DB018F939F930E948E0DBF91BC
:101A4000AF91A29F800D911DA39F900DB29F900D0D
:101A50001124089597FB072E16F4009407D077FD04
:101A600009D00E94990D07FC05D03EF49095819510
:101A70009F4F0895709561957F4F0895A1E21A2EAA
:101A8000AA1BBB1BFD010DC0AA1FBB1FEE1FFF1F22
:101A9000A217B307E407F50720F0A21BB30BE40B72
:101AA000F50B661F771F881F991F1A9469F76095B9
:101AB0007095809590959B01AC01BD01CF01089573
:101AC000052E97FB1EF400940E94770D57FD07D05A
:101AD0000E943E0D07FC03D04EF40C94770D5095F8
:101AE0004095309521953F4F4F4F5F4F089590950A
:101AF0008095709561957F4F8F4F9F4F0895A29F5E
:101B0000B001B39FC001A39F700D811D1124911DD1
:101B1000B29F700D811D1124911D08950E947F0DAB
:101B2000A59F900DB49F900DA49F800D911D112431
:101B30000895AA1BBB1B51E107C0AA1FBB1FA61714
:101B4000B70710F0A61BB70B881F991F5A95A9F766
:101B500080959095BC01CD010895EE0FFF1F059073
:0A1B6000F491E02D0994F894FFCFF2
:101B6A0001000000000000F8E0071F00FF07E0FF87
:101B7A00FFFF1084FFFF1E00015265616420544676
:101B8A0054204944206661696C65642C20494420CC
:101B9A0073686F756C64206265203078303933342D
:101BAA00312C206275742072656164204944203D9D
:101BBA002030780000000000A008BE0922083B0877
:041BCA002D087E085C
:00000001FF
