:100000000C9454000C947C000C947C000C947C00A8
:100010000C947C000C947C000C947C000C947C0070
:100020000C947C000C947C000C947C000C947C0060
:100030000C947C000C947C000C947C000C947C0050
:100040000C945F030C947C000C9407070C94390704
:100050000C947C000C947C000C947C000C947C0030
:100060000C947C000C947C00010204081020408059
:1000700001020408102001020408102004040404F2
:100080000404040402020202020203030303030342
:1000900000000000250028002B00000000002400C4
:1000A00027002A005B01690711241FBECFEFD8E0AB
:1000B000DEBFCDBF11E0A0E0B1E0ECE1F4E102C0B1
:1000C00005900D92AC33B107D9F721E0ACE3B1E074
:1000D00001C01D92A63EB207E1F710E0C8EAD0E0E9
:1000E00004C02297FE010E94F909C43AD107C9F75A
:1000F0000E94DA050C940C0A0C94000026E040E8FB
:1001000055E260E070E089E491E00C9430052F92B4
:100110003F924F925F926F927F928F929F92AF9297
:10012000BF92CF92DF92EF92FF920F931F93CF93E4
:10013000DF9300D000D000D0CDB7DEB78CE391E0E4
:100140000E94A50129833A834B835C836D837E8360
:10015000E980FA806B807C808D809E808BE08816A1
:1001600091043CF165E071E089E491E00E9427068A
:100170004AE050E0B70189E491E00E94E7066EE0B2
:1001800071E089E491E00E9427064AE050E0B30163
:1001900089E491E00E94E70668E171E089E491E07A
:1001A0000E9427064AE050E0B40189E491E00E94F1
:1001B000EF06B701882777FD8095982F1F921F9231
:1001C0001F9220EF2F93A12CB12C650114EFE12E8B
:1001D00016E0F12E00E010E028EE30E040E050E0C4
:1001E0000E9492051B012C01B301882777FD8095A1
:1001F000982F1F921F9221E02F9320E42F9312E259
:10020000E12E17E0F12E00E010E026EA30E040E0B9
:1002100050E00E9492056B017C010FB6F894DEBF9E
:100220000FBECDBF9BE0891691043CF169E071E0FF
:1002300089E491E00E9427064AE050E0B10189E498
:1002400091E00E94E70665E271E089E491E00E9496
:1002500027064AE050E0B60189E491E00E94E706F3
:1002600068E171E089E491E00E9427064AE050E0ED
:10027000B40189E491E00E94EF0664E670E080E05A
:1002800090E026960FB6F894DEBF0FBECDBFDF918B
:10029000CF911F910F91FF90EF90DF90CF90BF9083
:1002A000AF909F908F907F906F905F904F903F9016
:1002B0002F900C94CC030F930EE02FE040E161E10E
:1002C0008CE391E00E9466010F9108950F93FC0169
:1002D00040832283018363830F910895BF92CF925D
:1002E000DF92EF92FF920F931F93CF93DF93B82E7D
:1002F00034E0C32ED12C00E014E0C0E0D0E0E12CCB
:10030000F12C8B2D0E942F04C817D9070CF4EC0197
:10031000801791070CF48C01E80EF91E81E0C81AD1
:10032000D10879F7C701801B910B8C1B9D0B97FDA2
:10033000019695958795DF91CF911F910F91FF9031
:10034000EF90DF90CF90BF9008952F923F924F9201
:100350005F926F927F928F929F92AF92BF92CF9255
:10036000DF92EF92FF920F931F93CF93DF93CDB75E
:10037000DEB728970FB6F894DEBF0FBECDBF8C0155
:10038000FC01A381B0E0FD01E458FF4FC490FC01E3
:100390008081682F70E0FB01E458FF4FE490F80182
:1003A000428150E0FA01E458FF4FA490F801218106
:1003B00030E0F901E458FF4F6490FD01E859FF4F28
:1003C0003490FB01E859FF4F9490FA01E859FF4F30
:1003D000B490F901E859FF4F249060E00E94260391
:1003E00060E0F80181810E942603F12CEE0CFF1CD5
:1003F000970120573F4F7901F901A591B4918C9154
:10040000392D30953F8383238C93712C660C771C98
:10041000C30180579F4F3C01FC01A591B4918C9181
:10042000922D909589238C9361E0F80183810E943D
:10043000260361E0F80182810E942603D12CCC0CB6
:10044000DD1C960120573F4F6901F901A591B49138
:100450008C9183298C93EA2DF0E0EE0FFF1FE0577B
:10046000FF4FA591B4918C91B0948B218C93F8019E
:10047000808190E00E946E015C01F801808190E033
:100480000E946E018A159B0524F42501481A590A19
:1004900003C02C014A185B08A80EB91E60E0F801E1
:1004A00083810E94260360E0F80182810E94260376
:1004B000F601A591B4918C91309483218C9361E0E5
:1004C000F80180810E942603F701A591B4918C91D7
:1004D00089298C9361E0F80181810E942603F8014B
:1004E000828190E00E946E014C01F801828190E0CF
:1004F0000E946E01881599052CF49401281B390B74
:10050000C90102C08819990903972CF421E033E04E
:10051000431651040CF020E0880C991C61E0F801AE
:10052000838128870E942603F601A591B4918C91BE
:1005300083218C93F301A591B4918C9182298C93A2
:10054000F701A591B4918C913F8183238C9360E056
:10055000F80180810E942603F80182810E942F0405
:100560007C01F80180810E942F042885222309F450
:1005700044C0BC01882777FD8095982F0E94AC0865
:100580002B013C01B701882777FD8095982F0E94A9
:10059000AC089B01AC01C301B2010E94110820E02C
:1005A00030E040E85FE30E94AC076B017C018EEF16
:1005B00097E08A199B0997FD0196BC01759567958F
:1005C000882777FD8095982F0E94AC089B01AC018D
:1005D000C701B6010E94380920E030E046E953E443
:1005E0000E94380920E030E040E85AE30E943809D0
:1005F0000E947908E62F872F02C0E0E080E0BA82EF
:10060000A9829C828B82ED838E832A2D3A81482D8C
:100610005C816E2F782F80E090E028960FB6F894DA
:10062000DEBF0FBECDBFDF91CF911F910F91FF9025
:10063000EF90DF90CF90BF90AF909F908F907F9082
:100640006F905F904F903F902F900895CF93DF93DE
:1006500090E0FC01E859FF4F2491FC01E458FF4F62
:100660008491882349F190E0880F991FFC01E65698
:10067000FF4FA591B49180579F4FFC01C591D49134
:100680009FB7611108C0F8948C91209582238C93B8
:10069000888182230AC0623051F4F8948C91322F01
:1006A000309583238C938881822B888304C0F894AF
:1006B0008C91822B8C939FBFDF91CF9108951F92D5
:1006C0000F920FB60F9211242F933F938F939F9306
:1006D000AF93BF938091410190914201A09143015A
:1006E000B09144013091400123E0230F2D3720F4D5
:1006F0000196A11DB11D05C026E8230F0296A11D7C
:10070000B11D209340018093410190934201A09339
:100710004301B09344018091450190914601A0911D
:100720004701B09148010196A11DB11D809345017B
:1007300090934601A0934701B0934801BF91AF91B8
:100740009F918F913F912F910F900FBE0F901F900F
:1007500018953FB7F8948091450190914601A0917A
:100760004701B091480126B5A89B05C02F3F19F05D
:100770000196A11DB11D3FBF6627782F892F9A2FA3
:10078000620F711D811D911D42E0660F771F881F4A
:10079000991F4A95D1F70895CF92DF92EF92FF9279
:1007A000CF93DF936B017C010E94A903EB01C1147D
:1007B000D104E104F10489F00E944C040E94A903D1
:1007C0006C1B7D0B683E734090F381E0C81AD10822
:1007D000E108F108C851DC4FEACFDF91CF91FF90DB
:1007E000EF90DF90CF900895789484B5826084BDB7
:1007F00084B5816084BD85B5826085BD85B5816025
:1008000085BDEEE6F0E0808181608083E1E8F0E084
:100810001082808182608083808181608083E0E8B3
:10082000F0E0808181608083E1EBF0E08081846092
:100830008083E0EBF0E0808181608083EAE7F0E094
:1008400080818460808380818260808380818160F8
:1008500080838081806880831092C10008958E30EB
:1008600008F08E5087702091040190E4299F900138
:100870001124822B80937C0080917A008064809385
:100880007A0080917A0086FDFCCF809178002091DB
:10089000790090E0922B08950895FC01818D228DBE
:1008A00090E0805C9F4F821B91098F739927089578
:1008B000FC01918D828D981731F0828DE80FF11D2A
:1008C000858D90E008958FEF9FEF0895FC01918D45
:1008D000828D981761F0828DDF01A80FB11D5D96A2
:1008E0008C91928D9F5F9F73928F90E008958FEF10
:1008F0009FEF08958FE597E0892B49F080E090E025
:10090000892B29F00E945F0781110C940000089543
:10091000FC01848DDF01A80FB11DA35ABF4F2C919C
:10092000848D90E001968F739927848FA689B7896B
:100930002C93A089B1898C9180648C93938D848D44
:10094000981306C00288F389E02D80818F7D808313
:100950000895CF93DF93EC01888D8823C9F0EA894D
:10096000FB89808185FD05C0A889B9898C9186FDA8
:100970000FC00FB607FCF5CF808185FFF2CFA889A5
:10098000B9898C9185FFEDCFCE010E948804E7CF15
:10099000DF91CF910895CF92DF92FF920F931F9333
:1009A000CF93DF931F92CDB7DEB76C01DC015B966E
:1009B0009C915B975C968C915C97981307C05096BE
:1009C000ED91FC915197808185FD32C0F601038D38
:1009D00010E00F5F1F4F0F731127F02EF601848D6B
:1009E000F81211C00FB607FCF9CFD6015096ED9161
:1009F000FC915197808185FFF1CFC60169830E94E8
:100A000088046981EBCF838DE80FF11DE35AFF4F16
:100A10006083D6015B960C935B975296ED91FC91A7
:100A2000539780818062808381E058968C930DC0BB
:100A3000D6015696ED91FC91579760835096ED91B3
:100A4000FC91519780818064808381E090E00F90D9
:100A5000DF91CF911F910F91FF90DF90CF9008957C
:100A6000BF92CF92DF92EF92FF92CF93DF93EC0190
:100A70006A017B01B22EE889F98982E08083411501
:100A800081EE580761057105A1F060E079E08DE322
:100A900090E0A70196010E94AB092150310941095C
:100AA00051095695479537952795211580E13807C7
:100AB00098F0E889F989108260E874E88EE190E0A6
:100AC000A70196010E94AB09215031094109510942
:100AD0005695479537952795EC85FD853083EE85AE
:100AE000FF852083188EEC89FD89B082EA89FB8915
:100AF000808180618083EA89FB898081886080832E
:100B0000EA89FB89808180688083EA89FB8980810A
:100B10008F7D8083DF91CF91FF90EF90DF90CF901A
:100B2000BF9008954F925F926F927F92AF92BF9263
:100B3000CF92DF92EF92FF920F931F93CF93DF93A9
:100B4000CDB7DEB729013A01621B730B840B950BFD
:100B500029893A894B895C892A193B094C095D0925
:100B6000298B3A8B4B8B5C8B9B01AC0169897A8911
:100B70008B899C890E949B09E418F50806091709CE
:100B8000A80197010E94CD092A0D3B1D4C1D5D1D3A
:100B9000CA01B901DF91CF911F910F91FF90EF90A2
:100BA000DF90CF90BF90AF907F906F905F904F900D
:100BB000089508950E94F4030E94D9050E947E00C2
:100BC000CAE7D4E00E9487002097E1F30E947A04EC
:100BD000F9CFCF92DF92EF92FF920F931F93CF93B3
:100BE000DF936C017A01EB01E60EF71E00E010E0E6
:100BF000CE15DF0561F06991D601ED91FC91019070
:100C0000F081E02DC6010995080F191FF1CFC80129
:100C1000DF91CF911F910F91FF90EF90DF90CF90D8
:100C200008956115710581F0DB010D900020E9F751
:100C3000AD0141505109461B570BDC01ED91FC9170
:100C40000280F381E02D099480E090E008950C94F7
:100C50001106DC01ED91FC910190F081E02D0994E9
:100C60000F931F93CF93DF93EC016DE00E94290651
:100C70008C016AE0CE010E942906800F911FDF914E
:100C8000CF911F910F9108958F929F92AF92BF9233
:100C9000CF92DF92EF92FF920F931F93CF93DF9348
:100CA000CDB7DEB7A1970FB6F894DEBF0FBECDBFAC
:100CB0007C01C42EE52FCB01D22E19A221E02D15E7
:100CC00010F02AE0D22E8E010F5D1F4F8D2C912C3B
:100CD000A12CB12C6C2D7E2FA50194010E94AB0993
:100CE0008C2DD29E80191124015011098A3014F4E0
:100CF000805D01C0895CF8018083211531054105C3
:100D0000510521F0C22EE32FCA01E4CFB801C7017B
:100D10000E941106A1960FB6F894DEBF0FBECDBF9C
:100D2000DF91CF911F910F91FF90EF90DF90CF90C7
:100D3000BF90AF909F908F900895CF92DF92EF92E7
:100D4000FF920F931F93CF93DF93EC016A017B0116
:100D50002115310579F4E881F9810190F081E02DC8
:100D6000642FDF91CF911F910F91FF90EF90DF9053
:100D7000CF9009942A303105E9F477FF1AC06DE26B
:100D80000E9429068C0144275527BA014C195D0998
:100D90006E097F092AE0CE010E944406800F911F50
:100DA000DF91CF911F910F91FF90EF90DF90CF9047
:100DB00008952AE0B701A601CE01DF91CF911F91DE
:100DC0000F91FF90EF90DF90CF900C9444069A0122
:100DD000AB01662757FD6095762F0C949D060F9307
:100DE0001F93CF93DF93EC019A01AB01662757FD68
:100DF0006095762F0E949D068C01CE010E943006E0
:100E0000800F911FDF91CF911F910F9108951F9235
:100E10000F920FB60F9211242F938F939F93EF93FE
:100E2000FF93E0915901F0915A018081E0915F01B7
:100E3000F091600182FD12C09081809162018F5F0C
:100E40008F7320916301821751F0E0916201F0E00D
:100E5000E75BFE4F958F8093620101C08081FF9117
:100E6000EF919F918F912F910F900FBE0F901F9038
:100E700018951F920F920FB60F9211242F933F9344
:100E80004F935F936F937F938F939F93AF93BF9392
:100E9000EF93FF9389E491E00E948804FF91EF9122
:100EA000BF91AF919F918F917F916F915F914F9182
:100EB0003F912F910F900FBE0F901F90189589E4CE
:100EC00091E00E944D0421E0892B09F420E0822F5B
:100ED000089510924C0110924B0188EE93E0A0E02F
:100EE000B0E080934D0190934E01A0934F01B093D9
:100EF00050018FE291E090934A018093490185EC83
:100F000090E0909356018093550184EC90E090938B
:100F100058018093570180EC90E090935A018093A0
:100F2000590181EC90E090935C0180935B0182EC2D
:100F300090E090935E0180935D0186EC90E0909349
:100F4000600180935F011092620110926301109220
:100F500064011092650108955058BB27AA270ED04E
:100F60004DC13ED130F043D120F031F49F3F11F418
:100F70001EF433C10EF4E095E7FB29C1E92F4FD1F0
:100F800080F3BA17620773078407950718F071F4A6
:100F90009EF567C10EF4E0950B2EBA2FA02D0B0124
:100FA000B90190010C01CA01A0011124FF27591BAE
:100FB00099F0593F50F4503E68F11A16F040A22FB4
:100FC000232F342F4427585FF3CF46953795279525
:100FD000A795F0405395C9F77EF41F16BA0B620B24
:100FE000730B840BBAF09150A1F0FF0FBB1F661F6B
:100FF000771F881FC2F70EC0BA0F621F731F841FAE
:1010000048F4879577956795B795F7959E3F08F0D3
:10101000B3CF9395880F08F09927EE0F9795879592
:1010200008950CD0EBC0E3D040F0DAD030F021F4DA
:101030005F3F19F0CCC0511115C1CFC0F0D098F36B
:101040009923C9F35523B1F3951B550BBB27AA2749
:1010500062177307840738F09F5F5F4F220F331FBB
:10106000441FAA1FA9F333D00E2E3AF0E0E830D087
:1010700091505040E695001CCAF729D0FE2F27D08A
:10108000660F771F881FBB1F261737074807AB0758
:10109000B0E809F0BB0B802DBF01FF2793585F4FCD
:1010A0002AF09E3F510568F092C0DCC05F3FECF330
:1010B000983EDCF3869577956795B795F7959F5F92
:1010C000C9F7880F911D9695879597F90895E1E0E6
:1010D000660F771F881FBB1F621773078407BA0745
:1010E00020F0621B730B840BBA0BEE1F88F7E095A0
:1010F000089504D06894B111B5C0089598D088F0CF
:101100009F5790F0B92F9927B751A0F0D1F0660FF3
:10111000771F881F991F1AF0BA95C9F712C0B1300E
:1011200081F09FD0B1E008959CC0672F782F882769
:10113000B85F39F0B93FCCF3869577956795B3954D
:10114000D9F73EF490958095709561957F4F8F4FBC
:101150009F4F0895E89409C097FB3EF490958095C1
:10116000709561957F4F8F4F9F4F9923A9F0F92F6D
:1011700096E9BB279395F695879577956795B795EB
:10118000F111F8CFFAF4BB0F11F460FF1BC06F5FD1
:101190007F4F8F4F9F4F16C0882311F096E911C0E3
:1011A000772321F09EE8872F762F05C0662371F004
:1011B00096E8862F70E060E02AF09A95660F771F18
:1011C000881FDAF7880F9695879597F9089597F90C
:1011D0009F6780E870E060E008959FEF80EC0895DD
:1011E00000240A9416161706180609060895002406
:1011F0000A9412161306140605060895092E039480
:10120000000C11F4882352F0BB0F40F4BF2B11F4F3
:1012100060FF04C06F5F7F4F8F4F9F4F089557FD52
:101220009058440F551F59F05F3F71F04795880F54
:1012300097FB991F61F09F3F79F0879508951216EB
:1012400013061406551FF2CF4695F1DF08C0161697
:1012500017061806991FF1CF869571056105089448
:101260000895E894BB2766277727CB0197F908955F
:101270000BD0C4CFB5DF28F0BADF18F0952309F002
:10128000A6CFABCF1124EECFCADFA0F3959FD1F349
:10129000950F50E0551F629FF001729FBB27F00D24
:1012A000B11D639FAA27F00DB11DAA1F649F662779
:1012B000B00DA11D661F829F2227B00DA11D621FC8
:1012C000739FB00DA11D621F839FA00D611D221F82
:1012D000749F3327A00D611D231F849F600D211D66
:1012E000822F762F6A2F11249F5750408AF0E1F009
:1012F00088234AF0EE0FFF1FBB1F661F771F881F52
:1013000091505040A9F79E3F510570F060CFAACF91
:101310005F3FECF3983EDCF3869577956795B7953C
:10132000F795E7959F5FC1F7FE2B880F911D969566
:10133000879597F90895DB018F939F930E94EC099D
:10134000BF91AF91A29F800D911DA39F900DB29F61
:10135000900D11240895A1E21A2EAA1BBB1BFD01BA
:101360000DC0AA1FBB1FEE1FFF1FA217B307E40784
:10137000F50720F0A21BB30BE40BF50B661F771FDC
:10138000881F991F1A9469F76095709580959095BC
:101390009B01AC01BD01CF010895052E97FB1EF402
:1013A00000940E94E40957FD07D00E94AB0907FC96
:1013B00003D04EF40C94E409509540953095219556
:1013C0003F4F4F4F5F4F0895909580957095619571
:1013D0007F4F8F4F9F4F08950E94FD09A59F900D4D
:1013E000B49F900DA49F800D911D11240895EE0FC0
:1013F000FF1F0590F491E02D0994A29FB001B39FC7
:10140000C001A39F700D811D1124911DB29F700D0D
:0C141000811D1124911D0895F894FFCF58
:10141C0001000000015261772058203D2000095244
:10142C0061772059203D20000950726573737572E5
:10143C0065203D20000959203D200000000000CB14
:0C144C0004E9054D0466045804A90400DE
:00000001FF
